:020000040800F2
:1000000000280020F1150008951500089B15000830
:10001000A1150008A7150008AD1500080000000094
:10002000000000000000000000000000B315000800
:10003000BF15000800000000CB150008D715000808
:100040003916000839160008391600083916000854
:100050003916000839160008391600083916000844
:100060003916000839160008391600083916000834
:100070003916000839160008391600083916000824
:100080003916000839160008391600083916000814
:100090003916000839160008391600083916000804
:1000A00039160008391600083916000839160008F4
:1000B000391600083916000800000000391600083B
:1000C0003916000800000000000000003916000882
:1000D0000000000039160008391600080000000072
:1000E000391600083916000839160008000000000B
:1000F0000000000000000000000000000000000000
:0C01000000000000000000005FF808F1A3
:1001100010B5054C237833B9044B13B10448AFF341
:1001200000800123237010BD0C000020000000009F
:100130000830000808B5034B1BB103490348AFF36F
:10014000008008BD000000001000002008300008FA
:1001500081F0004102E000BF83F0004330B54FEA78
:1001600041044FEA430594EA050F08BF90EA020FE5
:100170001FBF54EA000C55EA020C7FEA645C7FEA78
:10018000655C00F0E2804FEA5454D4EB5555B8BF9B
:100190006D420CDD2C4480EA020281EA030382EA0C
:1001A000000083EA010180EA020281EA0303362D9E
:1001B00088BF30BD11F0004F4FEA01314FF4801C71
:1001C0004CEA113102D0404261EB410113F0004F83
:1001D0004FEA03334CEA133302D0524263EB43033A
:1001E00094EA050F00F0A780A4F10104D5F1200ED8
:1001F0000DDB02FA0EFC22FA05F2801841F1000133
:1002000003FA0EF2801843FA05F359410EE0A5F106
:1002100020050EF1200E012A03FA0EFC28BF4CF037
:10022000020C43FA05F3C01851EBE37101F00045ED
:1002300007D54FF0000EDCF1000C7EEB00006EEBFA
:100240000101B1F5801F1BD3B1F5001F0CD3490884
:100250005FEA30004FEA3C0C04F101044FEA4452DB
:1002600012F5800F80F09A80BCF1004F08BF5FEA62
:10027000500C50F1000041EB045141EA050130BD42
:100280005FEA4C0C404141EB0101013C28BFB1F554
:10029000801FE9D291F0000F04BF01460020B1FA9F
:1002A00081F308BF2033A3F10B03B3F120020CDA72
:1002B0000C3208DD02F1140CC2F10C0201FA0CF050
:1002C00021FA02F10CE002F11402D8BFC2F1200CB5
:1002D00001FA02F120FA0CFCDCBF41EA0C0190406B
:1002E000E41AA2BF01EB0451294330BD6FEA0404B4
:1002F0001F3C1CDA0C340EDC04F11404C4F120029F
:1003000020FA04F001FA02F340EA030021FA04F3B0
:1003100045EA030130BDC4F10C04C4F1200220FA07
:1003200002F001FA04F340EA0300294630BD21FA45
:1003300004F0294630BD94F0000F83F4801306BF0B
:1003400081F480110134013D4EE77FEA645C18BFFF
:100350007FEA655C29D094EA050F08BF90EA020F96
:1003600005D054EA000C04BF1946104630BD91EA8E
:10037000030F1EBF0021002030BD5FEA545C05D191
:100380004000494128BF41F0004130BD14F58004D0
:100390003CBF01F5801130BD01F0004545F0FE4144
:1003A00041F470014FF0000030BD7FEA645C1ABF79
:1003B000194610467FEA655C1CBF0B46024650EAB0
:1003C000013406BF52EA033591EA030F41F40021DC
:1003D00030BD00BF90F0000F04BF0021704730B562
:1003E0004FF4806404F132044FF000054FF0000137
:1003F00050E700BF90F0000F04BF0021704730B5F8
:100400004FF4806404F1320410F0004548BF4042CC
:100410004FF000013EE700BF42004FEAE2014FEA21
:1004200031014FEA02701FBF12F07F4393F07F4FFC
:1004300081F06051704732F07F4208BF704793F0FF
:100440007F4F04BF41F40021704730B54FF4607412
:1004500001F0004521F000411CE700BF50EA010215
:1004600008BF704730B54FF000050AE050EA0102BE
:1004700008BF704730B511F0004502D5404261EB2E
:1004800041014FF4806404F132045FEA915C3FF46F
:10049000D8AE4FF003025FEADC0C18BF03325FEA0C
:1004A000DC0C18BF033202EBDC02C2F1200300FABD
:1004B00003FC20FA02F001FA03FE40EA0E0021FAE2
:1004C00002F11444BDE600BF70B54FF0FF0C4CF4D0
:1004D000E06C1CEA11541DBF1CEA135594EA0C0F82
:1004E00095EA0C0F00F0DEF82C4481EA030621EABD
:1004F0004C5123EA4C5350EA013518BF52EA0335F8
:1005000041F4801143F4801338D0A0FB02CE4FF0A9
:100510000005E1FB02E506F00042E0FB03E54FF0D9
:100520000006E1FB03569CF0000F18BF4EF0010ED1
:10053000A4F1FF04B6F5007F64F5407404D25FEACD
:100540004E0E6D4146EB060642EAC62141EA555180
:100550004FEAC52040EA5E504FEACE2EB4F1FD0CC2
:1005600088BFBCF5E06F1ED8BEF1004F08BF5FEA40
:10057000500E50F1000041EB045170BD06F00046F2
:1005800046EA010140EA020081EA0301B4EB5C049F
:10059000C2BFD4EB0C0541EA045170BD41F4801197
:1005A0004FF0000E013C00F3AB8014F1360FDEBFBC
:1005B000002001F0004170BDC4F10004203C35DA98
:1005C0000C341BDC04F11404C4F1200500FA05F31B
:1005D00020FA04F001FA05F240EA020001F00042BC
:1005E00021F0004110EBD37021FA04F642EB060132
:1005F0005EEA430E08BF20EAD37070BDC4F10C045C
:10060000C4F1200500FA04F320FA05F001FA04F21F
:1006100040EA020001F0004110EBD37041F100010B
:100620005EEA430E08BF20EAD37070BDC4F1200516
:1006300000FA05F24EEA020E20FA04F301FA05F27E
:1006400043EA020321FA04F001F0004121FA04F226
:1006500020EA020000EBD3705EEA430E08BF20EAF6
:10066000D37070BD94F0000F0FD101F00046400030
:1006700041EB010111F4801F08BF013CF7D041EAB2
:10068000060195F0000F18BF704703F000465200B6
:1006900043EB030313F4801F08BF013DF7D043EA87
:1006A0000603704794EA0C0F0CEA135518BF95EA3D
:1006B0000C0F0CD050EA410618BF52EA4306D1D1C4
:1006C00081EA030101F000414FF0000070BD50EAE3
:1006D000410606BF1046194652EA430619D094EA6D
:1006E0000C0F02D150EA013613D195EA0C0F05D157
:1006F00052EA03361CBF104619460AD181EA0301AB
:1007000001F0004141F0FE4141F470014FF0000062
:1007100070BD41F0FE4141F4780170BD70B54FF0FD
:10072000FF0C4CF4E06C1CEA11541DBF1CEA13557D
:1007300094EA0C0F95EA0C0F00F0A7F8A4EB05045F
:1007400081EA030E52EA03354FEA013100F0888056
:100750004FEA03334FF0805545EA131343EA12631F
:100760004FEA022245EA111545EA10654FEA0026D4
:100770000EF000419D4208BF964244F1FD0404F58D
:10078000407402D25B084FEA3202B61A65EB0305E9
:100790005B084FEA32024FF480104FF4002CB6EBA6
:1007A000020E75EB030E22BFB61A754640EA0C0026
:1007B0005B084FEA3202B6EB020E75EB030E22BF66
:1007C000B61A754640EA5C005B084FEA3202B6EBA7
:1007D000020E75EB030E22BFB61A754640EA9C0066
:1007E0005B084FEA3202B6EB020E75EB030E22BF36
:1007F000B61A754640EADC0055EA060E18D04FEAF4
:10080000051545EA16754FEA06164FEAC30343EA93
:1008100052734FEAC2025FEA1C1CC0D111F4801F60
:100820000BD141EA00014FF000004FF0004CB6E759
:1008300011F4801F04BF01430020B4F1FD0C88BFF8
:10084000BCF5E06F3FF6AFAEB5EB030C04BFB6EB03
:10085000020C5FEA500C50F1000041EB045170BDF6
:100860000EF0004E4EEA113114EB5C04C2BFD4EB23
:100870000C0541EA045170BD41F480114FF0000EA7
:10088000013C90E645EA060E8DE60CEA135594EA23
:100890000C0F08BF95EA0C0F3FF43BAF94EA0C0F26
:1008A0000AD150EA01347FF434AF95EA0C0F7FF49B
:1008B00025AF104619462CE795EA0C0F06D152EAEF
:1008C00003353FF4FDAE1046194622E750EA4106D3
:1008D00018BF52EA43067FF4C5AE50EA41047FF4E4
:1008E0000DAF52EA43057FF4EBAE12E74A0011D296
:1008F00012F5001211D20DD56FF47873B3EB62527A
:100900000ED44FEAC12343F0004343EA505323FA85
:1009100002F070474FF00000704750EA013002D1FA
:100920004FF0FF3070474FF00000704753B94AB99D
:10093000002908BF00281CBF4FF0FF314FF0FF30E7
:1009400000F076B9ADF1080C6DE904CE00F006F8C0
:10095000DDF804E0DDE9022304B070472DE9F0473B
:10096000089E0D4604468846002B4DD18A42944687
:1009700068D9B2FA82F252B101FA02F3C2F120014F
:1009800020FA01F10CFA02FC41EA030894404FEA14
:100990001C41B8FBF1F71FFA8CFE01FB178807FB1F
:1009A0000EF0230C43EA084398420AD91CEB0303D8
:1009B00007F1FF3580F01E81984240F21B81023F13
:1009C00063441B1AB3FBF1F001FB103300FB0EFE76
:1009D000A4B244EA0344A6450AD91CEB040400F17E
:1009E000FF3380F00981A64540F206816444023855
:1009F0000021A4EB0E0440EA07401EB10023D440BE
:100A0000C6E90043BDE8F0878B4208D9002E00F00C
:100A1000EE800021C6E900050846BDE8F087B3FA7C
:100A200083F100294AD1AB4202D3824200F2FC801A
:100A3000841A65EB030301209846002EE2D0C6E934
:100A40000048DFE702B9FFDEB2FA82F2002A40F086
:100A50009180A1EB0C0001214FEA1C471FFA8CFE8C
:100A6000B0FBF7F307FB1300250C45EA00450EFB2E
:100A700003F0A84208D91CEB050503F1FF3802D2A8
:100A8000A84200F2CE8043462D1AB5FBF7F007FBD3
:100A900010550EFB00FEA4B244EA0544A64508D951
:100AA0001CEB040400F1FF3502D2A64500F2B6802B
:100AB0002846A4EB0E0440EA03409EE7C1F120075C
:100AC0008B4022FA07FC4CEA030C25FA07FA4FEA9E
:100AD0001C49BAFBF9F820FA07F309FB18AA8D4064
:100AE0001FFA8CFE1D4300FA01F308FB0EF02C0CDC
:100AF00044EA0A44A04202FA01F20BD91CEB0404B6
:100B000008F1FF3A80F08880A04240F28580A8F189
:100B100002086444241AB4FBF9F009FB104400FBFA
:100B20000EFEADB245EA0444A64508D91CEB040408
:100B300000F1FF356CD2A6456AD90238644440EA18
:100B40000840A0FB0295A4EB0E04AC42C846AE469A
:100B500056D353D0002E69D0B3EB080264EB0E04D9
:100B600022FA01F304FA07F71F43CC40C6E90074E8
:100B7000002147E70CFA02FCC2F1200125FA01F33B
:100B80004FEA1C4720FA01F195400D43B3FBF7F102
:100B900007FB11331FFA8CFE280C40EA034001FBCF
:100BA0000EF3834204FA02F408D91CEB000001F1B1
:100BB000FF382FD283422DD902396044C01AB0FBCE
:100BC000F7F307FB1300ADB245EA004503FB0EF057
:100BD000A84208D91CEB050503F1FF3816D2A8423C
:100BE00014D9023B6544281A43EA014138E73146EB
:100BF000304607E72F46E4E61846F9E64B45A9D20A
:100C0000B9EB020865EB0C0E0138A3E74346EAE7AF
:100C1000284694E74146D1E7D0467BE76444023852
:100C200047E7023B65442FE7084606E73146E9E619
:100C3000704700BF0000000080B500AF00F0FEFC70
:100C400000F0BAF800F06EF900F0FCF800F088FA55
:100C500000F0B7FA4C4801F03FFC00214A4801F08F
:100C6000DFFC8021494800F0CFFF0346012B0ED165
:100C70000021002000F0B0FA454800F0CAFA002137
:100C8000012000F0A9FA434800F0C3FAE9E7012285
:100C90004FF40071404800F0CEFF0A2000F030FD14
:100CA00001224FF400713C4800F0C5FF0A2000F01B
:100CB00027FD00F086FA0421002000F08DFA374865
:100CC00000F0A7FA4FF47A7000F01AFD0521012018
:100CD00000F082FA324800F09CFA4FF47A7000F08B
:100CE0000FFD00F06EFA0021002000F075FA2D4B88
:100CF0001B682D4AB2FBF3F32C4A13602B4B1B6885
:100D00002A4A126802FB03F31846FFF763FB18A395
:100D1000D3E90023FFF7D8FB02460B4610461946DD
:100D200015A3D3E90023FFF7CFFB02460B464FF094
:100D300000001F49FFF7F2FC02460B461046194619
:100D40000FA3D3E90023FFF7BFFB02460B46104673
:100D50001946FFF7CBFD0346164A1360154B1B6877
:100D6000184600F003FB42F2107000F0C9FC78E76F
:100D700035A1F23F3CBD43408DEDB5A0F7C6B03E76
:100D80000000000080842E4128000020000801405F
:100D90002030000834300008000C014044300008C6
:100DA000503000087000002000A24A0474000020A7
:100DB0000000F03F7800002080B590B000AF07F150
:100DC000180328220021184602F016F93B1D0022C4
:100DD0001A605A609A60DA601A610123BB614FF4AD
:100DE0008033FB6100233B620123BB6202237B63F0
:100DF0004FF48033BB634FF4E013FB6307F1180338
:100E0000184600F031FF0346002B01D000F04EFBE6
:100E10000F237B600223BB600023FB604FF48063E1
:100E20003B6100237B613B1D0221184601F09EF9C6
:100E30000346002B01D000F039FB00BF4037BD4610
:100E400080BD000080B58AB000AF07F11803002212
:100E50001A605A609A60DA6007F1100300221A6083
:100E60005A603B4600221A605A609A60DA602C4B46
:100E70004FF080421A602A4B00225A60284B002211
:100E80009A60274B4FF6FF72DA60254B00221A61F9
:100E9000234B80229A61224801F0CEFA0346002BB0
:100EA00001D000F003FB4FF48053BB6107F118033E
:100EB00019461B4801F046FD0346002B01D000F007
:100EC000F5FA174801F054FB0346002B01D000F05F
:100ED000EDFA00233B6100237B6107F11003194603
:100EE0000F4802F00DF80346002B01D000F0DEFAA7
:100EF00000233B6001237B600023BB600023FB6079
:100F00003B4600221946064801F088FC0346002BA8
:100F100001D000F0CBFA00BF2837BD4680BD00BF2E
:100F20002800002080B588B000AF07F11003002230
:100F30001A605A609A60DA602D4B9B692C4A43F024
:100F4000200393612A4B9B6903F02003FB60FB683D
:100F5000274B9B69264A43F004039361244B9B690A
:100F600003F00403BB60BB68214B9B69204A43F03C
:100F7000080393611E4B9B6903F008037B607B6849
:100F800000227E211B4800F056FE002240F2012183
:100F9000194800F050FE7E233B6101237B61002352
:100FA000BB610223FB6107F110031946114800F0F1
:100FB000AFFC80233B6100237B610023BB6107F111
:100FC000100319460B4800F0A3FC40F201233B61DB
:100FD00001237B610023BB610223FB6107F1100346
:100FE0001946054800F094FC00BF2037BD4680BD7F
:100FF0000010024000080140000C014080B584B0A0
:1010000000AF03460A46FB711346BB71BB791A4613
:101010000121514800F00FFEFB791B09FB730023EF
:10102000BB7333E0FB7B03F001037B73BB7B032BC0
:1010300026D801A252F823F04910000857100008E2
:1010400065100008731000087B7B1A46082143488E
:1010500000F0F1FD14E07B7B1A4610213F4800F0C0
:10106000EAFD0DE07B7B1A4620213C4800F0E3FDC1
:1010700006E07B7B1A464021384800F0DCFD00BFCB
:10108000FB7B5B08FB73BB7B0133BB73BB7B032B1D
:10109000C8D901220421314800F0CDFD022000F022
:1010A0002FFB002204212D4800F0C5FD012000F097
:1010B00027FBFB7903F00F03FB730023BB7333E0C3
:1010C000FB7B03F001037B73BB7B032B26D801A2C0
:1010D00052F823F0E5100008F31000080111000891
:1010E0000F1100087B7B1A4608211C4800F0A3FD65
:1010F00014E07B7B1A461021184800F09CFD0DE09F
:101100007B7B1A462021154800F095FD06E07B7B8D
:101110001A464021114800F08EFD00BFFB7B5B08A2
:10112000FB73BB7B0133BB73BB7B032BC8D9012291
:1011300004210A4800F07FFD022000F0E1FA0022BD
:101140000421064800F077FD012000F0D9FA00BF25
:101150001037BD4680BD00BF000C014000080140B3
:1011600080B500AF282000F0CBFA00212820FFF73F
:1011700045FF022000F0C4FA00210120FFF73EFFE6
:10118000022000F0BDFA00210220FFF737FF022005
:1011900000F0B6FA00210C20FFF730FF022000F02B
:1011A000AFFA00210620FFF729FF022000F0A8FA7D
:1011B00000218020FFF722FF022000F0A1FA00BFEB
:1011C00080BD80B500AF00210120FFF717FF02208E
:1011D00000F096FA00BF80BD80B582B000AF034634
:1011E0000A46FB711346BB71FB79002B04D1BB7916
:1011F00063F07F03BB7103E0BB7963F03F03BB7116
:10120000BB7900211846FFF7F9FE00BF0837BD463D
:1012100080BD80B582B000AF786007E07B685A1C63
:101220007A601B7801211846FFF7E8FE7B681B787F
:10123000002BF3D100BF00BF0837BD4680BDF0B51D
:101240008BB000AFC7E902011346FB71FB79002B9D
:101250003FD1002387F82730002387F8263033E07A
:1012600097F82630C3F107039900D7E90223C1F1AB
:101270002006A1F1200022FA01F403FA06F6344315
:1012800023FA00F0044323FA01F5E3B203F00F035D
:1012900087F8273097F82730092B05D897F827309B
:1012A000303387F8273004E097F82730373387F852
:1012B000273097F8273001211846FFF79FFE97F84F
:1012C0002630013387F8263097F82630072BC7D908
:1012D00047E00023BB8423E0D7E902014FF00A0274
:1012E0004FF00003FFF722FB10461946B7F92430F0
:1012F00002B25B0028333B4423F8182CD7E90201E3
:101300004FF00A024FF00003FFF710FB02460B46B6
:10131000C7E90223B7F924309BB201339BB2BB84E7
:10132000D7E902231343D7D1BB8C013B9BB2BB84CB
:1013300013E0B7F924305B0028333B4433F9183C01
:10134000DBB23033DBB201211846FFF757FEB7F9A5
:1013500024309BB2013B9BB2BB84B7F92430002BF5
:10136000E7DA00BF2C37BD46F0BD00002DE9B04FD5
:1013700086B000AFF86000237B61002000F07AF8AF
:1013800000210020FFF728FF3248FFF742FFFB68EB
:10139000002B15D0FB68002B12D1FB684FF47A723A
:1013A00002FB03F37B617B6900223B607A600122D0
:1013B000D7E90001FFF743FF2748FFF72AFF44E082
:1013C000FB68012B13D9FB6840F2E63293420ED83A
:1013D000FB687B617B6900229A4693460122504656
:1013E0005946FFF72CFF1D48FFF713FF2DE0FB6860
:1013F000B3F57A7F16D9FB68194A934212D8FB6875
:10140000184AA2FB03239B097B617B690022984653
:101410009146012240464946FFF711FF1248FFF767
:10142000F8FE12E0FB68114AA2FB03239B0D7B61CF
:101430007B6900221C461546012220462946FFF7FB
:10144000FEFE0B48FFF7E5FE00BF00BF1837BD46A4
:10145000BDE8B08F583000085C30000860300008EC
:101460003E420F00D34D6210643000086BCA5F6BC0
:101470006830000880B584B000AF0346FB710023DC
:10148000FB73FB7900211846FFF7A6FE06E0012159
:101490008020FFF7B3FDFB7B0133FB73FB7B0F2B3E
:1014A000F5D900BF00BF1037BD4680BD80B400AF86
:1014B00072B600BFFEE7000080B485B000AF154BE8
:1014C0009B69144A43F001039361124B9B6903F03B
:1014D0000103BB60BB680F4BDB690E4A43F08053CE
:1014E000D3610C4BDB6903F080537B607B680A4B54
:1014F0005B68FB60FB6823F0E063FB60FB6843F024
:101500000073FB60044AFB68536000BF1437BD469C
:1015100080BC7047001002400000014080B588B0D8
:1015200000AF786007F1100300221A605A609A60D9
:10153000DA607B681B68B3F1804F23D1134BDB6902
:10154000124A43F00103D361104BDB6903F001033E
:10155000FB60FB680D4B9B690C4A43F004039361ED
:101560000A4B9B6903F00403BB60BB6801233B612A
:1015700000237B610023BB6107F110031946044877
:1015800000F0C6F900BF2037BD4680BD0010024004
:101590000008014080B400AFFEE780B400AFFEE772
:1015A00080B400AFFEE780B400AFFEE780B400AFC8
:1015B000FEE780B400AF00BFBD4680BC704780B47A
:1015C00000AF00BFBD4680BC704780B400AF00BF15
:1015D000BD4680BC704780B500AF00F075F800BF15
:1015E00080BD80B400AF00BFBD4680BC7047000026
:1015F0000C480D490D4A002302E0D458C45004336E
:10160000C4188C42F9D30A4A0A4C002301E0136043
:101610000432A242FBD3FFF7E4FF01F0C9FCFFF75D
:101620000BFB7047000000200C0000209C300008DD
:101630000C00002080000020FEE7000080B500AF15
:10164000084B1B68074A43F010031360032000F0A7
:101650002BF90F2000F008F8FFF72EFF00231846A3
:1016600080BD00BF0020024080B582B000AF78602E
:10167000124B1A68124B1B7819464FF47A73B3FB5E
:10168000F1F3B2FBF3F3184600F035F90346002BF3
:1016900001D001230EE07B680F2B0AD80022796865
:1016A0004FF0FF3000F00BF9064A7B68136000230F
:1016B00000E0012318460837BD4680BD0000002029
:1016C000080000200400002080B400AF054B1B7808
:1016D0001A46054B1B681344034A136000BFBD46FE
:1016E00080BC7047080000207C00002080B400AF60
:1016F000024B1B681846BD4680BC70477C0000202A
:1017000080B584B000AF7860FFF7F0FFB8607B6809
:10171000FB60FB68B3F1FF3F05D00A4B1B781A460C
:10172000FB681344FB6000BFFFF7E0FF0246BB68A5
:10173000D31AFA689A42F7D800BF00BF1037BD46E7
:1017400080BD00BF0800002080B485B000AF786085
:101750007B6803F00703FB600C4BDB68BB60BA6877
:101760004FF6FF031340BB60FB681A02BB681343CC
:1017700043F0BF6343F40033BB60044ABB68D360EB
:1017800000BF1437BD4680BC704700BF00ED00E0CD
:1017900080B400AF044BDB681B0A03F00703184654
:1017A000BD4680BC704700BF00ED00E080B483B050
:1017B00000AF03463960FB7197F90730002B0ADB55
:1017C0003B68DAB20C4997F907301201D2B20B44E8
:1017D00083F800230AE03B68DAB20849FB7903F09A
:1017E0000F03043B1201D2B20B441A7600BF0C3730
:1017F000BD4680BC704700BF00E100E000ED00E0A6
:1018000080B489B000AFF860B9607A60FB6803F01B
:101810000703FB61FB69C3F10703042B28BF042303
:10182000BB61FB690433062B02D9FB69033B00E073
:1018300000237B614FF0FF32BB6902FA03F3DA4306
:10184000BB681A407B699A404FF0FF317B6901FA0F
:1018500003F3D9437B680B40134318462437BD4636
:1018600080BC704780B582B000AF78607B68013B78
:10187000B3F1807F01D301230FE00A4A7B68013B6B
:1018800053600F214FF0FF30FFF790FF054B002210
:101890009A60044B07221A60002318460837BD4699
:1018A00080BD00BF10E000E080B582B000AF78607E
:1018B0007868FFF749FF00BF0837BD4680BD80B597
:1018C00086B000AF0346B9607A60FB7300237B618A
:1018D000FFF75EFF78617A68B9687869FFF790FF73
:1018E000024697F90F3011461846FFF75FFF00BF19
:1018F0001837BD4680BD80B582B000AF786078688B
:10190000FFF7B0FF034618460837BD4680BD00000C
:1019100080B48BB000AF7860396000237B62002315
:101920003B6261E101227B6A02FA03F3FB613B68DF
:101930001B68FA691340BB61BA69FB699A4240F0BF
:1019400050813B685B68974A93425ED0954A9342C8
:1019500075D8954A934258D0934A93426FD8934A88
:10196000934252D0914A934269D8914A93424CD0C3
:101970008F4A934263D88F4A934246D08D4A93420E
:101980005DD8122B2AD8122B59D801A252F823F075
:101990000B1A0008E5190008F7190008391A0008A1
:1019A0003F1A00083F1A00083F1A00083F1A0008B3
:1019B0003F1A00083F1A00083F1A00083F1A0008A3
:1019C0003F1A00083F1A00083F1A00083F1A000893
:1019D0003F1A0008ED190008011A0008764A9342E0
:1019E00013D02CE03B68DB683B6229E03B68DB6896
:1019F00004333B6224E03B68DB6808333B621FE052
:101A00003B68DB680C333B621AE03B689B68002B49
:101A100002D104233B6213E03B689B68012B05D194
:101A200008233B627B68FA691A6109E008233B627C
:101A30007B68FA695A6103E000233B6200E000BF63
:101A4000BB69FF2B01D87B6801E07B6804337B61B5
:101A5000BB69FF2B02D87B6A9B0002E07B6A083BD4
:101A60009B003B617B691A680F213B6901FA03F314
:101A7000DB431A40396A3B6901FA03F31A437B6975
:101A80001A603B685B6803F08053002B00F0A9806C
:101A90004A4B9B69494A43F001039361474B9B6959
:101AA00003F00103BB60BB68454A7B6A9B080233B5
:101AB00052F82330FB607B6A03F003039B000F2284
:101AC00002FA03F3DB43FA681340FB607B683D4A8C
:101AD00093420DD07B683C4A934207D07B683B4AD7
:101AE000934201D1022304E0032302E0012300E03A
:101AF00000237A6A02F0030292009340FA681343CB
:101B0000FB602F497B6A9B080233FA6841F8232067
:101B10003B685B6803F48033002B06D02C4B1A68BB
:101B20002B49BB6913430B6006E0294B1A68BB695C
:101B3000DB43274913400B603B685B6803F40033C9
:101B4000002B06D0224B5A682149BB6913434B60D6
:101B500006E01F4B5A68BB69DB431D4913404B60CD
:101B60003B685B6803F48013002B06D0184B9A681F
:101B70001749BB6913438B6006E0154B9A68BB6934
:101B8000DB43134913408B603B685B6803F400132D
:101B9000002B1FD00E4BDA680D49BB691343CB6095
:101BA0001FE000BF000032100000311000002210C2
:101BB000000021100000121000001110001002405F
:101BC0000000014000080140000C014000100140ED
:101BD000000401400B4BDA68BB69DB430949134041
:101BE000CB607B6A01337B623B681A687B6A22FAAE
:101BF00003F3002B7FF496AE00BF00BF2C37BD4629
:101C000080BC70470004014080B485B000AF7860AC
:101C10000B467B807B689A687B881340002B02D040
:101C20000123FB7301E00023FB73FB7B1846143791
:101C3000BD4680BC704780B483B000AF78600B466F
:101C40007B8013467B707B78002B03D07A887B687F
:101C50001A6103E07B881A047B681A6100BF0C37A5
:101C6000BD4680BC7047000080B586B000AF78608C
:101C70007B68002B01D1012372E27B681B6803F0B3
:101C80000103002B00F08780924B5B6803F00C038C
:101C9000042B0CD08F4B5B6803F00C03082B12D184
:101CA0008C4B5B6803F48033B3F5803F0BD1894BD9
:101CB0001B6803F40033002B6CD07B685B68002B3F
:101CC00068D101234CE27B685B68B3F5803F06D1A5
:101CD000804B1B687F4A43F4803313602EE07B689F
:101CE0005B68002B0CD17B4B1B687A4A23F4803352
:101CF0001360784B1B68774A23F4802313601DE040
:101D00007B685B68B3F5A02F0CD1724B1B68714ADE
:101D100043F4802313606F4B1B686E4A43F4803397
:101D200013600BE06B4B1B686A4A23F4803313602B
:101D3000684B1B68674A23F4802313607B685B68E9
:101D4000002B13D0FFF7D2FC386108E0FFF7CEFC80
:101D500002463B69D31A642B01D9032300E25D4B91
:101D60001B6803F40033002BF0D014E0FFF7BEFC37
:101D7000386108E0FFF7BAFC02463B69D31A642BCE
:101D800001D90323ECE1534B1B6803F40033002B10
:101D9000F0D100E000BF7B681B6803F00203002B5A
:101DA00063D04C4B5B6803F00C03002B0BD0494B0A
:101DB0005B6803F00C03082B1CD1464B5B6803F4F3
:101DC0008033002B16D1434B1B6803F00203002B1A
:101DD00005D07B681B69012B01D00123C0E13D4B7D
:101DE0001B6823F0F8027B685B69DB003949134309
:101DF0000B603AE07B681B69002B20D0364B012238
:101E00001A60FFF773FC386108E0FFF76FFC0246C9
:101E10003B69D31A022B01D90323A1E12D4B1B6887
:101E200003F00203002BF0D02A4B1B6823F0F802CA
:101E30007B685B69DB00274913430B6015E0264B89
:101E400000221A60FFF752FC386108E0FFF74EFCF1
:101E500002463B69D31A022B01D9032380E11D4BB3
:101E60001B6803F00203002BF0D17B681B6803F0B2
:101E70000803002B3AD07B689B69002B19D0174BC5
:101E800001221A60FFF732FC386108E0FFF72EFCF0
:101E900002463B69D31A022B01D9032360E10D4BA3
:101EA0005B6A03F00203002BF0D0012000F0A6FAD9
:101EB0001CE00A4B00221A60FFF718FC38610FE0A3
:101EC000FFF714FC02463B69D31A022B08D90323FF
:101ED00046E100BF0010024000004242800442423E
:101EE000924B5B6A03F00203002BE9D17B681B680D
:101EF00003F00403002B00F0A6800023FB758B4B3E
:101F0000DB6903F08053002B0DD1884BDB69874AD6
:101F100043F08053D361854BDB6903F08053BB6092
:101F2000BB680123FB75824B1B6803F48073002B95
:101F300018D17F4B1B687E4A43F480731360FFF710
:101F4000D5FB386108E0FFF7D1FB02463B69D31AA5
:101F5000642B01D9032303E1754B1B6803F48073E1
:101F6000002BF0D07B68DB68012B06D16F4B1B6A1E
:101F70006E4A43F0010313622DE07B68DB68002B9F
:101F80000CD16A4B1B6A694A23F001031362674B49
:101F90001B6A664A23F0040313621CE07B68DB685B
:101FA000052B0CD1614B1B6A604A43F0040313629A
:101FB0005E4B1B6A5D4A43F0010313620BE05B4B0F
:101FC0001B6A5A4A23F001031362584B1B6A574A93
:101FD00023F0040313627B68DB68002B15D0FFF746
:101FE00085FB38610AE0FFF781FB02463B69D31AA3
:101FF00041F28832934201D90323B1E04B4B1B6A73
:1020000003F00203002BEED014E0FFF76FFB386102
:102010000AE0FFF76BFB02463B69D31A41F28832B4
:10202000934201D903239BE0404B1B6A03F0020358
:10203000002BEED1FB7D012B05D13C4BDB693B4AEC
:1020400023F08053D3617B68DB69002B00F087802D
:10205000364B5B6803F00C03082B61D07B68DB69AF
:10206000022B46D1334B00221A60FFF73FFB386149
:1020700008E0FFF73BFB02463B69D31A022B01D96C
:1020800003236DE0294B1B6803F00073002BF0D194
:102090007B681B6AB3F5803F08D1244B5B6823F44F
:1020A00000327B689B68214913434B601F4B5B6880
:1020B00023F474127B68196A7B685B6A0B431B49C3
:1020C00013434B601B4B01221A60FFF70FFB386173
:1020D00008E0FFF70BFB02463B69D31A022B01D93C
:1020E00003233DE0114B1B6803F00073002BF0D07D
:1020F00035E0104B00221A60FFF7F8FA386108E06B
:10210000FFF7F4FA02463B69D31A022B01D90323E5
:1021100026E0064B1B6803F00073002BF0D11EE095
:102120007B68DB69012B07D1012319E00010024015
:1021300000700040600042420B4B5B68FB60FB6834
:1021400003F480327B681B6A9A4206D1FB6803F471
:1021500070127B685B6A9A4201D0012300E0002381
:1021600018461837BD4680BD0010024080B584B0C7
:1021700000AF786039607B68002B01D10123D0E08B
:102180006A4B1B6803F007033A689A4210D9674B01
:102190001B6823F0070265493B6813430B60634BE0
:1021A0001B6803F007033A689A4201D00123B8E0A4
:1021B0007B681B6803F00203002B20D07B681B6840
:1021C00003F00403002B05D0594B5B68584A43F4D5
:1021D000E06353607B681B6803F00803002B05D0A5
:1021E000534B5B68524A43F460535360504B5B68F7
:1021F00023F0F0027B689B684D4913434B607B687A
:102200001B6803F00103002B40D07B685B68012B47
:1022100007D1474B1B6803F40033002B15D1012372
:102220007FE07B685B68022B07D1414B1B6803F0A2
:102230000073002B09D1012373E03D4B1B6803F0B1
:102240000203002B01D101236BE0394B5B6823F0C3
:1022500003027B685B68364913434B60FFF746FA1D
:10226000F8600AE0FFF742FA0246FB68D31A41F22F
:102270008832934201D9032353E02D4B5B6803F06E
:102280000C027B685B689B009A42EBD1274B1B6872
:1022900003F007033A689A4210D2244B1B6823F0DC
:1022A000070222493B6813430B60204B1B6803F075
:1022B00007033A689A4201D0012332E07B681B6829
:1022C00003F00403002B08D0194B5B6823F4E06291
:1022D0007B68DB68164913434B607B681B6803F01F
:1022E0000803002B09D0124B5B6823F460527B6813
:1022F0001B69DB000E4913434B6000F021F80246D6
:102300000B4B5B681B0903F00F030A49CB5C22FAF5
:1023100003F3094A1360094B1B681846FFF7A4F939
:10232000002318461037BD4680BD00BF0020024084
:10233000001002407C300008000000200400002053
:1023400090B48AB000AF294B3C1D0FCB84E80F003E
:1023500040F201233B800023FB610023BB6100238B
:102360007B6200237B6100233B62214B5B68FB6146
:10237000FB6903F00C03042B02D0082B03D02BE0E5
:102380001C4B3B622BE0FB699B0C03F00F032833D3
:102390003B4413F8243C7B61FB6903F48033002B3E
:1023A00012D0134B5B685B0C03F0010328333B44F2
:1023B00013F8283CBB617B690E4A03FB02F2BB6940
:1023C000B2FBF3F37B6204E07B690B4A02FB03F38D
:1023D0007B627B6A3B6202E0064B3B6200BF3B6A6A
:1023E00018462837BD4690BC704700BF6C300008C7
:1023F0000010024000127A0000093D0080B485B050
:1024000000AF78600A4B1B680A4AA2FB03235B0AF1
:102410007A6802FB03F3FB6000BFFB685A1EFA6098
:10242000002BF9D100BF00BF1437BD4680BC7047F8
:1024300000000020D34D621080B582B000AF7860FC
:102440007B68002B01D1012341E07B6893F83D308C
:10245000DBB2002B06D17B68002283F83C20786831
:10246000FFF75CF87B68022283F83D207B681A68DE
:102470007B6804331946104600F028FB7B68012274
:1024800083F846207B68012283F83E207B68012286
:1024900083F83F207B68012283F840207B6801227B
:1024A00083F841207B68012283F842207B68012267
:1024B00083F843207B68012283F844207B68012253
:1024C00083F845207B68012283F83D2000231846CD
:1024D0000837BD4680BD000080B485B000AF78608D
:1024E0007B6893F83D30DBB2012B01D0012335E04E
:1024F0007B68022283F83D207B681B68DA687B6872
:102500001B6842F00102DA607B681B68164A93423E
:1025100009D07B681B68B3F1804F04D07B681B68CF
:10252000124A934211D17B681B689B6803F0070332
:10253000FB60FB68062B10D07B681B681A687B6801
:102540001B6842F001021A6007E07B681B681A688A
:102550007B681B6842F001021A600023184614379A
:10256000BD4680BC704700BF002C01400004004005
:1025700080B582B000AF78607B68002B01D1012369
:1025800041E07B6893F83D30DBB2002B06D17B68DD
:10259000002283F83C20786800F039F87B6802223A
:1025A00083F83D207B681A687B680433194610461F
:1025B00000F08CFA7B68012283F846207B680122B8
:1025C00083F83E207B68012283F83F207B6801224C
:1025D00083F840207B68012283F841207B68012238
:1025E00083F842207B68012283F843207B68012224
:1025F00083F844207B68012283F845207B68012210
:1026000083F83D20002318460837BD4680BD80B4BE
:1026100083B000AF786000BF0C37BD4680BC704708
:1026200080B584B000AF786039603B68002B04D17E
:102630007B6893F83E30DBB213E03B68042B04D197
:102640007B6893F83F30DBB20BE03B68082B04D18A
:102650007B6893F84030DBB203E07B6893F841304D
:10266000DBB2FB733B68002B04D17B6893F84230EC
:10267000DBB213E03B68042B04D17B6893F8433052
:10268000DBB20BE03B68082B04D17B6893F8443045
:10269000DBB203E07B6893F84530DBB2BB73FB7BB6
:1026A000012B02D1BB7B012B01D00123AEE03B68A3
:1026B000002B04D17B68022283F83E2013E03B68A4
:1026C000042B04D17B68022283F83F200BE03B6897
:1026D000082B04D17B68022283F8402003E07B684A
:1026E000022283F841203B68002B04D17B68022240
:1026F00083F8422013E03B68042B04D17B6802225C
:1027000083F843200BE03B68082B04D17B6802224E
:1027100083F8442003E07B68022283F845203B686D
:102720000C2B41D801A252F823F000BF612700080A
:10273000A9270008A9270008A9270008732700086F
:10274000A9270008A9270008A9270008852700084D
:10275000A9270008A9270008A9270008972700082B
:102760007B681B68DA687B681B6842F00202DA60EB
:102770001BE07B681B68DA687B681B6842F0040218
:10278000DA6012E07B681B68DA687B681B6842F0DD
:102790000802DA6009E07B681B68DA687B681B68FE
:1027A00042F01002DA6000E000BF7B681B68012283
:1027B0003968184600F07FFB7B681B68154A934216
:1027C00009D07B681B68B3F1804F04D07B681B681D
:1027D000114A934211D17B681B689B6803F0070381
:1027E000BB60BB68062B10D07B681B681A687B68CF
:1027F0001B6842F001021A6007E07B681B681A68D8
:102800007B681B6842F001021A60002318461037EB
:10281000BD4680BD002C01400004004080B584B05E
:1028200000AFF860B9607A60FB6893F83C30012B28
:1028300001D1022382E0FB68012283F83C207B68FF
:10284000002B1BD1FB681868BB681968BB685A6805
:10285000BB68DB6800F092F9FB681B689A69FB684B
:102860001B6822F00C029A61FB681B689969BB68BF
:102870009A68FB681B680A439A615AE07B68042BDC
:102880001CD1FB681868BB681968BB685A68BB68CC
:10289000DB6800F0F5F9FB681B689A69FB681B6848
:1028A00022F440629A61FB681B689969BB689B6867
:1028B0001A02FB681B680A439A613AE07B68082B9E
:1028C0001BD1FB681868BB681968BB685A68BB688D
:1028D000DB6800F040FAFB681B68DA69FB681B687C
:1028E00022F00C02DA61FB681B68D969BB689A6840
:1028F000FB681B680A43DA611BE0FB681868BB6869
:102900001968BB685A68BB68DB6800F05FFAFB684F
:102910001B68DA69FB681B6822F44062DA61FB68B5
:102920001B68D969BB689B681A02FB681B680A436D
:10293000DA61FB68002283F83C2000231846103738
:10294000BD4680BD80B584B000AF786039607B68DB
:1029500093F83C30012B01D10223B3E07B680122C4
:1029600083F83C207B68022283F83D207B681B684B
:102970009B68FB60FB6823F07703FB60FB6823F434
:102980007F43FB607B681B68FA689A603B681B6842
:10299000B3F5005F3ED0B3F5005F00F28780B3F57A
:1029A000805F00F08580B3F5805F7FD8702B1AD0F0
:1029B000702B7BD8602B50D0602B77D8502B3CD01D
:1029C000502B73D8402B58D0402B6FD8302B64D06D
:1029D000302B6BD8202B60D0202B67D8002B5CD0FD
:1029E000102B5AD062E07B6818683B6899683B6896
:1029F0005A683B68DB6800F03FFA7B681B689B689D
:102A0000FB60FB6843F07703FB607B681B68FA6838
:102A10009A604EE07B6818683B6899683B685A6822
:102A20003B68DB6800F028FA7B681B689A687B6863
:102A30001B6842F480429A603BE07B6818683B6800
:102A400059683B68DB681A4600F0ECF87B681B6845
:102A50005021184600F0F6F92BE07B6818683B68B7
:102A600059683B68DB681A4600F046F97B681B68CA
:102A70006021184600F0E6F91BE07B6818683B68A7
:102A800059683B68DB681A4600F0CCF87B681B6825
:102A90004021184600F0D6F90BE07B681A683B68C5
:102AA0001B681946104600F0CDF902E000BF00E0B7
:102AB00000BF7B68012283F83D207B68002283F8F9
:102AC0003C20002318461037BD4680BD80B485B039
:102AD00000AF786039607B681B68FB607B68254AC3
:102AE000934207D07B68B3F1804F03D07B68224AC2
:102AF000934208D1FB6823F07003FB603B685B687E
:102B0000FA681343FB607B681A4A934207D07B68DC
:102B1000B3F1804F03D07B68174A934208D1FB681A
:102B200023F44073FB603B68DB68FA681343FB6087
:102B3000FB6823F080023B685B691343FB607B68A2
:102B4000FA681A603B689A687B68DA623B681A68C0
:102B50007B689A627B68074A934203D13B681A6993
:102B60007B681A637B6801225A6100BF1437BD4637
:102B700080BC7047002C01400004004080B487B046
:102B800000AFF860B9607A603B60FB681B6A23F0B5
:102B90000102FB681A62FB689B697B61FB681B6A28
:102BA0003B61FB681D4A934207D0FB68B3F1804F3D
:102BB00003D0FB681A4A934201D1012300E00023AD
:102BC000002B08D07B6923F003037B617A697B6863
:102BD00013437B6103E07B6943F001037B617B6905
:102BE00023F0F0037B613B681B01DBB27A6913437E
:102BF0007B613B6923F00A033B61BB6803F00A0376
:102C00003A6913433B61FB687A699A61FB683A69E8
:102C10001A6200BF1C37BD4680BC7047002C0140C3
:102C20000004004080B487B000AFF860B9607A60FB
:102C3000FB681B6A7B61FB681B6A23F00102FB686F
:102C40001A62FB689B693B613B6923F0F0033B61BF
:102C50007B681B013A6913433B617B6923F00A03DC
:102C60007B617A69BB6813437B61FB683A699A614F
:102C7000FB687A691A6200BF1C37BD4680BC70478A
:102C800080B487B000AFF860B9607A603B60FB68E1
:102C90001B6A23F01002FB681A62FB689B697B6168
:102CA000FB681B6A3B617B6923F440737B617B6833
:102CB0001B027A6913437B617B6923F470437B6158
:102CC0003B681B039BB27A6913437B613B6923F02A
:102CD000A0033B61BB681B0103F0A0033A691343E7
:102CE0003B61FB687A699A61FB683A691A6200BFC6
:102CF0001C37BD4680BC704780B487B000AFF86019
:102D0000B9607A60FB681B6A23F01002FB681A62E4
:102D1000FB689B697B61FB681B6A3B617B6923F4F1
:102D200070437B617B681B037A6913437B613B695A
:102D300023F0A0033B61BB681B013A6913433B616D
:102D4000FB687A699A61FB683A691A6200BF1C37AE
:102D5000BD4680BC704780B487B000AFF860B960F2
:102D60007A603B60FB681B6A23F48072FB681A621E
:102D7000FB68DB697B61FB681B6A3B617B6923F055
:102D800003037B617A697B6813437B617B6923F072
:102D9000F0037B613B681B01DBB27A6913437B6103
:102DA0003B6923F400733B61BB681B0203F40073AF
:102DB0003A6913433B61FB687A69DA61FB683A69F7
:102DC0001A6200BF1C37BD4680BC704780B487B014
:102DD00000AFF860B9607A603B60FB681B6A23F45F
:102DE0008052FB681A62FB68DB697B61FB681B6AC7
:102DF0003B617B6923F440737B617B681B027A69CA
:102E000013437B617B6923F470437B613B681B0345
:102E10009BB27A6913437B613B6923F400533B61A6
:102E2000BB681B0303F400533A6913433B61FB681F
:102E30007A69DA61FB683A691A6200BF1C37BD46DD
:102E400080BC704780B485B000AF786039607B6823
:102E50009B68FB60FB6823F07003FB603A68FB68CB
:102E6000134343F00703FB607B68FA689A6000BF76
:102E70001437BD4680BC704780B487B000AFF8609F
:102E8000B9607A603B60FB689B687B617B6923F477
:102E90007F437B613B681A027B681A43BB6813431C
:102EA0007A6913437B61FB687A699A6000BF1C37BB
:102EB000BD4680BC704780B487B000AFF860B96091
:102EC0007A60BB6803F01F03012202FA03F37B61FF
:102ED000FB681A6A7B69DB431A40FB681A62FB686D
:102EE0001A6ABB6803F01F03796801FA03F31A43F7
:102EF000FB681A6200BF1C37BD4680BC70470000EB
:102F000080B485B000AF786039607B6893F83C305E
:102F1000012B01D1022341E07B68012283F83C2090
:102F20007B68022283F83D207B681B685B68FB603E
:102F30007B681B689B68BB60FB6823F07003FB60C9
:102F40003B681B68FA681343FB607B681B68FA6880
:102F50005A607B681B68144A934209D07B681B68DF
:102F6000B3F1804F04D07B681B68104A93420CD1A8
:102F7000BB6823F08003BB603B685B68BA6813439F
:102F8000BB607B681B68BA689A607B68012283F823
:102F90003D207B68002283F83C200023184614372C
:102FA000BD4680BC704700BF002C014000040040BB
:102FB00070B500260C4D0D4C641BA410A64209D11F
:102FC00000F022F800260A4D0A4C641BA410A64209
:102FD00005D170BD55F8043B98470136EEE755F82A
:102FE000043B98470136F2E794300008943000081B
:102FF000943000089830000803460244934200D100
:10300000704703F8011BF9E7F8B500BFF8BC08BC2E
:103010009E467047F8B500BFF8BC08BC9E46704796
:103020004573706572616E646F206D65646964617B
:103030000000000050756C736520656C20626F7431
:103040006F6E00004D696469656E646F000000007A
:103050004C6973746F2100004C3A00006E48000008
:10306000754800006D480000480000000203040598
:10307000060708090A0B0C0D0E0F101000000000C7
:0C3080000000000001020304060708091C
:08308C00D0D8FF7F0100000015
:0430940035010008FA
:04309800110100081A
:0C309C000024F4001000000001000000FF
:04000005080015F1E9
:00000001FF
