:020000040800F2
:1000000000000120A11C0008ED1B0008F31B0008E4
:10001000F91B0008FF1B0008051C00080000000079
:100020000000000000000000000000000B1C0008A1
:10003000191C000800000000271C0008351C0008DF
:10004000F11C0008F11C0008F11C0008F11C00085C
:10005000F11C0008F11C0008F11C0008F11C00084C
:10006000F11C0008F11C0008F11C0008F11C00083C
:10007000F11C0008F11C0008F11C0008F11C00082C
:10008000F11C0008F11C0008F11C00080000000031
:10009000000000000000000000000000F11C00084B
:1000A000F11C0008F11C0008F11C0008F11C0008FC
:1000B000411C0008F11C0008F11C0008F11C00089C
:1000C000F11C0008F11C0008F11C0008F11C0008DC
:1000D000F11C0008F11C0008F11C000800000000E1
:1000E000F11C0008F11C0008F11C000800000000D1
:1000F000000000000000000000000000F11C0008EB
:1001000000000000F11C0008F11C0008F11C0008B0
:1001100000000000000000000000000000000000DF
:10012000551C0008F11C0008F11C0008F11C000817
:10013000F11C0008000000000000000000000000AA
:10014000000000000000000000000000691C000822
:10015000F11C0008F11C0008F11C0008F11C00084B
:10016000F11C0008F11C0008000000000000000065
:10017000000000000000000000000000000000007F
:1001800000000000F11C000800000000000000005A
:04019000F11C000856
:1001940010B5054C237833B9044B13B10448AFF3BD
:1001A40000800123237010BD3C01002000000000EA
:1001B400B4A9000808B5034B1BB103490348AFF3C6
:1001C400008008BD0000000040010020B4A9000820
:1001D40053B94AB9002908BF00281CBF4FF0FF31AA
:1001E4004FF0FF3000F074B9ADF1080C6DE904CEA6
:1001F40000F006F8DDF804E0DDE9022304B07047FE
:100204002DE9F047089D04468E46002B4DD18A42C5
:10021400944669D9B2FA82F252B101FA02F3C2F1F8
:10022400200120FA01F10CFA02FC41EA030E944089
:100234004FEA1C48210CBEFBF8F61FFA8CF708FBAA
:1002440016E341EA034306FB07F199420AD91CEB82
:10025400030306F1FF3080F01F81994240F21C81B4
:10026400023E63445B1AA4B2B3FBF8F008FB1033FC
:1002740044EA034400FB07F7A7420AD91CEB040431
:1002840000F1FF3380F00A81A74240F20781644401
:10029400023840EA0640E41B00261DB1D440002386
:1002A400C5E900433146BDE8F0878B4209D9002DEA
:1002B40000F0EF800026C5E9000130463146BDE874
:1002C400F087B3FA83F6002E4AD18B4202D38242DE
:1002D40000F2F980841A61EB030301209E46002D8D
:1002E400E0D0C5E9004EDDE702B9FFDEB2FA82F2E2
:1002F400002A40F09280A1EB0C014FEA1C471FFA40
:100304008CFE0126200CB1FBF7F307FB131140EA26
:1003140001410EFB03F0884208D91CEB010103F1F3
:10032400FF3802D2884200F2CB804346091AA4B2B5
:10033400B1FBF7F007FB101144EA01440EFB00FE89
:10034400A64508D91CEB040400F1FF3102D2A645EE
:1003540000F2BB800846A4EB0E0440EA03409CE78D
:10036400C6F12007B34022FA07FC4CEA030C20FA3A
:1003740007F401FA06F31C43F9404FEA1C4900FA5A
:1003840006F3B1FBF9F8200C1FFA8CFE09FB1811D7
:1003940040EA014108FB0EF0884202FA06F20BD94A
:1003A4001CEB010108F1FF3A80F08880884240F29A
:1003B4008580A8F102086144091AA4B2B1FBF9F0DE
:1003C40009FB101144EA014100FB0EFE8E4508D9D9
:1003D4001CEB010100F1FF346CD28E456AD902385E
:1003E400614440EA0840A0FB0294A1EB0E01A14243
:1003F400C846A64656D353D05DB1B3EB080261EBB1
:100404000E0101FA07F722FA06F3F1401F43C5E98A
:10041400007100263146BDE8F087C2F12003D840C0
:100424000CFA02FC21FA03F3914001434FEA1C4702
:100434001FFA8CFEB3FBF7F007FB10360B0C43EAF4
:10044400064300FB0EF69E4204FA02F408D91CEBA4
:10045400030300F1FF382FD29E422DD902386344A2
:100464009B1B89B2B3FBF7F607FB163341EA034142
:1004740006FB0EF38B4208D91CEB010106F1FF3891
:1004840016D28B4214D9023E6144C91A46EA004688
:1004940038E72E46284605E70646E3E61846F8E61A
:1004A4004B45A9D2B9EB020864EB0C0E0138A3E763
:1004B4004646EAE7204694E74046D1E7D0467BE744
:1004C400023B614432E7304609E76444023842E7BC
:1004D400704700BF80B500AF01F00AFC00F03CF8A3
:1004E40000F062FA00F040FA09F020FD00F0A0F8F4
:1004F40000F0ACF900F05EF900F00CFA00F0CAFA72
:10050400104804F0C1FD08210F4804F06FFE0C21CF
:100514000D4804F06BFE0C4B1B680022DA630A4B97
:100524001B6800221A6409220849094801F0BAFC30
:10053400084B32229A60074B42F21072DA6000F0E4
:10054400B9FAFCE70002002048020020F80200206B
:1005540058010020D402002080B594B000AF07F108
:1005640020033022002118460AF01AFA07F10C037E
:1005740000221A605A609A60DA601A610023BB6034
:10058400294B1B6C284A43F080531364264B1B6C85
:1005940003F08053BB60BB6800237B60234B1B6864
:1005A40023F44043214A43F4004313601F4B1B6868
:1005B40003F440437B607B6801233B624FF4803348
:1005C4007B620223BB634FF48003FB6319233B6408
:1005D4004FF4A8737B640423BB640723FB6407F113
:1005E4002003184604F0A8F80346002B01D001F0BC
:1005F4006FF90F23FB6002233B6100237B614FF4FF
:100604008053BB610023FB6107F10C0302211846F0
:1006140004F00AFB0346002B01D001F059F900BF96
:100624005037BD4680BD00BF003802400070004016
:1006340080B584B000AF3B4600221A605A609A60CD
:10064400DA60594B594A1A60574B4FF480325A605A
:10065400554B00229A60544B01221A61524B0122DD
:100664001A76514B002283F820204F4B0022DA6285
:100674004D4B4F4A9A624C4B0022DA604A4B092296
:10068400DA61494B012283F83020474B00225A613A
:10069400454801F0C3FB0346002B01D001F018F9D3
:1006A40000233B6001237B600023BB603B4619466B
:1006B4003D4801F005FD0346002B01D001F008F987
:1006C40001233B6002237B603B461946364801F018
:1006D400F7FC0346002B01D001F0FAF802233B603B
:1006E40003237B603B4619462F4801F0E9FC03468F
:1006F400002B01D001F0ECF803233B6004237B6062
:100704003B461946284801F0DBFC0346002B01D088
:1007140001F0DEF804233B6005237B603B46194669
:10072400214801F0CDFC0346002B01D001F0D0F8A4
:1007340005233B6006237B603B4619461A4801F0BB
:10074400BFFC0346002B01D001F0C2F806233B6036
:1007540007237B603B461946134801F0B1FC03466E
:10076400002B01D001F0B4F807233B6008237B6021
:100774003B4619460C4801F0A3FC0346002B01D06C
:1007840001F0A6F808233B6009237B603B46194629
:10079400054801F095FC0346002B01D001F098F8C0
:1007A40000BF1037BD4680BD580100200020014025
:1007B4000100000F80B586B000AF07F108030022E6
:1007C4001A605A609A60DA603B4600221A605A60E6
:1007D4001D4B4FF080421A601B4B54225A601A4B37
:1007E40000229A60184B40F2E732DA60164B00227E
:1007F4001A61154B00229A61134804F0F5FB034675
:10080400002B01D001F064F84FF48053BB6007F172
:10081400080319460C4804F063FF0346002B01D07B
:1008240001F056F800233B6000237B603B461946E9
:10083400054805F011FB0346002B01D001F048F8F0
:1008440000BF1837BD4680BD0002002080B58AB0C5
:1008540000AF07F1200300221A605A603B1D0022FA
:100864001A605A609A60DA601A615A619A61274B79
:10087400274A1A60254B43F2B0625A60234B002288
:100884009A60224BC722DA60204B00221A611F4B68
:1008940000229A611D4804F059FC0346002B01D044
:1008A40001F016F800233B6200237B6207F120036A
:1008B4001946164805F0D0FA0346002B01D001F082
:1008C40007F860237B600023BB600023FB600023E8
:1008D4007B613B1D082219460C4804F03FFE034689
:1008E400002B01D000F0F4FF3B1D0C2219460748F1
:1008F40004F034FE0346002B01D000F0E9FF034866
:1009040001F0F0F800BF2837BD4680BD4802002042
:100914000008004080B500AF114B124A1A60104B1A
:100924004FF4E1325A600E4B00229A600C4B0022C5
:10093400DA600B4B00221A61094B0C225A61084BF6
:1009440000229A61064B0022DA61054805F006FB95
:100954000346002B01D000F0BBFF00BF80BD00BFE9
:10096400900200200010014080B582B000AF002347
:100974007B600C4B1B6B0B4A43F480031363094BE2
:100984001B6B03F480037B607B680022002138200A
:1009940001F011FF382001F02AFF00BF0837BD46DF
:1009A40080BD00BF0038024080B58AB000AF07F1B7
:1009B400140300221A605A609A60DA601A610023F4
:1009C4003B61314B1B6B304A43F0040313632E4BE2
:1009D4001B6B03F004033B613B690023FB602A4B60
:1009E4001B6B294A43F080031363274B1B6B03F0F3
:1009F4008003FB60FB680023BB60234B1B6B224A14
:100A040043F001031363204B1B6B03F00103BB6032
:100A1400BB6800237B601C4B1B6B1B4A43F0020327
:100A24001363194B1B6B03F002037B607B6800228A
:100A34004FF4C041154802F0E9FB0022802114481C
:100A440002F0E4FB4FF4C0437B610123BB6100234C
:100A5400FB6100233B6207F1140319460B4802F0C3
:100A640051FA80237B610123BB610023FB610023D6
:100A74003B6207F114031946054802F043FA00BF2C
:100A84002837BD4680BD00BF003802400008024040
:100A94000004024080B400AF054B16221A70044BC8
:100AA40069229A7000BFBD465DF8047B704700BFA1
:100AB4006403002080B500AF8B4B1B6A002B0CD164
:100AC400894B4FF461721A62884B2722DA70874B84
:100AD40096221A71854800F0ABF900F015F9844BA1
:100AE4001B78032B00F2FB8001A252F823F000BF15
:100AF400050B0008390B0008370C0008990C000896
:100B04000021142000F036FC0021002000F010FD2C
:100B1400784B1B78002B40F0DB80734B9B68002BD9
:100B240040F0D680704B4FF4FA729A60724B0122F7
:100B34001A70CDE06F4B01221A700A21052000F0D3
:100B440019FC6E4B1B78032B3FD801A252F823F0FB
:100B5400650B0008710B00087D0B0008A30B00084F
:100B64004FF47A71002000F0E3FC2EE000214FF4F2
:100B74007A7000F0DDFC28E05B4B5B69604AA2FB05
:100B840003235B089AB2584B5B695D49A1FB0313CD
:100B94005B089BB21946104600F0CAFC15E0524BA4
:100BA4005B69574AA2FB03235B089AB24E4B5B690D
:100BB4005349A1FB03135B089BB2C3F57A739BB241
:100BC4001946104600F0B4FC00BF474B5B69002B8C
:100BD4002DD14A4B1B78032B7CD801A252F823F069
:100BE400F50B0008050C0008150C0008250C00087E
:100BF4003D4B40F6B8325A61404B01221A7017E05F
:100C0400394B40F6B8325A613C4B02221A700FE05D
:100C1400354B40F6B8325A61384B03221A7007E05C
:100C2400334B00221A70344B03221A7000E000BFC9
:100C340050E0304B01221A702B4B1B69002B05D15D
:100C44002D4B06221A70284B08221A611421022007
:100C540000F090FB0021002000F06AFC294B1B7877
:100C6400184600F0D5FC274B1B780133DAB2254B2C
:100C74001A70244B1B78082B02D9224B01221A70BC
:100C8400194BDB68002B27D100F0FCFC1A4B022225
:100C94001A7021E0174B01221A7001214D2000F037
:100CA40069FB00F08BFA104BDB69002B05D10E4B6E
:100CB4006422DA61104B04221A700B4B9B69002BDF
:100CC4000CD10B4B00221A700B4B05221A7005E055
:100CD40000BF04E000BF02E000BF00E000BF00F07E
:100CE4002FFD00BF80BD00BFD4020020640300209C
:100CF400BD03002098030020C003002097030020B8
:100D0400ABAAAAAABA03002080B500AF454B1B7852
:100D1400062B3FD801A252F823F000BF3D0D000876
:100D2400450D0008530D0008610D00086F0D000803
:100D34007D0D00088B0D00083B4B00221A7029E042
:100D4400394B01221A70374B00221A7022E0364BBD
:100D540002221A70334B00221A701BE0324B03221A
:100D64001A70304B00221A7014E02F4B04221A70B0
:100D74002C4B00221A700DE02B4B05221A70294BC4
:100D840000221A7006E0284B06221A70254B002216
:100D94001A7000BF244B1B78002B40D0224B1B78C9
:100DA400013B052B38D801A252F823F0C90D0008E5
:100DB400D70D0008E50D0008F30D0008010E00082A
:100DC4000F0E0008194B2222DA70184B00221A71F8
:100DD40022E0164B3322DA70144B96221A711BE070
:100DE400124B4422DA70114B00221A7114E00F4B9B
:100DF4005522DA700D4B00221A710DE00B4B66225E
:100E0400DA700A4B96221A7106E0084B7722DA70E0
:100E1400064B96221A7100BF044800F009F800BF7F
:100E240080BD00BFC003002096030020640300209F
:100E340080B582B000AF78607B6804331B78002BE8
:100E44000CD17B68053399221A707B68063319220A
:100E54001A707B68013307221A70A0E17B680333A0
:100E64001B78772B00F00C81772B00F39881662B8D
:100E740000F0EE80662B00F39281272B00F0758141
:100E8400332B40F08C817B680533AA221A70794B8E
:100E94001B681A0A7B680633D2B21A70754B1A683B
:100EA4007B680733D2B21A70724B5B681A0A7B688C
:100EB4000833D2B21A706F4B5A687B680933D2B2C6
:100EC4001A706C4B9B681A0A7B680A33D2B21A7088
:100ED400684B9A687B680B33D2B21A70654BDB6837
:100EE4001A0A7B680C33D2B21A70624BDA687B68D8
:100EF4000D33D2B21A705F4B1B691A0A7B680E332A
:100F0400D2B21A705B4B1A697B680F33D2B21A7073
:100F1400584B5B691A0A7B681033D2B21A70554B6E
:100F24005A697B681133D2B21A70524B9B691A0A00
:100F34007B681233D2B21A704E4B9A697B681333B2
:100F4400D2B21A704B4BDB691A0A7B681433D2B2E3
:100F54001A70484BDA697B681533D2B21A707B6811
:100F64001633BB221A70444B1B681A0A7B6817336A
:100F7400D2B21A70404B1A687B681833D2B21A7016
:100F84003D4B5B681A0A7B681933D2B21A703A4B2C
:100F94005A687B681A33D2B21A70374B9B681A0AA4
:100FA4007B681B33D2B21A70334B9A687B681C334C
:100FB400D2B21A70304BDB681A0A7B681D33D2B286
:100FC4001A702D4BDA687B681E33D2B21A702A4B22
:100FD4001B691A0A7B681F33D2B21A70264B1A692E
:100FE4007B682033D2B21A70234B5B691A0A7B6880
:100FF4002133D2B21A70204B5A697B682233D2B2A1
:101004001A701D4B9B691A0A7B682333D2B21A707B
:10101400194B9A697B682433D2B21A70164BDB6978
:101024001A0A7B682533D2B21A70134BDA697B68CB
:101034002633D2B21A707B68273399221A707B68E0
:10104400283319221A707B68013329221A70A6E00A
:101054007B680533094A12781A707B680633992233
:101064001A707B68073319221A707B6801330822CF
:101074001A7094E01C030020000000209A03002052
:101084004D4B5B681A0A7B680533D2B21A704A4B1F
:101094005A687B680633D2B21A70474B9B681A0AA7
:1010A4007B680733D2B21A70434B9A687B68083363
:1010B400D2B21A70404BDB681A0A7B680933D2B289
:1010C4001A703D4BDA687B680A33D2B21A703A4B15
:1010D4001B691A0A7B680B33D2B21A70364B1A6931
:1010E4007B680C33D2B21A70334B5B691A0A7B6883
:1010F4000D33D2B21A70304B5A697B680E33D2B2B8
:101104001A702D4B9B691A0A7B680F33D2B21A707E
:10111400294B9A697B681033D2B21A70264BDB696B
:101124001A0A7B681133D2B21A70234BDA697B68CE
:101134001233D2B21A70204B1B6A1A0A7B6813331B
:10114400D2B21A701C4B1A6A7B681433D2B21A706A
:101154007B68153399221A707B68163319221A702A
:101164007B68013317221A7019E0134B1B681A0AA3
:101174007B680533D2B21A700F4B1A687B6806334A
:10118400D2B21A707B68073399221A707B680833CD
:1011940019221A707B68013309221A7000BF7B6818
:1011A40001331B789BB21946786808F083FF00BFAF
:1011B4000837BD4680BD00BFF802002080B500AFEF
:1011C400684B1B6A40F6AC52934212D9654B5B697B
:1011D40040F6AB5293420CD8624B9B6840F6AC523B
:1011E400934206D9604B46221A60604B46221A602D
:1011F400ACE05C4B1B6A40F6AB52934216D8594B99
:101204005B6940F6AC52934210D9564B9B6840F64A
:10121400AC5293420AD90021002000F089F9524BC4
:1012240000221A60514B46221A608FE04D4B1B6A14
:1012340040F6AC52934216D94A4B5B6940F6AC5225
:10124400934210D9474B9B6840F6AB5293420AD85D
:101254000021002000F06CF9434B46221A60434BF6
:1012640000221A6072E03F4B1B6A40F6AB52934275
:1012740016D83C4B5B6940F6C312934210D8394BE5
:101284009B6840F6AC5293420AD90021002000F03A
:101294004FF9354B00221A60344B46221A6055E050
:1012A400304B1B6A40F6AC52934216D92D4B5B6906
:1012B40040F6AB52934210D82A4B9B6840F6C312B7
:1012C40093420AD80021002000F032F9264B46222E
:1012D4001A60264B00221A6038E0224B1B6A40F643
:1012E400AC52934212D91F4B5B6940F6AB52934206
:1012F4000CD81C4B9B6840F6AB52934206D81A4B51
:1013040046221A60194B46221A601FE0154B1B6ACD
:1013140040F6AC52934219D9124B5B6940F6AB527A
:10132400934213D80F4B9B6840F6AB5293420DD8AF
:101334000D4B1B680C4A13600C4B1B680B4A136063
:101344000B4B1B780133DAB2094B1A70064B1B683E
:101354009BB2064A126892B21146184600F0E8F8A9
:1013640000BF80BDF80200205C0300206003002061
:101374009A03002080B582B000AF03460A46FB7191
:101384001346BB71FB79184600F008F8BB79184680
:1013940000F066F800BF0837BD4680BD80B582B056
:1013A40000AF0346FB71FB79002B05D1012280219C
:1013B400284801F02BFF49E0FB794D2B05D1002291
:1013C4008021244801F022FF40E0234B1B78022BAC
:1013D40024D0022B3ADC002B02D0012B09D035E0BB
:1013E400002280211B4801F011FF1B4B01221A70BF
:1013F4002CE01A4B1B68002B25D1002280211548B4
:1014040001F004FF144B02221A70FB794FF47A7234
:1014140092FBF3F31A46114B1A6014E00F4B1B684E
:10142400002B12D1012280210A4801F0EFFE0A4B61
:1014340001221A70FB794FF47A7292FBF3F31A4685
:10144400064B1A6001E000BF00E000BF00BF083790
:10145400BD4680BD00040240BC030020D40200202D
:1014640080B582B000AF0346FB71FB79002B06D137
:1014740001224FF480412A4801F0C8FE4CE0FB7978
:101484004D2B06D100224FF48041254801F0BEFEC9
:1014940042E0244B1B78022B25D0022B3CDC002B92
:1014A40002D0012B09D037E0002280211E4801F030
:1014B400ADFE1C4B01221A702EE01C4B5B68002B06
:1014C40027D100224FF48041154801F09FFE154BAF
:1014D40002221A70FB794FF47A7292FBF3F31A46E4
:1014E400124B5A6015E0114B5B68002B13D101229B
:1014F4004FF480410A4801F089FE0A4B01221A7018
:10150400FB794FF47A7292FBF3F31A46074B5A6055
:1015140001E000BF00E000BF00BF0837BD4680BD4A
:1015240000080240BB03002000040240D402002053
:1015340080B582B000AF03460A46FB801346BB80E9
:10154400FB88184600F008F8BB88184600F032F80B
:1015540000BF0837BD4680BD80B483B000AF0346EA
:10156400FB80FB88002B03D1104B0022DA6317E0C9
:101574000F4B1B78002B02D0012B04D010E00C4B36
:1015840001221A700CE0FB88B3F57A7F04D9074B6B
:101594004FF47A72DA6302E0044AFB88D36300BF33
:1015A40000BF0C37BD465DF8047B7047000800405F
:1015B400BE03002080B483B000AF0346FB80FB88E9
:1015C400002B03D1104B00221A6417E00F4B1B7839
:1015D400002B02D0012B04D010E00C4B01221A7016
:1015E4000CE0FB88B3F57A7F04D9074B4FF47A7289
:1015F4001A6402E0044AFB88136400BF00BF0C377E
:10160400BD465DF8047B704700080040BF0300201E
:1016140080B483B000AF0346FB71FB79164A52F8DD
:101624002320FB79013B154951F823309A4208D213
:10163400FA79FB79013B104951F822200F4941F80E
:101644002320FB790C4A52F82320FB79013B0C49F7
:1016540051F823309A4208D9FA79FB79013B0649BB
:1016640051F82220064941F8232000BF0C37BD461B
:101674005DF8047B704700BFF802002000000020E2
:101684001C03002080B400AF264B00221A703FE0F8
:10169400244B1B781A46244B53F82220214B1B78E9
:1016A4001946224B53F82130D31A07EE903AB8EE7C
:1016B400677A1C4B1B78DFED1E6AC6EE877A1D4ADB
:1016C4009B001344C3ED007A164B1B78194A9B0008
:1016D400134493ED007A134B1B781A46134B53F8BB
:1016E400223007EE903AF8EE677A67EE277A0D4BD0
:1016F4001B789FED117A77EE677A104A9B001344AA
:10170400C3ED007A074B1B780133DAB2054B1A702C
:10171400044B1B78072BBBD900BF00BFBD465DF847
:10172400047B7047990300201C0300200000002064
:1017340000F07F4520000020000000003C03002052
:1017440080B500AF032314221D491E4804F053FC46
:101754001B4B9B78552B2AD0552B2CDC442B1CD0AF
:10176400442B28DC222B02D0332B0BD023E0164B46
:1017740001221A70154B40F6B8325A61144B0022FC
:101784001A7018E0104B02221A70104B43F6A15243
:10179400DA60104B01221A700DE00B4B03221A7011
:1017A4000A4B0D4A9A61094B6422DA6103E0064B45
:1017B40000221A7000BF024B99229A7000BF80BDAC
:1017C4009C03002090020020BD030020D4020020CE
:1017D40097030020BA03002002DE060080B485B01F
:1017E40000AF78600023FB730023FB7310E0FB7BE6
:1017F4000C4A52F82330002B07D0FB7B094A52F8DD
:101804002320013A074941F82320FB7B0133FB7372
:10181400FB7B082BEBD900BF00BF1437BD465DF836
:10182400047B7047D402002080B483B000AF78609A
:101834003960214B01221A707B6802331B78552BC7
:101844002FD0552B32DC442B20D0442B2EDC222BE2
:1018540002D0332B0FD029E0184B1B78002B24D156
:10186400174B01221A70174B40F6B8325A61164BC7
:1018740000221A7019E0124B02221A70114B43F61F
:10188400A152DA60114B01221A700FE00C4B0322B3
:101894001A700C4B4AF6FA729A610A4B6422DA61A6
:1018A40004E0074B00221A7000E000BF00BF0C37B1
:1018B400BD465DF8047B7047980300209B0300201D
:1018C400BD030020D402002097030020BA030020A7
:1018D40080B400AF72B600BFFEE7000080B483B0EE
:1018E40000AF00237B60104B5B6C0F4A43F48043D2
:1018F40053640D4B5B6C03F480437B607B68002373
:101904003B60094B1B6C084A43F080531364064B3D
:101914001B6C03F080533B603B6800BF0C37BD4633
:101924005DF8047B704700BF0038024080B58AB080
:1019340000AF786007F1140300221A605A609A60BD
:10194400DA601A617B681B683C4A934271D10023B8
:101954003B613B4B5B6C3A4A43F480735364384BB2
:101964005B6C03F480733B613B690023FB60344B85
:101974001B6B334A43F001031363314B1B6B03F0BE
:101984000103FB60FB680023BB602D4B1B6B2C4ADF
:1019940043F0020313632A4B1B6B03F00203BB6087
:1019A400BB68FF237B610323BB610023FB6107F159
:1019B40014031946234801F0A5FA01237B6103238C
:1019C400BB610023FB6107F1140319461E4801F0B3
:1019D40099FA1E4B1E4A1A601C4B00225A601B4B7C
:1019E40000229A60194B0022DA60184B4FF480628F
:1019F4001A61164B4FF480525A61144B4FF48042D3
:101A04009A61124B4FF48072DA61104B00221A6211
:101A14000E4B00225A620D4800F004FF0346002BCF
:101A240001D0FFF755FF7B68084A9A63074A7B6831
:101A3400936300BF2837BD4680BD00BF002001402E
:101A4400003802400000024000040240A0010020CF
:101A54001064024080B584B000AF78607B681B6876
:101A6400B3F1804F15D10023FB600C4B1B6C0B4A68
:101A740043F001031364094B1B6C03F00103FB6087
:101A8400FB68002200211C2000F095FE1C2000F0C1
:101A9400AEFE00BF1037BD4680BD00BF0038024017
:101AA40080B485B000AF78607B681B680B4A9342B2
:101AB4000DD10023FB600A4B1B6C094A43F004035D
:101AC4001364074B1B6C03F00403FB60FB6800BF4B
:101AD4001437BD465DF8047B704700BF0008004022
:101AE4000038024080B588B000AF786007F10C037D
:101AF40000221A605A609A60DA601A617B681B6877
:101B0400124A93421ED10023BB60114B1B6B104A37
:101B140043F0020313630E4B1B6B03F00203BB6021
:101B2400BB684FF44073FB6002233B6100237B617D
:101B34000023BB610223FB6107F10C03194605482E
:101B440001F0E0F900BF2037BD4680BD0008004029
:101B5400003802400004024080B58AB000AF7860CB
:101B640007F1140300221A605A609A60DA601A615D
:101B74007B681B68194A93422CD100233B61184BA4
:101B84005B6C174A43F010035364154B5B6C03F012
:101B940010033B613B690023FB60114B1B6B104A34
:101BA40043F0010313630E4B1B6B03F00103FB6053
:101BB400FB684FF4C0637B610223BB610023FB61BC
:101BC40003233B6207237B6207F11403194605488C
:101BD40001F098F900BF2837BD4680BD00100140D0
:101BE400003802400000024080B400AFFEE780B439
:101BF40000AFFEE780B400AFFEE780B400AFFEE7BD
:101C040080B400AFFEE780B400AF00BFBD465DF80E
:101C1400047B704780B400AF00BFBD465DF8047B11
:101C2400704780B400AF00BFBD465DF8047B7047C9
:101C340080B500AF00F0AEF800BF80BD80B500AF46
:101C4400024803F083FB00BF80BD00BF00020020F8
:101C540080B500AF024800F0EBFE00BF80BD00BFBE
:101C6400A001002080B500AF024801F038FC00BF9D
:101C740080BD00BF7810002080B400AF064BD3F8BD
:101C84008830054A43F47003C2F8883000BFBD466B
:101C94005DF8047B704700BF00ED00E0DFF834D04E
:101CA4000D480E490E4A002302E0D458C4500433B0
:101CB400C4188C42F9D30B4A0B4C002301E0136087
:101CC4000432A242FBD3FFF7D7FF08F045FEFEF72C
:101CD40001FC704700000120000000203C010020AE
:101CE40044AA00083C010020A4170020FEE70000DD
:101CF40080B500AF0E4B1B680D4A43F400731360AC
:101D04000B4B1B680A4A43F480631360084B1B683F
:101D1400074A43F480731360032000F041FD0F2051
:101D240000F008F8FFF7DAFD0023184680BD00BF75
:101D3400003C024080B582B000AF7860124B1A6854
:101D4400124B1B7819464FF47A73B3FBF1F3B2FBD1
:101D5400F3F3184600F059FD0346002B01D001238C
:101D64000EE07B680F2B0AD8002279684FF0FF3011
:101D740000F021FD064A7B681360002300E0012384
:101D840018460837BD4680BD4000002048000020AA
:101D94004400002080B400AF064B1B781A46064B63
:101DA4001B681344044A136000BFBD465DF8047BFE
:101DB400704700BF48000020C403002080B400AF77
:101DC400034B1B681846BD465DF8047B704700BF93
:101DD400C403002080B584B000AF7860FFF7EEFF45
:101DE400B8607B68FB60FB68B3F1FF3F05D00A4B2A
:101DF4001B781A46FB681344FB6000BFFFF7DEFF45
:101E04000246BB68D31AFA689A42F7D800BF00BFEB
:101E14001037BD4680BD00BF4800002080B584B0A7
:101E240000AF78600023FB737B68002B01D1012392
:101E340033E07B681B6C002B09D17868FFF776FDD3
:101E44007B6800225A647B68002283F83C207B680C
:101E54001B6C03F01003002B18D17B681B6C23F45C
:101E6400885323F0020343F002027B681A64786803
:101E740000F048FA7B6800225A647B681B6C23F0EC
:101E8400030343F001027B681A6401E00123FB733E
:101E94007B68002283F83C20FB7B18461037BD4644
:101EA40080BD000080B586B000AFF860B9607A608C
:101EB40000233B61FB6893F83C30012B01D10223E2
:101EC400CEE0FB68012283F83C20FB681B689B681A
:101ED40003F00103012B18D0FB681B689A68FB68A8
:101EE4001B6842F001029A605F4B1B685F4AA2FBC9
:101EF40003239A0C13465B0013443B6102E03B69E5
:101F0400013B3B613B69002BF9D1FB681B689B6873
:101F140003F48073B3F5807F07D1FB681B689A686C
:101F2400FB681B6822F480729A60FB681B689B68DC
:101F340003F00103012B40F08680FB681B6C23F443
:101F4400E06323F0010343F48072FB681A64FB68C6
:101F54001B685B6803F48063002B07D0FB681B6C71
:101F640023F4405343F48052FB681A64FB681B6CEF
:101F740003F48053B3F5805F06D1FB685B6C23F0F8
:101F84000602FB685A6402E0FB6800225A64FB689C
:101F9400002283F83C20364B7B61FB689B6B354AFF
:101FA400DA63FB689B6B344A1A64FB689B6B334AA5
:101FB400DA64FB681B686FF022021A60FB681B6816
:101FC4005A68FB681B6842F080625A60FB681B68B1
:101FD4009A68FB681B6842F480729A60FB68986B8D
:101FE400FB681B684C331946BA687B6800F0C8FC70
:101FF4007B695B6803F01F03002B0FD1FB681B6830
:102004009B6803F04053002B29D1FB681B689A6836
:10201400FB681B6842F080429A6020E0FB681B6802
:10202400174A93421BD1FB681B689B6803F040531B
:10203400002B14D1FB681B689A68FB681B6842F08C
:1020440080429A600BE0FB681B6C43F01002FB6853
:102054001A64FB685B6C43F00102FB685A6400235A
:1020640018461837BD4680BD4000002083DE1B4360
:102074000023014001250008BB250008D7250008DE
:102084000020014080B483B000AF786000BF0C37FB
:10209400BD465DF8047B704780B483B000AF7860C0
:1020A40000BF0C37BD465DF8047B704780B483B035
:1020B40000AF786000BF0C37BD465DF8047B704705
:1020C40080B485B000AF786039600023BB607B6862
:1020D40093F83C30012B01D1022305E17B680122F6
:1020E40083F83C203B681B68092B25D97B681B6857
:1020F400D9683B681B689BB21A4613465B001344BD
:102104001E3B072202FA03F3DA437B681B680A408A
:10211400DA607B681B68D9683B689A683B681B680F
:102124009BB2184603465B0003441E3B9A407B68FF
:102134001B680A43DA6022E07B681B6819693B6804
:102144001B689BB21A4613465B001344072202FA2B
:1021540003F3DA437B681B680A401A617B681B68D7
:1021640019693B689A683B681B689BB2184603462A
:102174005B0003449A407B681B680A431A613B680E
:102184005B68062B24D87B681B68596B3B685A68CC
:1021940013469B001344053B1F2202FA03F3DA4360
:1021A4007B681B680A405A637B681B68596B3B68F1
:1021B4001B689BB218463B685A6813469B0013443D
:1021C400053B00FA03F27B681B680A435A634CE040
:1021D4003B685B680C2B24D87B681B68196B3B68D5
:1021E4005A6813469B001344233B1F2202FA03F34D
:1021F400DA437B681B680A401A637B681B68196BA7
:102204003B681B689BB218463B685A6813469B00A0
:102214001344233B00FA03F27B681B680A431A63E6
:1022240023E07B681B68D96A3B685A6813469B00A5
:102234001344413B1F2202FA03F3DA437B681B6811
:102244000A40DA627B681B68D96A3B681B689BB2E8
:1022540018463B685A6813469B001344413B00FAF6
:1022640003F27B681B680A43DA62224BFB607B68DB
:102274001B68214A934209D13B681B68122B05D184
:10228400FB685B6843F48002FB685A607B681B68E8
:10229400194A934223D13B681B68102B03D03B6837
:1022A4001B68112B1BD1FB685B6843F40002FB68BD
:1022B4005A603B681B68102B11D1104B1B68104AE5
:1022C400A2FB03239A0C13469B0013445B00BB60E0
:1022D40002E0BB68013BBB60BB68002BF9D17B68A3
:1022E400002283F83C20002318461437BD465DF8CD
:1022F400047B70470023014000200140400000207F
:1023040083DE1B4380B485B000AF7860794BFB60FB
:10231400FB685B6823F44032FB685A60FB685A68C8
:102324007B685B681A43FB685A607B681B685A6861
:102334007B681B6822F480725A607B681B6859684A
:102344007B681B691A027B681B680A435A607B68B6
:102354001B685A687B681B6822F040725A607B686D
:102364001B6859687B689A687B681B680A435A60D3
:102374007B681B689A687B681B6822F400629A6019
:102384007B681B6899687B68DA687B681B680A430A
:102394009A607B689B6A584A934222D07B681B6888
:1023A4009A687B681B6822F070629A607B681B687D
:1023B40099687B689A6A7B681B680A439A607B68A1
:1023C4001B689A687B681B6822F040529A607B689D
:1023D4001B6899687B68DA6A7B681B680A439A60A1
:1023E4000FE07B681B689A687B681B6822F0706248
:1023F4009A607B681B689A687B681B6822F040526D
:102404009A607B681B689A687B681B6822F00202EA
:102414009A607B681B6899687B681B7E5A007B689E
:102424001B680A439A607B6893F82030002B1BD00A
:102434007B681B685A687B681B6842F400625A60B8
:102444007B681B685A687B681B6822F460425A6088
:102454007B681B6859687B685B6A013B5A037B682D
:102464001B680A435A6007E07B681B685A687B68EC
:102474001B6822F400625A607B681B68DA6A7B6816
:102484001B6822F47002DA627B681B68D96A7B6875
:10249400DB69013B1A057B681B680A43DA627B68C7
:1024A4001B689A687B681B6822F400729A607B68D8
:1024B4001B6899687B6893F830305A027B681B6804
:1024C4000A439A607B681B689A687B681B6822F4DD
:1024D40080629A607B681B6899687B685B699A0272
:1024E4007B681B680A439A6000BF1437BD465DF8D9
:1024F400047B7047002301400100000F80B584B0C5
:1025040000AF78607B689B6BFB60FB681B6C03F01F
:102514005003002B3CD1FB681B6C43F40072FB6836
:102524001A64FB681B689B6803F04053002B2BD193
:10253400FB681B7E002B27D1FB681B68DB6A03F456
:102544007003002B06D0FB681B689B6803F4806350
:10255400002B19D1FB681B685A68FB681B6822F0C2
:1025640020025A60FB681B6C23F48072FB681A64B7
:10257400FB681B6C03F48053002B05D1FB681B6CB8
:1025840043F00102FB681A64F868FFF77BFD0EE074
:10259400FB681B6C03F01003002B03D0F868FFF7F3
:1025A40085FD04E0FB689B6BDB6C7868984700BF93
:1025B4001037BD4680BD80B584B000AF78607B68BD
:1025C4009B6BFB60F868FFF767FD00BF1037BD46E3
:1025D40080BD80B584B000AF78607B689B6BFB6086
:1025E400FB6840221A64FB685B6C43F00402FB68DE
:1025F4005A64F868FFF75AFD00BF1037BD4680BD26
:1026040080B485B000AF78607B6803F00703FB609B
:102614000C4BDB68BB60BA684FF6FF031340BB602A
:10262400FB681A02BB68134343F0BF6343F40033EF
:10263400BB60044ABB68D36000BF1437BD465DF875
:10264400047B704700ED00E080B400AF044BDB680E
:102654001B0A03F007031846BD465DF8047B704768
:1026640000ED00E080B483B000AF0346FB7197F93E
:102674000730002B0BDBFB7903F01F02074997F9A6
:1026840007305B09012000FA02F241F8232000BF61
:102694000C37BD465DF8047B704700BF00E100E0E5
:1026A40080B483B000AF03463960FB7197F90730FB
:1026B400002B0ADB3B68DAB20C4997F907301201A8
:1026C400D2B20B4483F800230AE03B68DAB208492B
:1026D400FB7903F00F03043B1201D2B20B441A76C8
:1026E40000BF0C37BD465DF8047B704700E100E095
:1026F40000ED00E080B489B000AFF860B9607A60A2
:10270400FB6803F00703FB61FB69C3F10703042BB8
:1027140028BF0423BB61FB690433062B02D9FB6980
:10272400033B00E000237B614FF0FF32BB6902FAF8
:1027340003F3DA43BB681A407B699A404FF0FF31D8
:102744007B6901FA03F3D9437B680B4013431846B2
:102754002437BD465DF8047B7047000080B582B025
:1027640000AF78607B68013BB3F1807F01D3012324
:102774000FE00A4A7B68013B53600F214FF0FF30A2
:10278400FFF78EFF054B00229A60044B07221A6064
:10279400002318460837BD4680BD00BF10E000E0A6
:1027A40080B582B000AF78607868FFF729FF00BF7A
:1027B4000837BD4680BD80B586B000AF0346B9601A
:1027C4007A60FB7300237B61FFF73EFF78617A68D0
:1027D400B9687869FFF78EFF024697F90F30114602
:1027E4001846FFF75DFF00BF1837BD4680BD80B5B2
:1027F40082B000AF0346FB7197F907301846FFF724
:1028040031FF00BF0837BD4680BD80B582B000AF40
:1028140078607868FFF7A2FF034618460837BD467C
:1028240080BD000080B586B000AF786000237B6176
:10283400FFF7C4FA38617B68002B01D1012399E0CA
:102844007B68022283F835207B68002283F83420D9
:102854007B681B681A687B681B6822F001021A6097
:102864000FE0FFF7ABFA02463B69D31A052B08D9F0
:102874007B6820225A657B68032283F83520032372
:1028840078E07B681B681B6803F00103002BE8D128
:102894007B681B681B687B617A69384B13407B61DA
:1028A4007B685A687B689B681A437B68DB681A43B9
:1028B4007B681B691A437B685B691A437B689B6965
:1028C4001A437B68DB691A437B681B6A13437A6982
:1028D40013437B617B685B6A042B07D17B68DA6AEC
:1028E4007B681B6B13437A6913437B617B681B68AA
:1028F4007A691A607B681B685B697B617B6923F07A
:1029040007037B617B685B6A7A6913437B617B683D
:102914005B6A042B17D17B689B6A7A6913437B61DA
:102924007B68DB6A002B0ED0786800F06FFA0346F0
:10293400002B08D07B6840225A657B68012283F80B
:102944003520012316E07B681B687A695A61786830
:1029540000F026FA0346FB607B68DB6D3F229A4059
:10296400FB689A607B6800225A657B68012283F8C1
:102974003520002318461837BD4680BD3F8010F02F
:1029840080B586B000AFF860B9607A603B60002320
:10299400FB75FB689B6D3B61FB6893F83430012B3E
:1029A40001D1022340E0FB68012283F83420FB6854
:1029B40093F83530DBB2012B2FD1FB68022283F868
:1029C4003520FB6800225A653B687A68B968F86864
:1029D40000F0B8F9FB68DB6D3F229A403B699A60CE
:1029E400FB681B681A68FB681B6842F016021A60D1
:1029F400FB681B6C002B07D0FB681B681A68FB681C
:102A04001B6842F008021A60FB681B681A68FB68BE
:102A14001B6842F001021A6005E0FB68002283F89B
:102A240034200223FB75FB7D18461837BD4680BD54
:102A340080B586B000AF78600023BB608E4B1B6806
:102A44008E4AA2FB03239B0A7B617B689B6D3B61DF
:102A54003B691B68FB607B68DB6D08229A40FB685E
:102A64001340002B1AD07B681B681B6803F0040317
:102A7400002B13D07B681B681A687B681B6822F0E4
:102A840004021A607B68DB6D08229A403B699A60F5
:102A94007B685B6D43F001027B685A657B68DB6D84
:102AA40001229A40FB681340002B12D07B681B68FC
:102AB4005B6903F08003002B0BD07B68DB6D012284
:102AC4009A403B699A607B685B6D43F002027B68C5
:102AD4005A657B68DB6D04229A40FB681340002B27
:102AE40012D07B681B681B6803F00203002B0BD019
:102AF4007B68DB6D04229A403B699A607B685B6D5E
:102B040043F004027B685A657B68DB6D10229A40AF
:102B1400FB681340002B43D07B681B681B6803F0E1
:102B24000803002B3CD07B68DB6D10229A403B6984
:102B34009A607B681B681B6803F48023002B18D001
:102B44007B681B681B6803F40023002B08D17B6897
:102B54001B6C002B24D07B681B6C786898471FE0A3
:102B64007B689B6C002B1BD07B689B6C78689847B8
:102B740016E07B681B681B6803F48073002B07D185
:102B84007B681B681A687B681B6822F008021A605D
:102B94007B681B6C002B03D07B681B6C78689847A0
:102BA4007B68DB6D20229A40FB681340002B00F009
:102BB4008F807B681B681B6803F01003002B00F0F8
:102BC40087807B68DB6D20229A403B699A607B6832
:102BD40093F83530DBB2052B36D17B681B681A6855
:102BE4007B681B6822F016021A607B681B685A69AE
:102BF4007B681B6822F080025A617B681B6C002B87
:102C040003D17B689B6C002B07D07B681B681A6818
:102C14007B681B6822F008021A607B68DB6D3F2228
:102C24009A403B699A607B68012283F835207B686F
:102C3400002283F834207B681B6D002B7ED07B68D8
:102C44001B6D7868984779E07B681B681B6803F400
:102C54008023002B1DD07B681B681B6803F40023B2
:102C6400002B0DD17B685B6C002B31D07B685B6CD7
:102C7400786898472CE000BF40000020B5814E1BC7
:102C84007B68DB6B002B23D07B68DB6B7868984711
:102C94001EE07B681B681B6803F48073002B0FD154
:102CA4007B681B681A687B681B6822F010021A6034
:102CB4007B68012283F835207B68002283F8342066
:102CC4007B68DB6B002B03D07B68DB6B78689847F1
:102CD4007B685B6D002B32D07B685B6D03F0010376
:102CE400002B22D07B68052283F835207B681B6883
:102CF4001A687B681B6822F001021A60BB68013302
:102D0400BB607A699A4207D37B681B681B6803F02F
:102D14000103002BF2D100E000BF7B68012283F89D
:102D240035207B68002283F834207B68DB6C002B21
:102D340005D07B68DB6C7868984700E000BF1837E3
:102D4400BD4680BD80B485B000AFF860B9607A60DC
:102D54003B60FB681B681A68FB681B6822F48022CE
:102D64001A60FB681B683A685A60FB689B68402BD2
:102D740008D1FB681B687A689A60FB681B68BA68AC
:102D8400DA6007E0FB681B68BA689A60FB681B6836
:102D94007A68DA6000BF1437BD465DF8047B70477B
:102DA40080B485B000AF78607B681B68DBB2103BF1
:102DB400144AA2FB03231B09FB60134AFB68134458
:102DC4001B781A467B68DA65FB68032B09D97B6894
:102DD4001B6823F47F7323F003031A1D7B689A6531
:102DE40007E07B681B6823F47F7323F003037A688E
:102DF40093657B689B6D18461437BD465DF8047B6C
:102E0400704700BFABAAAAAA2CAA000880B485B058
:102E140000AF78600023FB737B689B6ABB607B68B0
:102E24009B69002B1FD1BB68032B56D801A252F813
:102E340023F000BF492E00085B2E0008492E00082D
:102E4400DF2E00087B68DB6A03F08073002B46D01A
:102E54000123FB7343E07B68DB6AB3F1C07F40D19D
:102E64000123FB733DE07B689B69B3F5005F21D1CF
:102E7400BB68032B37D801A252F823F0912E000827
:102E8400972E0008912E0008A92E00080123FB7339
:102E940030E07B68DB6A03F08073002B25D00123CC
:102EA400FB7322E07B68DB6AB3F1C07F1FD101238F
:102EB400FB731CE0BB68022B03D9BB68032B03D054
:102EC40018E00123FB7315E07B68DB6A03F0807371
:102ED400002B0ED00123FB730BE000BF0AE000BF00
:102EE40008E000BF06E000BF04E000BF02E000BF4E
:102EF40000E000BFFB7B18461437BD465DF8047B39
:102F0400704700BF80B489B000AF78603960002397
:102F14007B6100233B610023BB610023FB6159E11A
:102F24000122FB6902FA03F37B613B681B687A693F
:102F340013403B613A697B699A4240F048813B689F
:102F44005B6803F00303012B05D03B685B6803F067
:102F54000303022B30D17B689B68BB61FB695B0078
:102F6400032202FA03F3DB43BA691340BB613B68F3
:102F7400DA68FB695B0002FA03F3BA691343BB61C5
:102F84007B68BA699A607B685B68BB610122FB69F4
:102F940002FA03F3DB43BA691340BB613B685B6825
:102FA4001B0903F00102FB6902FA03F3BA69134334
:102FB400BB617B68BA695A603B685B6803F00303D2
:102FC400032B17D07B68DB68BB61FB695B000322C2
:102FD40002FA03F3DB43BA691340BB613B689A68A6
:102FE400FB695B0002FA03F3BA691343BB617B68B4
:102FF400BA69DA603B685B6803F00303022B23D1F0
:10300400FB69DA087B68083253F82230BB61FB693C
:1030140003F007039B000F2202FA03F3DB43BA69B0
:103024001340BB613B681A69FB6903F007039B000B
:1030340002FA03F3BA691343BB61FB69DA087B68DC
:103044000832B96943F822107B681B68BB61FB69CD
:103054005B00032202FA03F3DB43BA691340BB614A
:103064003B685B6803F00302FB695B0002FA03F34D
:10307400BA691343BB617B68BA691A603B685B68D1
:1030840003F44033002B00F0A2800023FB60574B75
:103094005B6C564A43F480435364544B5B6C03F4B7
:1030A4008043FB60FB68524AFB699B08023352F879
:1030B4002330BB61FB6903F003039B000F2202FA78
:1030C40003F3DB43BA691340BB617B68494A93420B
:1030D40019D07B68484A934213D07B68474A93428D
:1030E4000DD07B68464A934207D07B68454A934299
:1030F40001D1042308E0072306E0032304E00223AC
:1031040002E0012300E00023FA6902F003029200C6
:103114009340BA691343BB613549FB699B08023389
:10312400BA6941F82320384B9B68BB613B69DB4398
:10313400BA691340BB613B685B6803F48013002BDE
:1031440003D0BA693B691343BB612F4ABB699360DF
:103154002D4BDB68BB613B69DB43BA691340BB6140
:103164003B685B6803F40013002B03D0BA693B6926
:103174001343BB61244ABB69D360234B5B68BB61C7
:103184003B69DB43BA691340BB613B685B6803F48A
:103194000033002B03D0BA693B691343BB611A4A5D
:1031A400BB695360184B1B68BB613B69DB43BA695D
:1031B4001340BB613B685B6803F48033002B03D08E
:1031C400BA693B691343BB610F4ABB691360FB696E
:1031D4000133FB61FB690F2B7FF6A2AE00BF00BF7A
:1031E4002437BD465DF8047B704700BF00380240B9
:1031F4000038014000000240000402400008024080
:10320400000C024000100240003C014080B483B036
:1032140000AF78600B467B8013467B707B78002B75
:1032240003D07A887B689A6103E07B881A047B6800
:103234009A6100BF0C37BD465DF8047B7047F0B55A
:103244008FB00AAF78607B68002B01D101230FE1B6
:103254007B681B68BB607B6893F8BD34DBB2002BD2
:1032640006D17B68002283F8BC24786807F06AF8EA
:103274007B68032283F8BD24BB68DB6B03F4807393
:10328400002B02D17B6800221A617B681B681846F8
:1032940003F04BFB7B681B683B607E686D4606F160
:1032A40010040FCC0FC50FCC0FC594E8030085E8BC
:1032B4000300331D0ECB386803F022FA0346002BBB
:1032C40005D07B68022283F8BD240123D0E07B680B
:1032D4001B680021184603F039FB0023FB734AE006
:1032E400FA7B79681346DB0013449B000B443D339F
:1032F40001221A70FA7B79681346DB0013449B00A1
:103304000B443C33FA7B1A70FA7BFB7B98B27968E6
:103314001346DB0013449B000B44443302461A80DB
:10332400FA7B79681346DB0013449B000B4440335B
:1033340000221A70FA7B79681346DB0013449B0061
:103344000B44483300221A60FA7B79681346DB0089
:1033540013449B000B444C3300221A60FA7B7968B7
:103364001346DB0013449B000B44543300221A60C1
:10337400FB7B0133FB73FA7B7B685B689A42AFD3B8
:103384000023FB7344E0FA7B79681346DB001344A3
:103394009B000B4403F27D2300221A70FA7B7968A8
:1033A4001346DB0013449B000B4403F51F73FA7BA5
:1033B4001A70FA7B79681346DB0013449B000B44B4
:1033C40003F5207300221A70FA7B79681346DB0038
:1033D40013449B000B4403F5227300221A60FA7B0A
:1033E40079681346DB0013449B000B4403F52373F5
:1033F40000221A60FA7B79681346DB0013449B00B1
:103404000B4403F5257300221A60FB7B0133FB7325
:10341400FA7B7B685B689A42B5D37B681B683B6028
:103424007E686D4606F110040FCC0FC50FCC0FC596
:1034340094E8030085E80300331D0ECB386803F0DD
:10344400D1FA0346002B05D07B68022283F8BD2401
:1034540001230DE07B68002283F838207B68012279
:1034640083F8BD247B681B68184604F020FC002305
:1034740018461437BD46F0BD80B584B000AF7860FF
:103484007B681B68FB607B6893F8BC34012B01D11B
:10349400022320E07B68012283F8BC247B689B6ABA
:1034A400012B09D17B689B69012B05D0FB689B6BC1
:1034B40043F48032FB689A637B681B68184603F008
:1034C40023FA7B681B68184604F0D0FB7B68002253
:1034D40083F8BC24002318461037BD4680BD90B540
:1034E4008DB000AF78607B681B683B623B6AFB6110
:1034F4007B681B68184604F08EFC0346002B40F0E2
:103504008A847B681B68184604F0F2FB0346002B90
:1035140000F08084FB6903F500639B681B0AC3F316
:103524000D027B68C3F8FC247B681B68184604F012
:10353400DFFB034603F00203022B07D17B681B6801
:103544005A697B681B6802F002025A617B681B6837
:10355400184604F0CDFB034603F01003102B61D191
:103564007B681B689A697B681B6822F010029A6169
:103574003B6A1B6ABB61BB6903F00F021346DB00A5
:1035840013449B0003F51E737A68134404337B6170
:10359400BB695B0C03F00F03022B24D1BA6947F615
:1035A400F0731340002B35D07B691969BB691B0983
:1035B4009BB2C3F30A039BB21A46386A04F004FAB6
:1035C4007B691A69BB691B09C3F30A031A447B6943
:1035D4001A617B691A6ABB691B09C3F30A031A449B
:1035E4007B691A6216E0BB695B0C03F00F03062BC0
:1035F40010D17B6803F2C44308221946386A04F0E8
:10360400E3F97B691A6ABB691B09C3F30A031A4409
:103614007B691A627B681B689A697B681B6842F045
:1036240010029A617B681B68184604F061FB03462C
:1036340003F40023B3F5002F40F0A78000237B623E
:103644007B681B68184604F066FBB86299E0BB6AA5
:1036540003F00103002B00F08E807B681B687A6AFC
:10366400D2B21146184604F08AFB38613B6903F074
:103674000103002B0CD07B6A5A01FB69134403F548
:1036840030631A4601239360796A786800F0C2FEB9
:103694003B6903F00803002B0CD07B6A5A01FB69D9
:1036A400134403F530631A4608239360796A7868F3
:1036B40000F098FF3B6903F01003002B08D07B6AED
:1036C4005A01FB69134403F530631A4610239360CF
:1036D4003B6903F00203002B30D03B6A5B6903F0C3
:1036E4008003802B09D1FB6903F500635B68FA69E9
:1036F40002F5006243F4806353607A6A1346DB0088
:1037040013449B0003F51E737A68134404337B61EE
:103714007B69DB78012B08D17B690022DA707B6A34
:10372400DBB21946786806F009FF7B6A5A01FB6927
:10373400134403F530631A46022393603B6903F094
:103744002003002B08D07B6A5A01FB69134403F55C
:1037540030631A46202393603B6903F40053002B23
:1037640009D07B6A5A01FB69134403F530631A4696
:103774004FF4005393607B6A01337B62BB6A5B083E
:10378400BB62BB6A002B7FF462AF7B681B68184680
:1037940004F0AEFA034603F48023B3F5802F40F01F
:1037A400DB807B681B68184604F0CFFAB8620023FC
:1037B4007B62CDE0BB6A03F00103002B00F0C28002
:1037C4007B681B687A6AD2B21146184604F0F5FA8F
:1037D40038613B6903F00103002B57D07B6A03F087
:1037E4000F03012202FA03F3FB60FB6903F5006394
:1037F4005A6BFB68DB43F96901F5006113404B63C5
:103804007B6A5A01FB69134403F510631A460123CA
:1038140093607B681B69012B32D179687A6A1346FD
:10382400DB0013449B000B444C33196878687A6AB4
:103834001346DB0013449B00034448331B681944BC
:1038440078687A6A1346DB0013449B0003444C33C4
:1038540019607B6A002B13D179687A6A1346DB00FE
:1038640013449B000B4454331B68002B08D17B6822
:1038740018687B6803F2C4431A46012104F0FCFA79
:103884007B6ADBB21946786806F0DDFD3B6903F01C
:103894000803002B08D07B6A5A01FB69134403F523
:1038A40010631A46082393603B6903F01003002B4E
:1038B40008D07B6A5A01FB69134403F510631A4666
:1038C400102393603B6903F04003002B08D07B6A0C
:1038D4005A01FB69134403F510631A4640239360AD
:1038E4003B6903F00203002B23D0796A386A03F0A2
:1038F400DDF97A6A1346DB0013449B0038337A6897
:10390400134404337B617B69DB78012B08D17B6929
:103914000022DA707B6ADBB21946786806F020FE72
:103924007B6A5A01FB69134403F510631A460223A8
:1039340093603B6903F08003002B03D0796A7868B5
:1039440000F0DBFC7B6A01337B62BB6A5B08BB6211
:10395400BB6A002B7FF42EAF7B681B68184604F00B
:10396400C7F9034603F00043B3F1004F22D1FB69CA
:1039740003F500635B68FA6902F5006223F0010352
:1039840053607B6893F8F434012B08D17B680022E0
:1039940083F8F4240021786800F0C2FE02E078681D
:1039A40006F0BEFD7B681B685A697B681B6802F0E1
:1039B40000425A617B681B68184604F099F9034673
:1039C40003F40063B3F5006F12D1FB6903F50063E0
:1039D4009B6803F00103012B02D1786806F07AFD9D
:1039E4007B681B685A697B681B6802F400625A6131
:1039F4007B681B68184604F07BF9034603F4805384
:103A0400B3F5805F40F0B780FB6903F500635B6842
:103A1400FA6902F5006223F0010353607B681B68B6
:103A24001021184603F042F90023FB6246E0FB6ACA
:103A34005A01FB69134403F510631A464FF67F33AA
:103A44009360FB6A5A01FB69134403F510631B6816
:103A5400FA6A5101FA690A4402F5106223F4001368
:103A64001360FB6A5A01FB69134403F530631A4679
:103A74004FF67F339360FB6A5A01FB69134403F5E5
:103A840030631B68FA6A5101FA690A4402F530622C
:103A940023F400131360FB6A5A01FB69134403F512
:103AA40030631B68FA6A5101FA690A4402F530620C
:103AB40043F000631360FB6A0133FB627B685B685D
:103AC400FA6A9A42B3D3FB6903F50063DB69FA69C6
:103AD40002F5006243F00113D3617B681B6B002B7A
:103AE40016D0FB6903F50063D3F88430FA6902F554
:103AF400006243F00B03C2F88430FB6903F50063F2
:103B04005B6CFA6902F5006243F00B03536415E041
:103B1400FB6903F500635B69FA6902F5006243F42B
:103B2400005343F02B035361FB6903F500631B69E6
:103B3400FA6902F5006243F00B031361FB6903F5B4
:103B440000631B68FA6902F5006223F4FE631360E4
:103B54007B6818687B681B69D9B27B6803F2C4432D
:103B64001A4604F089F97B681B685A697B681B68EC
:103B740002F480525A617B681B68184604F0B8F856
:103B8400034603F40053B3F5005F24D17B681B683C
:103B9400184604F04EF97B681B68184603F003F9D5
:103BA40003461A467B68DA607B681C6801F0E8F912
:103BB40001467B68DB68DBB21A46204602F002FE4F
:103BC400786806F068FC7B681B685A697B681B6828
:103BD40002F400525A617B681B68184604F088F8A6
:103BE400034603F00803082B0AD1786806F045FC65
:103BF4007B681B685A697B681B6802F008025A617B
:103C04007B681B68184604F073F8034603F08003CE
:103C1400802B22D13B6A9B6923F080023B6A9A6124
:103C240001237B6214E079687A6A1346DB0013444B
:103C34009B000B4403F27F231B78012B05D17B6A85
:103C4400DBB21946786800F027FB7B6A01337B629C
:103C54007B685B687A6A9A42E5D37B681B6818467E
:103C640004F046F8034603F48013B3F5801F3BD1F8
:103C740001237B622BE07B6A5A01FB69134403F541
:103C840010631B68BB6179687A6A1346DB001344CE
:103C94009B000B4440331B78012B15D1BB69002BCF
:103CA40012DA79687A6A1346DB0013449B000B44EA
:103CB4003F3301221A707B6ADBB263F07F03DBB20D
:103CC4001946786800F0E8FA7B6A01337B627B6806
:103CD4005B687A6A9A42CED37B681B685A697B68B0
:103CE4001B6802F480125A617B681B68184603F053
:103CF400FFFF034603F40013B3F5001F55D101235E
:103D04007B6245E07B6A5A01FB69134403F5306327
:103D14001B68BB6179687A6A1346DB0013449B0015
:103D24000B4403F520731B78012B2ED1BB69002BA8
:103D34002BDABB6903F480327B68D3F8FC3403F0DC
:103D440001039A4221D179687A6A1346DB0013444D
:103D54009B000B4403F27F2301221A703B6A9B6988
:103D640043F080023B6A9A613B6A5B6903F080031B
:103D7400002B0AD1FB6903F500635B68FA6902F55D
:103D8400006243F40073536007E07B6A01337B6293
:103D94007B685B687A6A9A42B4D37B681B685A6909
:103DA4007B681B6802F400125A617B681B68184622
:103DB40003F09EFF034603F08043B3F1804F0AD122
:103DC400786806F0DFFB7B681B685A697B681B68B0
:103DD40002F080425A617B681B68184603F088FF32
:103DE400034603F00403042B15D17B681B685B684E
:103DF400BB61BB6903F00403002B02D0786806F0B2
:103E0400CFFB7B681B6859687B681B68BA690A43E7
:103E14005A6000E000BF3437BD4690BD80B582B023
:103E240000AF78600B46FB707B6893F8BC34012BC1
:103E340001D1022313E07B68012283F8BC247B6850
:103E4400FA7883F838207B681B68FA78114618469C
:103E540003F0E6FE7B68002283F8BC2400231846A6
:103E64000837BD4680BD80B584B000AF7860084691
:103E740011461A460346FB700B463B801346BB7043
:103E84000023FB7297F90330002B0FDAFB7803F061
:103E94000F021346DB0013449B0038337A68134443
:103EA4000433FB60FB6801225A700FE0FB7803F0D7
:103EB4000F021346DB0013449B0003F51E737A685C
:103EC40013440433FB60FB6800225A70FB7803F050
:103ED4000F03DAB2FB681A703A88FB68DA60FB6891
:103EE400BA781A71FB685B78002B04D0FB681B78E6
:103EF4009AB2FB681A81BB78022B02D1FB680022BC
:103F04005A717B6893F8BC34012B01D102230EE073
:103F14007B68012283F8BC247B681B68F968184617
:103F240002F066FF7B68002283F8BC24FB7A184603
:103F34001037BD4680BD80B584B000AF78600B46B5
:103F4400FB7097F90330002B0FDAFB7803F00F02B4
:103F54001346DB0013449B0038337A68134404335C
:103F6400FB60FB6801225A700FE0FB7803F00F023C
:103F74001346DB0013449B0003F51E737A68134455
:103F84000433FB60FB6800225A70FB7803F00F03D4
:103F9400DAB2FB681A707B6893F8BC34012B01D148
:103FA40002230EE07B68012283F8BC247B681B6833
:103FB400F968184602F0A4FF7B68002283F8BC2449
:103FC400002318461037BD4680BD80B586B000AFCB
:103FD400F8607A603B600B46FB72FB7A03F00F02D9
:103FE4001346DB0013449B0003F51E73FA68134465
:103FF40004337B617B697A681A617B693A689A61E8
:104004007B6900221A627B6900225A70FB7A03F0F2
:104014000F03DAB27B691A70FB681B69012B02D1AA
:104024007A687B695A61FB7A03F00F03002B09D18C
:10403400FB681868FB681B69DBB21A46796903F0F0
:1040440083FA08E0FB681868FB681B69DBB21A4650
:10405400796903F031F8002318461837BD4680BD4E
:1040640080B483B000AF78600B46FB70FB7803F03C
:104074000F0279681346DB0013449B000B4403F5DD
:1040840027731B6818460C37BD465DF8047B7047E0
:1040940080B586B000AFF8607A603B600B46FB7277
:1040A400FB7A03F00F021346DB0013449B00383302
:1040B400FA68134404337B617B697A681A617B690B
:1040C4003A689A617B6900221A627B6901225A70FC
:1040D400FB7A03F00F03DAB27B691A70FB681B6981
:1040E400012B02D17A687B695A61FB7A03F00F03D2
:1040F400002B09D1FB681868FB681B69DBB21A4600
:10410400796903F021FA08E0FB681868FB681B6909
:10411400DBB21A46796902F0CFFF0023184618373C
:10412400BD4680BD80B584B000AF78600B46FB709F
:10413400FB7803F00F027B685B689A4201D9012384
:1041440050E097F90330002B0FDAFB7803F00F02ED
:104154001346DB0013449B0038337A68134404335A
:10416400FB60FB6801225A700DE0FA781346DB000D
:1041740013449B0003F51E737A6813440433FB60F5
:10418400FB6800225A70FB6801229A70FB7803F0E6
:104194000F03DAB2FB681A707B6893F8BC34012B06
:1041A40001D102231EE07B68012283F8BC247B68D2
:1041B4001B68F968184603F05FFCFB7803F00F03F3
:1041C400002B0AD17B6818687B681B69D9B27B68AD
:1041D40003F2C4431A4603F04FFE7B68002283F8BF
:1041E400BC24002318461037BD4680BD80B584B07A
:1041F40000AF78600B46FB70FB7803F00F027B681E
:104204005B689A4201D9012342E097F90330002BFD
:104214000FDAFB7803F00F021346DB0013449B0014
:1042240038337A6813440433FB60FB6801225A7004
:104234000FE0FB7803F00F021346DB0013449B00EE
:1042440003F51E737A6813440433FB60FB68002291
:104254005A70FB6800229A70FB7803F00F03DAB2FD
:10426400FB681A707B6893F8BC34012B01D10223DC
:104274000EE07B68012283F8BC247B681B68F96824
:10428400184603F067FC7B68002283F8BC240023F3
:1042940018461037BD4680BD80B584B000AF786045
:1042A4000B46FB7097F90330002B0CDAFB7803F014
:1042B4000F021346DB0013449B0038337A6813441F
:1042C4000433FB600CE0FB7803F00F021346DB00C1
:1042D40013449B0003F51E737A6813440433FB6094
:1042E4007B681B68F968184603F086FA0346FB727C
:1042F400FB7A18461037BD4680BD80B58AB002AF40
:10430400786039607B681B687B617B693B613A68D4
:104314001346DB0013449B0038337A681344043398
:10432400FB60FB681A6AFB689B699A4201D9012306
:104334006CE0FB689A69FB681B6AD31AFB61FB6833
:10434400DB68FA699A4202D9FB68DB68FB61FB69A6
:1043540003339B08BB612BE0FB689A69FB681B6A0B
:10436400D31AFB61FB68DB68FA699A4202D9FB68DD
:10437400DB68FB61FB6903339B08BB61FB6819695C
:104384003B68DAB2FB6998B27B681B69DBB20093C5
:104394000346786903F0DAFAFB681A69FB691A4480
:1043A400FB681A61FB681A6AFB691A44FB681A62A3
:1043B4003B685A013B69134403F510639B699BB244
:1043C400BA699A4209D8FB681A6AFB689B699A42DF
:1043D40003D2FB689B69002BBED1FB689A69FB681A
:1043E4001B6A9A4211D83B6803F00F03012202FAB8
:1043F40003F3BB603B6903F500635A6BBB68DB43A3
:10440400396901F5006113404B63002318462037D6
:10441400BD4680BD80B588B000AF786039607B68E8
:104424001B68FB61FB69BB61FB693C3304331B689C
:104434007B613B685A01BB69134403F530639B6895
:104444003B617B681B69012B7BD13B6903F008034B
:10445400002B15D07B69614A934240F2B9803B69D5
:1044640003F40043002B00F0B3803B685A01BB699E
:10447400134403F530631A464FF400439360A7E0F6
:104484003B6903F02003002B09D03B685A01BB6948
:10449400134403F530631A462023936098E03B6984
:1044A40003F02803002B40F093807B694B4A93422E
:1044B4000FD93B6903F40043002B0AD03B685A012F
:1044C400BB69134403F530631A464FF40043936009
:1044D4007EE03A681346DB0013449B0003F51E7329
:1044E4007A6813440433FB60FB68DA693B6859015A
:1044F400BB690B4403F530631B69C3F31203D21A7F
:10450400FB681A623B68002B14D1FB689B69002B83
:1045140009D17B6818687B6803F2C4431A460121F9
:1045240003F0AAFC06E0FB681A69FB681B6A1A44DC
:10453400FB681A613B68DBB21946786805F068FFCE
:1045440046E07B69264A934224D13B6903F4004345
:10455400002B0AD03B685A01BB69134403F530634E
:104564001A464FF40043936032E03B6903F02003A2
:10457400002B08D03B685A01BB69134403F5306330
:104584001A46202393603B68DBB21946786805F02D
:104594003FFF1DE03B68002B14D179683A6813464D
:1045A400DB0013449B000B4403F525731B68002BAD
:1045B40008D17B6818687B6803F2C4431A4600215B
:1045C40003F05AFC3B68DBB21946786805F020FF1B
:1045D400002318462037BD4680BD00BF0A30544F23
:1045E4000A31544F80B586B000AF786039607B687B
:1045F4001B687B617B693B617B693C3304331B68CB
:10460400FB603B685A013B69134403F530639B68C4
:10461400BB60FB68154A93420ED9BB6803F40043A0
:10462400002B09D03B685A013B69134403F53063FE
:104634001A464FF400439360786805F0D7FEFB6890
:104644000A4A93420CD97B681B69012B08D17B6809
:1046540018687B6803F2C4431A46012103F00CFC7A
:10466400002318461837BD4680BD00BF0A30544F9A
:1046740080B485B000AF78600B46FB7013463B8076
:104684007B681B685B6ABB60FB78002B07D13B88A7
:1046940019047B681B68BA680A439A6228E07B683D
:1046A4001B689B6A1B0CBA681344BB600023FB7332
:1046B4000DE07B681A68FB7B40339B0013445B6806
:1046C4001B0CBA681344BB60FB7B0133FB73FA7B9E
:1046D400FB78013B9A42ECD33B8818047B68196849
:1046E400FB78013BBA68024340339B000B445A6099
:1046F400002318461437BD465DF8047B704780B428
:1047040083B000AF78600B467B807B681B687A8837
:104714005A62002318460C37BD465DF8047B704787
:1047240080B483B000AF78600B46FB7000BF0C37D9
:10473400BD465DF8047B704780B586B000AF7860F5
:104744007B68002B01D1012367E27B681B6803F0BF
:104754000103002B75D0884B9B6803F00C03042BDA
:104764000CD0854B9B6803F00C03082B12D1824BB1
:104774005B6803F48003B3F5800F0BD17E4B1B6899
:1047840003F40033002B5BD07B685B68002B57D1AC
:10479400012342E27B685B68B3F5803F06D1764B28
:1047A4001B68754A43F4803313601DE07B685B68C3
:1047B400B3F5A02F0CD1704B1B686F4A43F48023D0
:1047C40013606D4B1B686C4A43F4803313600BE039
:1047D400694B1B68684A23F480331360664B1B687B
:1047E400654A23F4802313607B685B68002B13D035
:1047F400FDF7E4FA386108E0FDF7E0FA02463B69A8
:10480400D31A642B01D9032307E25B4B1B6803F41F
:104814000033002BF0D014E0FDF7D0FA386108E043
:10482400FDF7CCFA02463B69D31A642B01D9032362
:10483400F3E1514B1B6803F40033002BF0D100E08B
:1048440000BF7B681B6803F00203002B63D04A4B54
:104854009B6803F00C03002B0BD0474B9B6803F0C1
:104864000C03082B1CD1444B5B6803F48003002B1E
:1048740016D1414B1B6803F00203002B05D07B6863
:10488400DB68012B01D00123C7E13B4B1B6823F0FC
:10489400F8027B681B69DB00374913430B603AE07D
:1048A4007B68DB68002B20D0344B01221A60FDF7B3
:1048B40085FA386108E0FDF781FA02463B69D31AAC
:1048C400022B01D90323A8E12B4B1B6803F002033D
:1048D400002BF0D0284B1B6823F0F8027B681B697F
:1048E400DB00254913430B6015E0244B00221A60BA
:1048F400FDF764FA386108E0FDF760FA02463B69A7
:10490400D31A022B01D9032387E11B4B1B6803F045
:104914000203002BF0D17B681B6803F00803002B13
:1049240036D07B685B69002B16D0154B01221A60C8
:10493400FDF744FA386108E0FDF740FA02463B69A6
:10494400D31A022B01D9032367E10B4B5B6F03F0EE
:104954000203002BF0D01BE0094B00221A60FDF784
:104964002DFA38610EE0FDF729FA02463B69D31AA5
:10497400022B07D9032350E10038024000004742CC
:10498400800E4742884B5B6F03F00203002BEAD191
:104994007B681B6803F00403002B00F0978000235E
:1049A400FB75814B1B6C03F08053002B0FD100234C
:1049B400BB607D4B1B6C7C4A43F0805313647A4B81
:1049C4001B6C03F08053BB60BB680123FB75774B02
:1049D4001B6803F48073002B18D1744B1B68734A53
:1049E40043F480731360FDF7E9F9386108E0FDF7DB
:1049F400E5F902463B69D31A022B01D903230CE1E2
:104A04006A4B1B6803F48073002BF0D07B689B68AF
:104A1400012B06D1644B1B6F634A43F001031367F8
:104A24001CE07B689B68052B0CD15F4B1B6F5E4AB7
:104A340043F0040313675C4B1B6F5B4A43F00103B1
:104A440013670BE0584B1B6F574A23F0010313679E
:104A5400554B1B6F544A23F0040313677B689B6810
:104A6400002B15D0FDF7AAF938610AE0FDF7A6F985
:104A740002463B69D31A41F28832934201D9032397
:104A8400CBE0494B1B6F03F00203002BEED014E084
:104A9400FDF794F938610AE0FDF790F902463B69A5
:104AA400D31A41F28832934201D90323B5E03E4B35
:104AB4001B6F03F00203002BEED1FB7D012B05D10C
:104AC400394B1B6C384A23F0805313647B689B6911
:104AD400002B00F0A180344B9B6803F00C03082BDF
:104AE4005CD07B689B69022B41D1314B00221A6058
:104AF400FDF764F9386108E0FDF760F902463B69A7
:104B0400D31A022B01D9032387E0274B1B6803F038
:104B14000073002BF0D17B68DA697B681B6A1A4347
:104B24007B685B6A9B011A437B689B6A5B08013B59
:104B34001B041A437B68DB6A1B061B4913434B6047
:104B44001B4B01221A60FDF739F9386108E0FDF7C3
:104B540035F902463B69D31A022B01D903235CE0E1
:104B6400114B1B6803F00073002BF0D054E0104B82
:104B740000221A60FDF722F9386108E0FDF71EF9FA
:104B840002463B69D31A022B01D9032345E0064BA5
:104B94001B6803F00073002BF0D13DE07B689B6938
:104BA400012B07D1012338E0003802400070004097
:104BB400600047421B4B5B68FB607B689B69012B71
:104BC40028D0FB6803F480027B68DB699A4221D118
:104BD400FB6803F03F027B681B6A9A421AD1FA68A9
:104BE40047F6C07313407A68526A9201934211D116
:104BF400FB6803F440327B689B6A5B08013B1B043F
:104C04009A4207D1FB6803F070627B68DB6A1B067B
:104C14009A4201D0012300E0002318461837BD460C
:104C240080BD00BF0038024080B584B000AF78601A
:104C340039607B68002B01D10123CCE0684B1B68F1
:104C440003F007033A689A420CD9654B3A68D2B22A
:104C54001A70634B1B6803F007033A689A4201D049
:104C64000123B8E07B681B6803F00203002B20D00B
:104C74007B681B6803F00403002B05D0594B9B6829
:104C8400584A43F4E05393607B681B6803F00803BD
:104C9400002B05D0534B9B68524A43F46043936006
:104CA400504B9B6823F0F0027B689B684D4913438B
:104CB4008B607B681B6803F00103002B44D07B6886
:104CC4005B68012B07D1474B1B6803F40033002BAF
:104CD40019D101237FE07B685B68022B03D07B68DA
:104CE4005B68032B07D13F4B1B6803F00073002B59
:104CF40009D101236FE03B4B1B6803F00203002B37
:104D040001D1012367E0374B9B6823F003027B68E2
:104D14005B68344913438B60FDF750F8F8600AE090
:104D2400FDF74CF80246FB68D31A41F288329342ED
:104D340001D903234FE02B4B9B6803F00C027B68E3
:104D44005B689B009A42EBD1254B1B6803F0070379
:104D54003A689A420CD2224B3A68D2B21A70204B6B
:104D64001B6803F007033A689A4201D0012332E03A
:104D74007B681B6803F00403002B08D0194B9B6865
:104D840023F4E0527B68DB68164913438B607B682D
:104D94001B6803F00803002B09D0124B9B6823F413
:104DA40060427B681B69DB000E4913438B6000F093
:104DB40021F802460B4B9B681B0903F00F030A49B9
:104DC400CB5C22FA03F3094A1360094B1B681846AB
:104DD400FCF7B0FF002318461037BD4680BD00BF66
:104DE400003C02400038024014AA000840000020A1
:104DF400440000202DE9B04F90B000AF00237B6346
:104E04000023FB6300233B630023BB63594B9B6874
:104E140003F00C03082B0DD0082B00F2A180002B0B
:104E240002D0042B03D09BE0534BBB639BE0534B5A
:104E3400BB6398E04F4B5B6803F03F037B634D4BD0
:104E44005B6803F48003002B28D04A4B5B689B0902
:104E540000223B627A623B6AC3F308000021474B9D
:104E640003FB01F2002300FB03F31344434AA0FBBA
:104E74000212FA620A46BA62FA6A1344FB627B6B54
:104E84000022BB61FA61D7E90623D7E90A01FBF7DF
:104E94009FF902460B461346FB6353E0354B5B68B0
:104EA4009B0900223B617A613B69C3F3080A4FF016
:104EB400000B52465B464FF000004FF000015901D1
:104EC40041EAD261500102460B46B2EB0A0863EB99
:104ED4000B094FF000024FF000034FEA891343EA35
:104EE40098634FEA8812B2EB080463EB09054FF0AC
:104EF40000024FF00003EB0043EA5473E20014464F
:104F04001D4614EB0A033B6045EB0B037B604FF03B
:104F140000024FF00003D7E9004529468B022146E1
:104F240043EA915321468A02104619467B6B0022BC
:104F3400BB60FA60D7E90223FBF74AF902460B4645
:104F44001346FB630B4B5B681B0C03F00303013339
:104F54005B003B63FA6B3B6BB2FBF3F3BB6302E0B6
:104F6400054BBB6300BFBB6B18464037BD46BDE86D
:104F7400B08F00BF003802400024F40040787D0167
:104F840080B400AF034B1B681846BD465DF8047B34
:104F9400704700BF4000002080B500AFFFF7F0FF6E
:104FA4000246054B9B689B0A03F007030349CB5C4D
:104FB40022FA03F3184680BD0038024024AA0008F0
:104FC40080B500AFFFF7DCFF0246054B9B685B0B27
:104FD40003F007030349CB5C22FA03F3184680BDB0
:104FE4000038024024AA000880B582B000AF78607F
:104FF4007B68002B01D1012341E07B6893F83D30AD
:10500400DBB2002B06D17B68002283F83C20786851
:10501400FCF720FD7B68022283F83D207B681A6838
:105024007B6804331946104600F04AFC7B68012271
:1050340083F846207B68012283F83E207B680122A6
:1050440083F83F207B68012283F840207B6801229B
:1050540083F841207B68012283F842207B68012287
:1050640083F843207B68012283F844207B68012273
:1050740083F845207B68012283F83D2000231846ED
:105084000837BD4680BD000080B485B000AF7860AD
:105094007B6893F83D30DBB2012B01D0012344E05F
:1050A4007B68022283F83D207B681B68DA687B6892
:1050B4001B6842F00102DA607B681B681E4A934257
:1050C40018D07B681B68B3F1804F13D07B681B68D2
:1050D4001A4A93420ED07B681B68194A934209D03E
:1050E4007B681B68174A934204D07B681B68164A86
:1050F400934211D17B681B689B6803F00703FB6034
:10510400FB68062B10D07B681B681A687B681B68D9
:1051140042F001021A6007E07B681B681A687B682A
:105124001B6842F001021A60002318461437BD467A
:105134005DF8047B704700BF00000140000400409C
:1051440000080040000C00400040014080B582B0DF
:1051540000AF78607B68002B01D1012341E07B68BC
:1051640093F83D30DBB2002B06D17B68002283F834
:105174003C207868FCF794FC7B68022283F83D208D
:105184007B681A687B6804331946104600F098FB64
:105194007B68012283F846207B68012283F83E2045
:1051A4007B68012283F83F207B68012283F840203A
:1051B4007B68012283F841207B68012283F8422026
:1051C4007B68012283F843207B68012283F8442012
:1051D4007B68012283F845207B68012283F83D2007
:1051E400002318460837BD4680BD000080B584B052
:1051F40000AF786039603B68002B09D17B6893F875
:105204003E30DBB2012B14BF01230023DBB222E0CA
:105214003B68042B09D17B6893F83F30DBB2012B48
:1052240014BF01230023DBB215E03B68082B09D12E
:105234007B6893F84030DBB2012B14BF01230023B9
:10524400DBB208E07B6893F84130DBB2012B14BF7A
:1052540001230023DBB2002B01D0012368E03B686B
:10526400002B04D17B68022283F83E2013E03B68C4
:10527400042B04D17B68022283F83F200BE03B68B7
:10528400082B04D17B68022283F8402003E07B686A
:10529400022283F841207B681B6801223968184682
:1052A40000F0B4FD7B681B68234A934207D17B68F6
:1052B4001B685A6C7B681B6842F400425A647B6822
:1052C4001B681D4A934218D07B681B68B3F1804F5A
:1052D40013D07B681B68194A93420ED07B681B6805
:1052E400174A934209D07B681B68164A934204D03C
:1052F4007B681B68144A934211D17B681B689B68C6
:1053040003F00703FB60FB68062B10D07B681B6867
:105314001A687B681B6842F001021A6007E07B6828
:105324001B681A687B681B6842F001021A6000233C
:1053340018461037BD4680BD0000014000040040FF
:1053440000080040000C00400040014080B582B0DD
:1053540000AF78607B681B681B6903F00203022BB3
:1053640022D17B681B68DB6803F00203022B1BD18C
:105374007B681B686FF002021A617B6801221A774E
:105384007B681B689B6903F00303002B03D07868D8
:1053940000F077FA05E0786800F069FA786800F0C0
:1053A4007AFA7B6800221A777B681B681B6903F012
:1053B4000403042B22D17B681B68DB6803F004031D
:1053C400042B1BD17B681B686FF004021A617B6895
:1053D40002221A777B681B689B6903F44073002BD5
:1053E40003D0786800F04DFA05E0786800F03FFAE1
:1053F400786800F050FA7B6800221A777B681B6893
:105404001B6903F00803082B22D17B681B68DB6847
:1054140003F00803082B1BD17B681B686FF008029C
:105424001A617B6804221A777B681B68DB6903F0C6
:105434000303002B03D0786800F023FA05E07868B2
:1054440000F015FA786800F026FA7B6800221A77D3
:105454007B681B681B6903F01003102B22D17B6847
:105464001B68DB6803F01003102B1BD17B681B68DF
:105474006FF010021A617B6808221A777B681B6838
:10548400DB6903F44073002B03D0786800F0F9F96A
:1054940005E0786800F0EBF9786800F0FCF97B68C7
:1054A40000221A777B681B681B6903F00103012B38
:1054B4000ED17B681B68DB6803F00103012B07D165
:1054C4007B681B686FF001021A617868FCF786F943
:1054D4007B681B681B6903F08003802B0ED17B68FB
:1054E4001B68DB6803F08003802B07D17B681B6893
:1054F4006FF080021A61786800F026FD7B681B68F3
:105504001B6903F04003402B0ED17B681B68DB68EA
:1055140003F04003402B07D17B681B686FF0400207
:105524001A61786800F0C1F97B681B681B6903F095
:105534002003202B0ED17B681B68DB6803F020035B
:10554400202B07D17B681B686FF020021A617868F2
:1055540000F0F0FC00BF0837BD4680BD80B586B0C2
:1055640000AFF860B9607A600023FB75FB6893F8BC
:105574003C30012B01D10223AEE0FB68012283F809
:105584003C207B680C2B00F29F8001A252F823F090
:10559400C9550008CD560008CD560008CD56000860
:1055A40009560008CD560008CD560008CD5600080F
:1055B4004B560008CD560008CD560008CD560008BD
:1055C4008B560008FB681B68B968184600F0F8F9A8
:1055D400FB681B689A69FB681B6842F008029A61C1
:1055E400FB681B689A69FB681B6822F004029A61D5
:1055F400FB681B689969BB681A69FB681B680A43E6
:105604009A6164E0FB681B68B968184600F03EFACA
:10561400FB681B689A69FB681B6842F400629A6124
:10562400FB681B689A69FB681B6822F480629A61B4
:10563400FB681B689969BB681B691A02FB681B68D5
:105644000A439A6143E0FB681B68B968184600F096
:1056540089FAFB681B68DA69FB681B6842F0080278
:10566400DA61FB681B68DA69FB681B6822F00402D4
:10567400DA61FB681B68D969BB681A69FB681B6837
:105684000A43DA6123E0FB681B68B968184600F036
:10569400D3FAFB681B68DA69FB681B6842F4006292
:1056A400DA61FB681B68DA69FB681B6822F48062B4
:1056B400DA61FB681B68D969BB681B691A02FB685D
:1056C4001B680A43DA6102E00123FB7500BFFB6833
:1056D400002283F83C20FB7D18461837BD4680BD68
:1056E40080B584B000AF786039600023FB737B68B9
:1056F40093F83C30012B01D10223B4E07B680122F2
:1057040083F83C207B68022283F83D207B681B6879
:105714009B68BB60BB6823F07703BB60BB6823F462
:105724007F43BB607B681B68BA689A603B681B68F0
:10573400B3F5005F3ED0B3F5005F00F28780B3F5A8
:10574400805F00F08680B3F5805F7FD8702B1AD01D
:10575400702B7BD8602B50D0602B77D8502B3CD04B
:10576400502B73D8402B58D0402B6FD8302B64D09B
:10577400302B6BD8202B60D0202B67D8002B5CD02B
:10578400102B5AD062E07B6818683B6899683B68C4
:105794005A683B68DB6800F019FB7B681B689B68F0
:1057A400BB60BB6843F07703BB607B681B68BA6867
:1057B4009A604FE07B6818683B6899683B685A6850
:1057C4003B68DB6800F002FB7B681B689A687B68B7
:1057D4001B6842F480429A603CE07B6818683B682E
:1057E40059683B68DB681A4600F076FA7B681B68E8
:1057F4005021184600F0CFFA2CE07B6818683B680B
:1058040059683B68DB681A4600F095FA7B681B68A8
:105814006021184600F0BFFA1CE07B6818683B68FA
:1058240059683B68DB681A4600F056FA7B681B68C7
:105834004021184600F0AFFA0CE07B681A683B6818
:105844001B681946104600F0A6FA03E00123FB7317
:1058540000E000BF7B68012283F83D207B680022C2
:1058640083F83C20FB7B18461037BD4680BD80B4CE
:1058740083B000AF786000BF0C37BD465DF8047B91
:10588400704780B483B000AF786000BF0C37BD466A
:105894005DF8047B704780B483B000AF786000BFCC
:1058A4000C37BD465DF8047B704780B483B000AF0D
:1058B400786000BF0C37BD465DF8047B704700007C
:1058C40080B485B000AF786039607B681B68FB608A
:1058D4007B68344A93420FD07B68B3F1804F0BD07E
:1058E4007B68314A934207D07B68304A934203D0A5
:1058F4007B682F4A934208D1FB6823F07003FB6056
:105904003B685B68FA681343FB607B68254A9342F3
:105914001BD07B68B3F1804F17D07B68224A934237
:1059240013D07B68214A93420FD07B68204A93426C
:105934000BD07B681F4A934207D07B681E4A934270
:1059440003D07B681D4A934208D1FB6823F440735B
:10595400FB603B68DB68FA681343FB60FB6823F079
:1059640080023B685B691343FB607B68FA681A60DA
:105974003B689A687B68DA623B681A687B689A625B
:105984007B68084A934203D13B681A697B681A63AF
:105994007B6801225A6100BF1437BD465DF8047B61
:1059A400704700BF000001400004004000080040B0
:1059B400000C004000400140004401400048014008
:1059C40080B487B000AF786039607B681B6A23F0CD
:1059D40001027B681A627B681B6A7B617B685B6877
:1059E4003B617B689B69FB60FB6823F07003FB6091
:1059F400FB6823F00303FB603B681B68FA681343EE
:105A0400FB607B6923F002037B613B689B687A69D6
:105A140013437B617B681C4A93420CD17B6923F05E
:105A240008037B613B68DB687A6913437B617B69AC
:105A340023F004037B617B68134A934211D13B69D1
:105A440023F480733B613B6923F400733B613B683F
:105A54005B693A6913433B613B689B693A69134349
:105A64003B617B683A695A607B68FA689A613B6873
:105A74005A687B685A637B687A691A6200BF1C376C
:105A8400BD465DF8047B70470000014080B487B0D8
:105A940000AF786039607B681B6A23F010027B6872
:105AA4001A627B681B6A7B617B685B683B617B680D
:105AB4009B69FB60FB6823F4E043FB60FB6823F411
:105AC4004073FB603B681B681B02FA681343FB606E
