:020000040800F2
:100000000028002069160008F9150008FF150008EF
:10001000051600080B160008111600080000000065
:10002000000000000000000000000000171600089B
:1000300023160008000000002F1600083B160008D9
:10004000B1160008B1160008B1160008B116000874
:10005000B1160008B1160008B1160008B116000864
:10006000B1160008B1160008B1160008B116000854
:10007000B1160008B1160008B1160008B116000844
:10008000B1160008B1160008B1160008B116000834
:10009000B1160008B1160008B1160008B116000824
:1000A000B1160008B1160008B1160008B116000814
:1000B00049160008B116000800000000B11600083B
:1000C000B11600080000000000000000B116000892
:1000D00000000000B1160008B11600080000000082
:1000E000B1160008B1160008B116000800000000A3
:1000F0000000000000000000000000000000000000
:0C01000000000000000000005FF808F1A3
:1001100010B5054C237833B9044B13B10448AFF341
:1001200000800123237010BD0C000020000000009F
:100130004033000808B5034B1BB103490348AFF334
:10014000008008BD000000001000002040330008BF
:1001500081F0004102E000BF83F0004330B54FEA78
:1001600041044FEA430594EA050F08BF90EA020FE5
:100170001FBF54EA000C55EA020C7FEA645C7FEA78
:10018000655C00F0E2804FEA5454D4EB5555B8BF9B
:100190006D420CDD2C4480EA020281EA030382EA0C
:1001A000000083EA010180EA020281EA0303362D9E
:1001B00088BF30BD11F0004F4FEA01314FF4801C71
:1001C0004CEA113102D0404261EB410113F0004F83
:1001D0004FEA03334CEA133302D0524263EB43033A
:1001E00094EA050F00F0A780A4F10104D5F1200ED8
:1001F0000DDB02FA0EFC22FA05F2801841F1000133
:1002000003FA0EF2801843FA05F359410EE0A5F106
:1002100020050EF1200E012A03FA0EFC28BF4CF037
:10022000020C43FA05F3C01851EBE37101F00045ED
:1002300007D54FF0000EDCF1000C7EEB00006EEBFA
:100240000101B1F5801F1BD3B1F5001F0CD3490884
:100250005FEA30004FEA3C0C04F101044FEA4452DB
:1002600012F5800F80F09A80BCF1004F08BF5FEA62
:10027000500C50F1000041EB045141EA050130BD42
:100280005FEA4C0C404141EB0101013C28BFB1F554
:10029000801FE9D291F0000F04BF01460020B1FA9F
:1002A00081F308BF2033A3F10B03B3F120020CDA72
:1002B0000C3208DD02F1140CC2F10C0201FA0CF050
:1002C00021FA02F10CE002F11402D8BFC2F1200CB5
:1002D00001FA02F120FA0CFCDCBF41EA0C0190406B
:1002E000E41AA2BF01EB0451294330BD6FEA0404B4
:1002F0001F3C1CDA0C340EDC04F11404C4F120029F
:1003000020FA04F001FA02F340EA030021FA04F3B0
:1003100045EA030130BDC4F10C04C4F1200220FA07
:1003200002F001FA04F340EA0300294630BD21FA45
:1003300004F0294630BD94F0000F83F4801306BF0B
:1003400081F480110134013D4EE77FEA645C18BFFF
:100350007FEA655C29D094EA050F08BF90EA020F96
:1003600005D054EA000C04BF1946104630BD91EA8E
:10037000030F1EBF0021002030BD5FEA545C05D191
:100380004000494128BF41F0004130BD14F58004D0
:100390003CBF01F5801130BD01F0004545F0FE4144
:1003A00041F470014FF0000030BD7FEA645C1ABF79
:1003B000194610467FEA655C1CBF0B46024650EAB0
:1003C000013406BF52EA033591EA030F41F40021DC
:1003D00030BD00BF90F0000F04BF0021704730B562
:1003E0004FF4806404F132044FF000054FF0000137
:1003F00050E700BF90F0000F04BF0021704730B5F8
:100400004FF4806404F1320410F0004548BF4042CC
:100410004FF000013EE700BF42004FEAE2014FEA21
:1004200031014FEA02701FBF12F07F4393F07F4FFC
:1004300081F06051704732F07F4208BF704793F0FF
:100440007F4F04BF41F40021704730B54FF4607412
:1004500001F0004521F000411CE700BF50EA010215
:1004600008BF704730B54FF000050AE050EA0102BE
:1004700008BF704730B511F0004502D5404261EB2E
:1004800041014FF4806404F132045FEA915C3FF46F
:10049000D8AE4FF003025FEADC0C18BF03325FEA0C
:1004A000DC0C18BF033202EBDC02C2F1200300FABD
:1004B00003FC20FA02F001FA03FE40EA0E0021FAE2
:1004C00002F11444BDE600BF70B54FF0FF0C4CF4D0
:1004D000E06C1CEA11541DBF1CEA135594EA0C0F82
:1004E00095EA0C0F00F0DEF82C4481EA030621EABD
:1004F0004C5123EA4C5350EA013518BF52EA0335F8
:1005000041F4801143F4801338D0A0FB02CE4FF0A9
:100510000005E1FB02E506F00042E0FB03E54FF0D9
:100520000006E1FB03569CF0000F18BF4EF0010ED1
:10053000A4F1FF04B6F5007F64F5407404D25FEACD
:100540004E0E6D4146EB060642EAC62141EA555180
:100550004FEAC52040EA5E504FEACE2EB4F1FD0CC2
:1005600088BFBCF5E06F1ED8BEF1004F08BF5FEA40
:10057000500E50F1000041EB045170BD06F00046F2
:1005800046EA010140EA020081EA0301B4EB5C049F
:10059000C2BFD4EB0C0541EA045170BD41F4801197
:1005A0004FF0000E013C00F3AB8014F1360FDEBFBC
:1005B000002001F0004170BDC4F10004203C35DA98
:1005C0000C341BDC04F11404C4F1200500FA05F31B
:1005D00020FA04F001FA05F240EA020001F00042BC
:1005E00021F0004110EBD37021FA04F642EB060132
:1005F0005EEA430E08BF20EAD37070BDC4F10C045C
:10060000C4F1200500FA04F320FA05F001FA04F21F
:1006100040EA020001F0004110EBD37041F100010B
:100620005EEA430E08BF20EAD37070BDC4F1200516
:1006300000FA05F24EEA020E20FA04F301FA05F27E
:1006400043EA020321FA04F001F0004121FA04F226
:1006500020EA020000EBD3705EEA430E08BF20EAF6
:10066000D37070BD94F0000F0FD101F00046400030
:1006700041EB010111F4801F08BF013CF7D041EAB2
:10068000060195F0000F18BF704703F000465200B6
:1006900043EB030313F4801F08BF013DF7D043EA87
:1006A0000603704794EA0C0F0CEA135518BF95EA3D
:1006B0000C0F0CD050EA410618BF52EA4306D1D1C4
:1006C00081EA030101F000414FF0000070BD50EAE3
:1006D000410606BF1046194652EA430619D094EA6D
:1006E0000C0F02D150EA013613D195EA0C0F05D157
:1006F00052EA03361CBF104619460AD181EA0301AB
:1007000001F0004141F0FE4141F470014FF0000062
:1007100070BD41F0FE4141F4780170BD70B54FF0FD
:10072000FF0C4CF4E06C1CEA11541DBF1CEA13557D
:1007300094EA0C0F95EA0C0F00F0A7F8A4EB05045F
:1007400081EA030E52EA03354FEA013100F0888056
:100750004FEA03334FF0805545EA131343EA12631F
:100760004FEA022245EA111545EA10654FEA0026D4
:100770000EF000419D4208BF964244F1FD0404F58D
:10078000407402D25B084FEA3202B61A65EB0305E9
:100790005B084FEA32024FF480104FF4002CB6EBA6
:1007A000020E75EB030E22BFB61A754640EA0C0026
:1007B0005B084FEA3202B6EB020E75EB030E22BF66
:1007C000B61A754640EA5C005B084FEA3202B6EBA7
:1007D000020E75EB030E22BFB61A754640EA9C0066
:1007E0005B084FEA3202B6EB020E75EB030E22BF36
:1007F000B61A754640EADC0055EA060E18D04FEAF4
:10080000051545EA16754FEA06164FEAC30343EA93
:1008100052734FEAC2025FEA1C1CC0D111F4801F60
:100820000BD141EA00014FF000004FF0004CB6E759
:1008300011F4801F04BF01430020B4F1FD0C88BFF8
:10084000BCF5E06F3FF6AFAEB5EB030C04BFB6EB03
:10085000020C5FEA500C50F1000041EB045170BDF6
:100860000EF0004E4EEA113114EB5C04C2BFD4EB23
:100870000C0541EA045170BD41F480114FF0000EA7
:10088000013C90E645EA060E8DE60CEA135594EA23
:100890000C0F08BF95EA0C0F3FF43BAF94EA0C0F26
:1008A0000AD150EA01347FF434AF95EA0C0F7FF49B
:1008B00025AF104619462CE795EA0C0F06D152EAEF
:1008C00003353FF4FDAE1046194622E750EA4106D3
:1008D00018BF52EA43067FF4C5AE50EA41047FF4E4
:1008E0000DAF52EA43057FF4EBAE12E74A0011D296
:1008F00012F5001211D20DD56FF47873B3EB62527A
:100900000ED44FEAC12343F0004343EA505323FA85
:1009100002F070474FF00000704750EA013002D1FA
:100920004FF0FF3070474FF00000704753B94AB99D
:10093000002908BF00281CBF4FF0FF314FF0FF30E7
:1009400000F076B9ADF1080C6DE904CE00F006F8C0
:10095000DDF804E0DDE9022304B070472DE9F0473B
:10096000089E0D4604468846002B4DD18A42944687
:1009700068D9B2FA82F252B101FA02F3C2F120014F
:1009800020FA01F10CFA02FC41EA030894404FEA14
:100990001C41B8FBF1F71FFA8CFE01FB178807FB1F
:1009A0000EF0230C43EA084398420AD91CEB0303D8
:1009B00007F1FF3580F01E81984240F21B81023F13
:1009C00063441B1AB3FBF1F001FB103300FB0EFE76
:1009D000A4B244EA0344A6450AD91CEB040400F17E
:1009E000FF3380F00981A64540F206816444023855
:1009F0000021A4EB0E0440EA07401EB10023D440BE
:100A0000C6E90043BDE8F0878B4208D9002E00F00C
:100A1000EE800021C6E900050846BDE8F087B3FA7C
:100A200083F100294AD1AB4202D3824200F2FC801A
:100A3000841A65EB030301209846002EE2D0C6E934
:100A40000048DFE702B9FFDEB2FA82F2002A40F086
:100A50009180A1EB0C0001214FEA1C471FFA8CFE8C
:100A6000B0FBF7F307FB1300250C45EA00450EFB2E
:100A700003F0A84208D91CEB050503F1FF3802D2A8
:100A8000A84200F2CE8043462D1AB5FBF7F007FBD3
:100A900010550EFB00FEA4B244EA0544A64508D951
:100AA0001CEB040400F1FF3502D2A64500F2B6802B
:100AB0002846A4EB0E0440EA03409EE7C1F120075C
:100AC0008B4022FA07FC4CEA030C25FA07FA4FEA9E
:100AD0001C49BAFBF9F820FA07F309FB18AA8D4064
:100AE0001FFA8CFE1D4300FA01F308FB0EF02C0CDC
:100AF00044EA0A44A04202FA01F20BD91CEB0404B6
:100B000008F1FF3A80F08880A04240F28580A8F189
:100B100002086444241AB4FBF9F009FB104400FBFA
:100B20000EFEADB245EA0444A64508D91CEB040408
:100B300000F1FF356CD2A6456AD90238644440EA18
:100B40000840A0FB0295A4EB0E04AC42C846AE469A
:100B500056D353D0002E69D0B3EB080264EB0E04D9
:100B600022FA01F304FA07F71F43CC40C6E90074E8
:100B7000002147E70CFA02FCC2F1200125FA01F33B
:100B80004FEA1C4720FA01F195400D43B3FBF7F102
:100B900007FB11331FFA8CFE280C40EA034001FBCF
:100BA0000EF3834204FA02F408D91CEB000001F1B1
:100BB000FF382FD283422DD902396044C01AB0FBCE
:100BC000F7F307FB1300ADB245EA004503FB0EF057
:100BD000A84208D91CEB050503F1FF3816D2A8423C
:100BE00014D9023B6544281A43EA014138E73146EB
:100BF000304607E72F46E4E61846F9E64B45A9D20A
:100C0000B9EB020865EB0C0E0138A3E74346EAE7AF
:100C1000284694E74146D1E7D0467BE76444023852
:100C200047E7023B65442FE7084606E73146E9E619
:100C3000704700BF0000000080B500AF00F03AFD33
:100C400000F0BCF800F070F900F0FEF800F07AFA5D
:100C500000F0A9FA4E4801F0A5FC00214C4801F033
:100C600045FD4FF480614B4801F034F80346002BFA
:100C700012D10221002000F0A1FA474800F0BBFA8F
:100C80000121012000F09AFA444800F0B4FA002152
:100C9000002000F093FAE4E701224FF400413D48C0
:100CA00001F02FF80A2000F067FD00224FF4004108
:100CB000384801F026F80A2000F05EFD00F073FAD3
:100CC0000121002000F07AFA354800F094FA4FF440
:100CD000FA6000F051FD0521012000F06FFA314863
:100CE00000F089FA4FF47A7000F046FD2E4B1B6835
:100CF0002E4AB2FBF3F32E4A13602D4B1B682C4A8D
:100D0000126802FB03F31846FFF764FB1AA3D3E94A
:100D10000023FFF7D9FB02460B461046194618A3DD
:100D2000D3E90023FFF7D0FB02460B464FF000004B
:100D30002049FFF7F3FC02460B461046194612A362
:100D4000D3E90023FFF7C0FB02460B4610461946C5
:100D5000FFF7CCFD0346184A1360174B1B68184673
:100D600000F046FB42F2107000F006FD00F01BFAA6
:100D700077E700BFAFF3008035A1F23F3CBD4340B1
:100D80008DEDB5A0F7C6B03E0000000080842E4176
:100D900028000020000C0140583300086833000888
:100DA00078330008883300087C00002000A24A0441
:100DB000840000200000F03F8800002080B590B043
:100DC00000AF07F1180328220021184602F0B0FAFC
:100DD0003B1D00221A605A609A60DA601A61012392
:100DE000BB614FF48033FB6100233B620123BB6294
:100DF00002237B634FF48033BB634FF4E013FB6348
:100E000007F11803184600F095FF0346002B01D0A8
:100E100000F076FB0F237B600223BB600023FB60A6
:100E20004FF480633B6100237B613B1D0221184628
:100E300001F002FA0346002B01D000F061FB00BF75
:100E40004037BD4680BD000080B58AB000AF07F1D5
:100E5000180300221A605A609A60DA6007F11003E2
:100E600000221A605A603B4600221A605A609A605B
:100E7000DA602C4B4FF080421A602A4B00225A60F5
:100E8000284B00229A60274B4FF6FF72DA60254B01
:100E900000221A61234B80229A61224801F032FB22
:100EA0000346002B01D000F02BFB4FF48053BB61B5
:100EB00007F1180319461B4801F0B2FE0346002B48
:100EC00001D000F01DFB174801F0B8FB0346002BD2
:100ED00001D000F015FB00233B6100237B6107F18B
:100EE000100319460F4802F095F90346002B01D074
:100EF00000F006FB00233B6001237B600023BB6006
:100F00000023FB603B4600221946064801F0F4FD31
:100F10000346002B01D000F0F3FA00BF2837BD468E
:100F200080BD00BF2800002080B588B000AF07F169
:100F3000100300221A605A609A60DA60244B9B69A1
:100F4000234A43F020039361214B9B6903F0200364
:100F5000FB60FB681E4B9B691D4A43F004039361D1
:100F60001B4B9B6903F00403BB60BB68184B9B6978
:100F7000174A43F008039361154B9B6903F008037C
:100F80007B607B6800224BF27801124800F0B9FECA
:100F90004FF480633B6100237B610023BB6107F159
:100FA000100319460B4800F019FD4BF278033B6122
:100FB00001237B610023BB610223FB6107F1100366
:100FC0001946044800F00AFD00BF2037BD4680BD29
:100FD00000100240000C014080B584B000AF034611
:100FE0000A46FB711346BB71BB791A464FF4005198
:100FF000534800F086FEFB791B09FB730023BB738B
:1010000034E0FB7B03F001037B73BB7B032B27D80E
:1010100001A252F823F000BF291000083710000881
:1010200045100008531000087B7B1A4608214448ED
:1010300000F067FE14E07B7B1A461021404800F068
:1010400060FE0DE07B7B1A4620213D4800F059FEF2
:1010500006E07B7B1A464021394800F052FE00BF73
:10106000FB7B5B08FB73BB7B0133BB73BB7B032B3D
:10107000C7D901224FF48051314800F042FE0220CE
:1010800000F07AFB00224FF480512D4800F039FE29
:10109000012000F071FBFB7903F00F03FB730023C9
:1010A000BB7333E0FB7B03F001037B73BB7B032B40
:1010B00026D801A252F823F0C9100008D710000862
:1010C000E5100008F31000087B7B1A4608211C4835
:1010D00000F017FE14E07B7B1A461021184800F040
:1010E00010FE0DE07B7B1A462021154800F009FE1A
:1010F00006E07B7B1A464021114800F002FE00BF4B
:10110000FB7B5B08FB73BB7B0133BB73BB7B032B9C
:10111000C8D901224FF48051094800F0F2FD0220A5
:1011200000F02AFB00224FF48051054800F0E9FD51
:10113000012000F021FB00BF1037BD4680BD00BF7D
:10114000000C014080B500AF282000F015FB002105
:101150002820FFF741FF022000F00EFB00210120B4
:10116000FFF73AFF022000F007FB00210220FFF703
:1011700033FF022000F000FB00210C20FFF72CFFC2
:10118000022000F0F9FA00210620FFF725FF0220D7
:1011900000F0F2FA00218020FFF71EFF022000F08D
:1011A000EBFA00BF80BD80B500AF00210120FFF742
:1011B00013FF022000F0E0FA00BF80BD80B582B0CE
:1011C00000AF03460A46FB711346BB71FB79002B47
:1011D00004D1BB7963F07F03BB7103E0BB7963F09B
:1011E0003F03BB71BB7900211846FFF7F5FE00BF36
:1011F0000837BD4680BD80B582B000AF786007E09B
:101200007B685A1C7A601B7801211846FFF7E4FEC0
:101210007B681B78002BF3D100BF00BF0837BD46A9
:1012200080BDF0B58BB000AFC7E902011346FB717A
:10123000FB79002B3FD1002387F82730002387F864
:10124000263033E097F82630C3F107039900D7E939
:101250000223C1F12006A1F1200022FA01F403FAD1
:1012600006F6344323FA00F0044323FA01F5E3B20F
:1012700003F00F0387F8273097F82730092B05D89C
:1012800097F82730303387F8273004E097F8273075
:10129000373387F8273097F8273001211846FFF7B2
:1012A0009BFE97F82630013387F8263097F82630D2
:1012B000072BC7D947E00023BB8423E0D7E902010D
:1012C0004FF00A024FF00003FFF730FB10461946BB
:1012D000B7F9243002B25B0028333B4423F8182CC2
:1012E000D7E902014FF00A024FF00003FFF71EFB9F
:1012F00002460B46C7E90223B7F924309BB20133FB
:101300009BB2BB84D7E902231343D7D1BB8C013BEB
:101310009BB2BB8413E0B7F924305B0028333B4415
:1013200033F9183CDBB23033DBB201211846FFF74A
:1013300053FEB7F924309BB2013B9BB2BB84B7F993
:101340002430002BE7DA00BF2C37BD46F0BD00008B
:1013500080B483B000AF7860174B1B78DBB2002BF2
:101360000BD14FF080435B6B144A1360144B002287
:101370001A80114B01221A7019E00F4B1B78DBB257
:10138000012B14D14FF080435B6B0E4A13600C4B62
:101390001B889BB21B041A460A4B1B681A44074B56
:1013A0001B68D31A084A1360034B00221A7000BF4F
:1013B0000C37BD4680BC70477000002074000020D0
:1013C00080000020780000207C00002080B483B0E2
:1013D00000AF7860054B1B889BB201339AB2034B78
:1013E0001A8000BF0C37BD4680BC704780000020CB
:1013F0002DE9B04F86B000AFF86000237B61FFF7A6
:10140000D2FE00210020FFF7D9FE3548FFF7F3FE9A
:1014100006210120FFF7D2FEFB68002B15D0FB68E8
:10142000002B12D1FB684FF47A7202FB03F37B614D
:101430007B6900223B607A600122D7E90001FFF757
:10144000F0FE2848FFF7D7FE44E0FB68012B13D9D4
:10145000FB6840F2E63293420ED8FB687B617B6901
:1014600000229A469346012250465946FFF7D9FE7C
:101470001D48FFF7C0FE2DE0FB68B3F57A7F16D953
:10148000FB681A4A934212D8FB68194AA2FB03234D
:101490009B097B617B690022984691460122404668
:1014A0004946FFF7BEFE1348FFF7A5FE12E0FB68B2
:1014B000114AA2FB03239B0D7B617B6900221C4622
:1014C0001546012220462946FFF7ABFE0B48FFF7E1
:1014D00092FE00BF00BF1837BD46BDE8B08F00BF09
:1014E00090330008A0330008A43300083E420F00E8
:1014F000D34D6210A83300086BCA5F6BAC33000891
:1015000080B400AF72B600BFFEE7000080B485B0C3
:1015100000AF154B9B69144A43F001039361124BD2
:101520009B6903F00103BB60BB680F4BDB690E4A8C
:1015300043F08053D3610C4BDB6903F080537B6035
:101540007B680A4B5B68FB60FB6823F0E063FB6031
:10155000FB6843F00073FB60044AFB68536000BF04
:101560001437BD4680BC70470010024000000140A7
:1015700080B588B000AF786007F1100300221A60D0
:101580005A609A60DA607B681B68B3F1804F2BD198
:10159000174BDB69164A43F00103D361144BDB6937
:1015A00003F00103FB60FB68114B9B69104A43F099
:1015B000040393610E4B9B6903F00403BB60BB689B
:1015C00001233B6100237B610023BB6107F1100312
:1015D0001946084800F002FA002200211C2000F001
:1015E000C6F91C2000F0DFF900BF2037BD4680BDE2
:1015F000001002400008014080B400AFFEE780B454
:1016000000AFFEE780B400AFFEE780B400AFFEE7B6
:1016100080B400AFFEE780B400AF00BFBD4680BC21
:10162000704780B400AF00BFBD4680BC704780B437
:1016300000AF00BFBD4680BC704780B500AF00F072
:101640007FF800BF80BD000080B500AF024801F008
:101650004BF900BF80BD00BF2800002080B400AF60
:1016600000BFBD4680BC70470C480D490D4A0023A1
:1016700002E0D458C4500433C4188C42F9D30A4A47
:101680000A4C002301E013600432A242FBD3FFF7AF
:10169000E5FF01F029FEFFF7CFFA704700000020B8
:1016A0000C000020E03300080C0000209000002017
:1016B000FEE7000080B500AF084B1B68074A43F007
:1016C00010031360032000F047F90F2000F008F822
:1016D000FFF71CFF0023184680BD00BF002002401A
:1016E00080B582B000AF7860124B1A68124B1B783D
:1016F00019464FF47A73B3FBF1F3B2FBF3F31846D8
:1017000000F05FF90346002B01D001230EE07B6857
:101710000F2B0AD8002279684FF0FF3000F027F92C
:10172000064A7B681360002300E00123184608374F
:10173000BD4680BD000000200800002004000020FD
:1017400080B400AF054B1B781A46054B1B68134449
:10175000034A136000BFBD4680BC704708000020EC
:101760008C00002080B400AF024B1B681846BD46B9
:1017700080BC70478C00002080B584B000AF7860DA
:10178000FFF7F0FFB8607B68FB60FB68B3F1FF3FD9
:1017900005D00A4B1B781A46FB681344FB6000BF58
:1017A000FFF7E0FF0246BB68D31AFA689A42F7D8FF
:1017B00000BF00BF1037BD4680BD00BF080000203D
:1017C00080B485B000AF78607B6803F00703FB60EE
:1017D0000C4BDB68BB60BA684FF6FF031340BB607D
:1017E000FB681A02BB68134343F0BF6343F4003342
:1017F000BB60044ABB68D36000BF1437BD4680BCE1
:10180000704700BF00ED00E080B400AF044BDB6820
:101810001B0A03F007031846BD4680BC704700BF93
:1018200000ED00E080B483B000AF0346FB7197F990
:101830000730002B0BDBFB7903F01F02064997F9F9
:1018400007305B09012000FA02F241F8232000BFB3
:101850000C37BD4680BC704700E100E080B483B027
:1018600000AF03463960FB7197F90730002B0ADBA4
:101870003B68DAB20C4997F907301201D2B20B4437
:1018800083F800230AE03B68DAB20849FB7903F0E9
:101890000F03043B1201D2B20B441A7600BF0C377F
:1018A000BD4680BC704700BF00E100E000ED00E0F5
:1018B00080B489B000AFF860B9607A60FB6803F06B
:1018C0000703FB61FB69C3F10703042B28BF042353
:1018D000BB61FB690433062B02D9FB69033B00E0C3
:1018E00000237B614FF0FF32BB6902FA03F3DA4356
:1018F000BB681A407B699A404FF0FF317B6901FA5F
:1019000003F3D9437B680B40134318462437BD4685
:1019100080BC704780B582B000AF78607B68013BC7
:10192000B3F1807F01D301230FE00A4A7B68013BBA
:1019300053600F214FF0FF30FFF790FF054B00225F
:101940009A60044B07221A60002318460837BD46E8
:1019500080BD00BF10E000E080B582B000AF7860CD
:101960007868FFF72DFF00BF0837BD4680BD80B502
:1019700086B000AF0346B9607A60FB7300237B61D9
:10198000FFF742FF78617A68B9687869FFF790FFDE
:10199000024697F90F3011461846FFF75FFF00BF68
:1019A0001837BD4680BD80B582B000AF0346FB71DD
:1019B00097F907301846FFF735FF00BF0837BD46D7
:1019C00080BD80B582B000AF78607868FFF7A2FF75
:1019D000034618460837BD4680BD000080B48BB072
:1019E00000AF7860396000237B6200233B6261E1D5
:1019F00001227B6A02FA03F3FB613B681B68FA6908
:101A00001340BB61BA69FB699A4240F050813B6860
:101A10005B68974A93425ED0954A934275D8954A3F
:101A2000934258D0934A93426FD8934A934252D0EC
:101A3000914A934269D8914A93424CD08F4A93423B
:101A400063D88F4A934246D08D4A93425DD8122B79
:101A50002AD8122B59D801A252F823F0D71A00081D
:101A6000B11A0008C31A0008051B00080B1B000868
:101A70000B1B00080B1B00080B1B00080B1B0008AE
:101A80000B1B00080B1B00080B1B00080B1B00089E
:101A90000B1B00080B1B00080B1B00080B1B00088E
:101AA000B91A0008CD1A0008764A934213D02CE0E8
:101AB0003B68DB683B6229E03B68DB6804333B62E0
:101AC00024E03B68DB6808333B621FE03B68DB686F
:101AD0000C333B621AE03B689B68002B02D1042365
:101AE0003B6213E03B689B68012B05D108233B62F6
:101AF0007B68FA691A6109E008233B627B68FA692E
:101B00005A6103E000233B6200E000BFBB69FF2B8A
:101B100001D87B6801E07B6804337B61BB69FF2BE4
:101B200002D87B6A9B0002E07B6A083B9B003B611A
:101B30007B691A680F213B6901FA03F3DB431A4002
:101B4000396A3B6901FA03F31A437B691A603B68FF
:101B50005B6803F08053002B00F0A9804A4B9B691F
:101B6000494A43F001039361474B9B6903F001032A
:101B7000BB60BB68454A7B6A9B08023352F823303E
:101B8000FB607B6A03F003039B000F2202FA03F35E
:101B9000DB43FA681340FB607B683D4A93420DD0FB
:101BA0007B683C4A934207D07B683B4A934201D111
:101BB000022304E0032302E0012300E000237A6A09
:101BC00002F0030292009340FA681343FB602F492E
:101BD0007B6A9B080233FA6841F823203B685B6804
:101BE00003F48033002B06D02C4B1A682B49BB69B9
:101BF00013430B6006E0294B1A68BB69DB43274996
:101C000013400B603B685B6803F40033002B06D085
:101C1000224B5A682149BB6913434B6006E01F4BB6
:101C20005A68BB69DB431D4913404B603B685B68E6
:101C300003F48013002B06D0184B9A681749BB6930
:101C400013438B6006E0154B9A68BB69DB4313496D
:101C500013408B603B685B6803F40013002B1FD0BC
:101C60000E4BDA680D49BB691343CB601FE000BF20
:101C7000000032100000311000002210000021107E
:101C8000000012100000111000100240000001407E
:101C900000080140000C0140001001400004014018
:101CA0000B4BDA68BB69DB4309491340CB607B6AA5
:101CB00001337B623B681A687B6A22FA03F3002BCC
:101CC0007FF496AE00BF00BF2C37BD4680BC704786
:101CD0000004014080B485B000AF78600B467B8083
:101CE0007B689A687B881340002B02D00123FB732A
:101CF00001E00023FB73FB7B18461437BD4680BC14
:101D0000704780B483B000AF78600B467B80134689
:101D10007B707B78002B03D07A887B681A6103E0A4
:101D20007B881A047B681A6100BF0C37BD4680BCF3
:101D30007047000080B586B000AF78607B68002BEC
:101D400001D1012372E27B681B6803F00103002BC1
:101D500000F08780924B5B6803F00C03042B0CD0DF
:101D60008F4B5B6803F00C03082B12D18C4B5B6824
:101D700003F48033B3F5803F0BD1894B1B6803F428
:101D80000033002B6CD07B685B68002B68D101238B
:101D90004CE27B685B68B3F5803F06D1804B1B68E3
:101DA0007F4A43F4803313602EE07B685B68002B2E
:101DB0000CD17B4B1B687A4A23F480331360784B39
:101DC0001B68774A23F4802313601DE07B685B68FF
:101DD000B3F5A02F0CD1724B1B68714A43F48023DA
:101DE00013606F4B1B686E4A43F4803313600BE043
:101DF0006B4B1B686A4A23F480331360684B1B6883
:101E0000674A23F4802313607B685B68002B13D040
:101E1000FFF7A8FC386108E0FFF7A4FC02463B6925
:101E2000D31A642B01D9032300E25D4B1B6803F432
:101E30000033002BF0D014E0FFF794FC386108E089
:101E4000FFF790FC02463B69D31A642B01D90323A8
:101E5000ECE1534B1B6803F40033002BF0D100E09E
:101E600000BF7B681B6803F00203002B63D04C4B60
:101E70005B6803F00C03002B0BD0494B5B6803F04D
:101E80000C03082B1CD1464B5B6803F48033002BFA
:101E900016D1434B1B6803F00203002B05D07B686F
:101EA0001B69012B01D00123C0E13D4B1B6823F0CE
:101EB000F8027B685B69DB00394913430B603AE049
:101EC0007B681B69002B20D0364B01221A60FFF77C
:101ED00049FC386108E0FFF745FC02463B69D31A2C
:101EE000022B01D90323A1E12D4B1B6803F0020350
:101EF000002BF0D02A4B1B6823F0F8027B685B694B
:101F0000DB00274913430B6015E0264B00221A60C3
:101F1000FFF728FC386108E0FFF724FC02463B6924
:101F2000D31A022B01D9032380E11D4B1B6803F058
:101F30000203002BF0D17B681B6803F00803002B21
:101F40003AD07B689B69002B19D0174B01221A608D
:101F5000FFF708FC386108E0FFF704FC02463B6924
:101F6000D31A022B01D9032360E10D4B5B6A03F006
:101F70000203002BF0D0012000F0A6FA1CE00A4B6F
:101F800000221A60FFF7EEFB38610FE0FFF7EAFB73
:101F900002463B69D31A022B08D9032346E100BF4E
:101FA000001002400000424280044242924B5B6AB1
:101FB00003F00203002BE9D17B681B6803F00403E4
:101FC000002B00F0A6800023FB758B4BDB6903F030
:101FD0008053002B0DD1884BDB69874A43F0805337
:101FE000D361854BDB6903F08053BB60BB68012381
:101FF000FB75824B1B6803F48073002B18D17F4B59
:102000001B687E4A43F480731360FFF7ABFB3861B3
:1020100008E0FFF7A7FB02463B69D31A642B01D9FE
:10202000032303E1754B1B6803F48073002BF0D08E
:102030007B68DB68012B06D16F4B1B6A6E4A43F04D
:10204000010313622DE07B68DB68002B0CD16A4B27
:102050001B6A694A23F001031362674B1B6A664AD5
:1020600023F0040313621CE07B68DB68052B0CD1B2
:10207000614B1B6A604A43F0040313625E4B1B6AA8
:102080005D4A43F0010313620BE05B4B1B6A5A4A43
:1020900023F001031362584B1B6A574A23F00403D1
:1020A00013627B68DB68002B15D0FFF75BFB3861A0
:1020B0000AE0FFF757FB02463B69D31A41F2883228
:1020C000934201D90323B1E04B4B1B6A03F0020397
:1020D000002BEED014E0FFF745FB38610AE0FFF774
:1020E00041FB02463B69D31A41F28832934201D93F
:1020F00003239BE0404B1B6A03F00203002BEED14D
:10210000FB7D012B05D13C4BDB693B4A23F080531F
:10211000D3617B68DB69002B00F08780364B5B68FE
:1021200003F00C03082B61D07B68DB69022B46D1DE
:10213000334B00221A60FFF715FB386108E0FFF708
:1021400011FB02463B69D31A022B01D903236DE030
:10215000294B1B6803F00073002BF0D17B681B6ACE
:10216000B3F5803F08D1244B5B6823F400327B68D1
:102170009B68214913434B601F4B5B6823F4741227
:102180007B68196A7B685B6A0B431B4913434B608E
:102190001B4B01221A60FFF7E5FA386108E0FFF7F0
:1021A000E1FA02463B69D31A022B01D903233DE031
:1021B000114B1B6803F00073002BF0D035E0104B7F
:1021C00000221A60FFF7CEFA386108E0FFF7CAFA7A
:1021D00002463B69D31A022B01D9032326E0064BA2
:1021E0001B6803F00073002BF0D11EE07B68DB69F5
:1021F000012B07D1012319E00010024000700040BC
:10220000600042420B4B5B68FB60FB6803F480326A
:102210007B681B6A9A4206D1FB6803F470127B68E4
:102220005B6A9A4201D0012300E000231846183768
:10223000BD4680BD0010024080B584B000AF78601C
:1022400039607B68002B01D10123D0E06A4B1B6809
:1022500003F007033A689A4210D9674B1B6823F0D2
:10226000070265493B6813430B60634B1B6803F02F
:1022700007033A689A4201D00123B8E07B681B68E3
:1022800003F00203002B20D07B681B6803F00403DB
:10229000002B05D0594B5B68584A43F4E063536008
:1022A0007B681B6803F00803002B05D0534B5B6869
:1022B000524A43F460535360504B5B6823F0F00282
:1022C0007B689B684D4913434B607B681B6803F038
:1022D0000103002B40D07B685B68012B07D1474B83
:1022E0001B6803F40033002B15D101237FE07B68CA
:1022F0005B68022B07D1414B1B6803F00073002B76
:1023000009D1012373E03D4B1B6803F00203002B4E
:1023100001D101236BE0394B5B6823F003027B683A
:102320005B68364913434B60FFF71CFAF8600AE01C
:10233000FFF718FA0246FB68D31A41F2883293423B
:1023400001D9032353E02D4B5B6803F00C027B683B
:102350005B689B009A42EBD1274B1B6803F0070395
:102360003A689A4210D2244B1B6823F00702224994
:102370003B6813430B60204B1B6803F007033A686C
:102380009A4201D0012332E07B681B6803F004030A
:10239000002B08D0194B5B6823F4E0627B68DB6894
:1023A000164913434B607B681B6803F00803002B3E
:1023B00009D0124B5B6823F460527B681B69DB0019
:1023C0000E4913434B6000F021F802460B4B5B684B
:1023D0001B0903F00F030A49CB5C22FA03F3094AF5
:1023E0001360094B1B681846FFF77AF9002318465B
:1023F0001037BD4680BD00BF0020024000100240E3
:10240000C0330008000000200400002090B48AB00F
:1024100000AF294B3C1D0FCB84E80F0040F2012395
:102420003B800023FB610023BB6100237B62002310
:102430007B6100233B62214B5B68FB61FB6903F01E
:102440000C03042B02D0082B03D02BE01C4B3B6267
:102450002BE0FB699B0C03F00F0328333B4413F87C
:10246000243C7B61FB6903F48033002B12D0134BB7
:102470005B685B0C03F0010328333B4413F8283CF2
:10248000BB617B690E4A03FB02F2BB69B2FBF3F34B
:102490007B6204E07B690B4A02FB03F37B627B6A8D
:1024A0003B6202E0064B3B6200BF3B6A184628379E
:1024B000BD4690BC704700BFB0330008001002401A
:1024C00000127A0000093D0080B485B000AF78604A
:1024D0000A4B1B680A4AA2FB03235B0A7A6802FBC9
:1024E00003F3FB6000BFFB685A1EFA60002BF9D1B2
:1024F00000BF00BF1437BD4680BC704700000020FD
:10250000D34D621080B582B000AF78607B68002B3D
:1025100001D1012341E07B6893F83D30DBB2002B11
:1025200006D17B68002283F83C207868FFF720F80A
:102530007B68022283F83D207B681A687B6804333D
:102540001946104600F04CFC7B68012283F84620B7
:102550007B68012283F83E207B68012283F83F20BC
:102560007B68012283F840207B68012283F84120A8
:102570007B68012283F842207B68012283F8432094
:102580007B68012283F844207B68012283F8452080
:102590007B68012283F83D20002318460837BD469A
:1025A00080BD000080B485B000AF78607B6893F890
:1025B0003D30DBB2012B01D0012335E07B680222E4
:1025C00083F83D207B681B68DA687B681B6842F0F3
:1025D0000102DA607B681B68164A934209D07B6867
:1025E0001B68B3F1804F04D07B681B68124A93428A
:1025F00011D17B681B689B6803F00703FB60FB68D5
:10260000062B10D07B681B681A687B681B6842F039
:1026100001021A6007E07B681B681A687B681B6808
:1026200042F001021A60002318461437BD4680BCF0
:10263000704700BF002C01400004004080B582B00C
:1026400000AF78607B68002B01D1012341E07B68FB
:1026500093F83D30DBB2002B06D17B68002283F873
:102660003C20786800F039F87B68022283F83D202E
:102670007B681A687B6804331946104600F0B0FB8B
:102680007B68012283F846207B68012283F83E2084
:102690007B68012283F83F207B68012283F8402079
:1026A0007B68012283F841207B68012283F8422065
:1026B0007B68012283F843207B68012283F8442051
:1026C0007B68012283F845207B68012283F83D2046
:1026D000002318460837BD4680BD80B483B000AFE4
:1026E000786000BF0C37BD4680BC704780B584B0B1
:1026F00000AF786039603B68002B04D17B6893F8A9
:102700003E30DBB213E03B68042B04D17B6893F8C6
:102710003F30DBB20BE03B68082B04D17B6893F8B9
:102720004030DBB203E07B6893F84130DBB2FB73EF
:102730003B68002B04D17B6893F84230DBB213E096
:102740003B68042B04D17B6893F84330DBB20BE089
:102750003B68082B04D17B6893F84430DBB203E07C
:102760007B6893F84530DBB2BB73FB7B012B02D156
:10277000BB7B012B01D00123AEE03B68002B04D1D1
:102780007B68022283F83E2013E03B68042B04D1CF
:102790007B68022283F83F200BE03B68082B04D1C2
:1027A0007B68022283F8402003E07B68022283F8E2
:1027B00041203B68002B04D17B68022283F8422031
:1027C00013E03B68042B04D17B68022283F843208A
:1027D0000BE03B68082B04D17B68022283F844207D
:1027E00003E07B68022283F845203B680C2B41D82C
:1027F00001A252F823F000BF2D2800087528000818
:1028000075280008752800083F280008752800086A
:102810007528000875280008512800087528000848
:102820007528000875280008632800087B681B6865
:10283000DA687B681B6842F00202DA601BE07B68A2
:102840001B68DA687B681B6842F00402DA6012E0F9
:102850007B681B68DA687B681B6842F00802DA60F4
:1028600009E07B681B68DA687B681B6842F010022D
:10287000DA6000E000BF7B681B68012239681846F7
:1028800000F0A3FC7B681B68154A934209D07B6863
:102890001B68B3F1804F04D07B681B68114A9342D8
:1028A00011D17B681B689B6803F00703BB60BB68A2
:1028B000062B10D07B681B681A687B681B6842F087
:1028C00001021A6007E07B681B681A687B681B6856
:1028D00042F001021A60002318461037BD4680BD41
:1028E000002C01400004004080B582B000AF786049
:1028F0007B681B681B6903F00203022B22D17B68F3
:102900001B68DB6803F00203022B1BD17B681B688A
:102910006FF002021A617B6801221A777B681B68DC
:102920009B6903F00303002B03D07868FEF710FDCA
:1029300005E0786800F038FA786800F03EFA7B68C5
:1029400000221A777B681B681B6903F00403042BC1
:1029500022D17B681B68DB6803F00403042B1BD1C6
:102960007B681B686FF004021A617B6802221A7789
:102970007B681B689B6903F44073002B03D0786865
:10298000FEF7E6FC05E0786800F00EFA786800F0E3
:1029900014FA7B6800221A777B681B681B6903F0B6
:1029A0000803082B22D17B681B68DB6803F008034F
:1029B000082B1BD17B681B686FF008021A617B68CB
:1029C00004221A777B681B68DB6903F00303002B82
:1029D00003D07868FEF7BCFC05E0786800F0E4F905
:1029E000786800F0EAF97B6800221A777B681B6838
:1029F0001B6903F01003102B22D17B681B68DB6876
:102A000003F01003102B1BD17B681B686FF01002C2
:102A10001A617B6808221A777B681B68DB6903F4FC
:102A20004073002B03D07868FEF792FC05E07868CD
:102A300000F0BAF9786800F0C0F97B6800221A77D4
:102A40007B681B681B6903F00103012B0ED17B68B7
:102A50001B68DB6803F00103012B07D17B681B684F
:102A60006FF001021A617868FEF7B0FC7B681B68A2
:102A70001B6903F08003802B0ED17B681B68DB6829
:102A800003F08003802B07D17B681B686FF0800206
:102A90001A61786800F01FFC7B681B681B6903F0F3
:102AA0004003402B0ED17B681B68DB6803F04003BA
:102AB000402B07D17B681B686FF040021A61786871
:102AC00000F084F97B681B681B6903F02003202B4E
:102AD0000ED17B681B68DB6803F02003202B07D135
:102AE0007B681B686FF020021A61786800F0EAFBCF
:102AF00000BF0837BD4680BD80B584B000AFF86028
:102B0000B9607A60FB6893F83C30012B01D1022355
:102B100082E0FB68012283F83C207B68002B1BD1FC
:102B2000FB681868BB681968BB685A68BB68DB68D3
:102B300000F0AEF9FB681B689A69FB681B6822F01D
:102B40000C029A61FB681B689969BB689A68FB680C
:102B50001B680A439A615AE07B68042B1CD1FB680E
:102B60001868BB681968BB685A68BB68DB6800F006
:102B700011FAFB681B689A69FB681B6822F44062C3
:102B80009A61FB681B689969BB689B681A02FB68BD
:102B90001B680A439A613AE07B68082B1BD1FB68EB
:102BA0001868BB681968BB685A68BB68DB6800F0C6
:102BB0005CFAFB681B68DA69FB681B6822F00C0290
:102BC000DA61FB681B68D969BB689A68FB681B6897
:102BD0000A43DA611BE0FB681868BB681968BB68C8
:102BE0005A68BB68DB6800F07BFAFB681B68DA692F
:102BF000FB681B6822F44062DA61FB681B68D969D4
:102C0000BB689B681A02FB681B680A43DA61FB68B1
:102C1000002283F83C20002318461037BD4680BDB3
:102C200080B584B000AF786039607B6893F83C3041
:102C3000012B01D10223B3E07B68012283F83C2001
:102C40007B68022283F83D207B681B689B68FB60E1
:102C5000FB6823F07703FB60FB6823F47F43FB6092
:102C60007B681B68FA689A603B681B68B3F5005F75
:102C70003ED0B3F5005F00F28780B3F5805F00F0CF
:102C80008580B3F5805F7FD8702B1AD0702B7BD8EE
:102C9000602B50D0602B77D8502B3CD0502B73D862
:102CA000402B58D0402B6FD8302B64D0302B6BD8B2
:102CB000202B60D0202B67D8002B5CD0102B5AD053
:102CC00062E07B6818683B6899683B685A683B68B3
:102CD000DB6800F05BFA7B681B689B68FB60FB6845
:102CE00043F07703FB607B681B68FA689A604EE0EC
:102CF0007B6818683B6899683B685A683B68DB6882
:102D000000F044FA7B681B689A687B681B6842F491
:102D100080429A603BE07B6818683B6859683B6872
:102D2000DB681A4600F008F97B681B6850211846DA
:102D300000F012FA2BE07B6818683B6859683B6822
:102D4000DB681A4600F062F97B681B686021184650
:102D500000F002FA1BE07B6818683B6859683B6822
:102D6000DB681A4600F0E8F87B681B6840211846CB
:102D700000F0F2F90BE07B681A683B681B681946A3
:102D8000104600F0E9F902E000BF00E000BF7B68F8
:102D9000012283F83D207B68002283F83C20002339
:102DA00018461037BD4680BD80B483B000AF786050
:102DB00000BF0C37BD4680BC704780B483B000AF05
:102DC000786000BF0C37BD4680BC704780B483B0CC
:102DD00000AF786000BF0C37BD4680BC7047000074
:102DE00080B485B000AF786039607B681B68FB6099
:102DF0007B68254A934207D07B68B3F1804F03D0AC
:102E00007B68224A934208D1FB6823F07003FB6081
:102E10003B685B68FA681343FB607B681A4A93421D
:102E200007D07B68B3F1804F03D07B68174A934289
:102E300008D1FB6823F44073FB603B68DB68FA68E9
:102E40001343FB60FB6823F080023B685B6913431C
:102E5000FB607B68FA681A603B689A687B68DA6294
:102E60003B681A687B689A627B68074A934203D181
:102E70003B681A697B681A637B6801225A6100BF4C
:102E80001437BD4680BC7047002C01400004004050
:102E900080B487B000AFF860B9607A603B60FB68CF
:102EA0001B6A23F00102FB681A62FB689B697B6165
:102EB000FB681B6A3B61FB681D4A934207D0FB68B5
:102EC000B3F1804F03D0FB681A4A934201D101232A
:102ED00000E00023002B08D07B6923F003037B6113
:102EE0007A697B6813437B6103E07B6943F00103EC
:102EF0007B617B6923F0F0037B613B681B01DBB2E4
:102F00007A6913437B613B6923F00A033B61BB6829
:102F100003F00A033A6913433B61FB687A699A61DB
:102F2000FB683A691A6200BF1C37BD4680BC704717
:102F3000002C01400004004080B487B000AFF8606E
:102F4000B9607A60FB681B6A7B61FB681B6A23F0CF
:102F50000102FB681A62FB689B693B613B6923F0D5
:102F6000F0033B617B681B013A6913433B617B695A
:102F700023F00A037B617A69BB6813437B61FB68BA
:102F80003A699A61FB687A691A6200BF1C37BD46CC
:102F900080BC704780B487B000AFF860B9607A60D9
:102FA0003B60FB681B6A23F01002FB681A62FB6837
:102FB0009B697B61FB681B6A3B617B6923F44073FF
:102FC0007B617B681B027A6913437B617B6923F415
:102FD00070437B613B681B039BB27A6913437B613F
:102FE0003B6923F0A0033B61BB681B0103F0A00316
:102FF0003A6913433B61FB687A699A61FB683A69F5
:103000001A6200BF1C37BD4680BC704780B487B0D1
:1030100000AFF860B9607A60FB681B6A23F01002A9
:10302000FB681A62FB689B697B61FB681B6A3B61FA
:103030007B6923F470437B617B681B037A691343CC
:103040007B613B6923F0A0033B61BB681B013A69CC
:1030500013433B61FB687A699A61FB683A691A62BB
:1030600000BF1C37BD4680BC704780B487B000AF3E
:10307000F860B9607A603B60FB681B6A23F4807279
:10308000FB681A62FB68DB697B61FB681B6A3B615A
:103090007B6923F003037B617A697B6813437B615F
:1030A0007B6923F0F0037B613B681B01DBB27A692B
:1030B00013437B613B6923F400733B61BB681B02D4
:1030C00003F400733A6913433B61FB687A69DA6180
:1030D000FB683A691A6200BF1C37BD4680BC704766
:1030E00080B487B000AFF860B9607A603B60FB687D
:1030F0001B6A23F48052FB681A62FB68DB697B6100
:10310000FB681B6A3B617B6923F440737B617B68CE
:103110001B027A6913437B617B6923F470437B61F3
:103120003B681B039BB27A6913437B613B6923F4C1
:1031300000533B61BB681B0303F400533A6913431C
:103140003B61FB687A69DA61FB683A691A6200BF21
:103150001C37BD4680BC704780B485B000AF786036
:1031600039607B689B68FB60FB6823F07003FB6041
:103170003A68FB68134343F00703FB607B68FA6817
:103180009A6000BF1437BD4680BC704780B487B0DA
:1031900000AFF860B9607A603B60FB689B687B6158
:1031A0007B6923F47F437B613B681A027B681A4387
:1031B000BB6813437A6913437B61FB687A699A6041
:1031C00000BF1C37BD4680BC704780B487B000AFDD
:1031D000F860B9607A60BB6803F01F03012202FA4D
:1031E00003F37B61FB681A6A7B69DB431A40FB6867
:1031F0001A62FB681A6ABB6803F01F03796801FA58
:1032000003F31A43FB681A6200BF1C37BD4680BC3B
:103210007047000080B485B000AF786039607B688B
:1032200093F83C30012B01D1022341E07B6801225D
:1032300083F83C207B68022283F83D207B681B6872
:103240005B68FB607B681B689B68BB60FB6823F066
:103250007003FB603B681B68FA681343FB607B6884
:103260001B68FA685A607B681B68144A934209D04D
:103270007B681B68B3F1804F04D07B681B68104AE1
:1032800093420CD1BB6823F08003BB603B685B6852
:10329000BA681343BB607B681B68BA689A607B6836
:1032A000012283F83D207B68002283F83C20002324
:1032B00018461437BD4680BC704700BF002C014043
:1032C0000004004080B483B000AF786000BF0C37CA
:1032D000BD4680BC704780B483B000AF786000BF4B
:1032E0000C37BD4680BC704770B500260C4D0D4CA8
:1032F000641BA410A64209D100F022F800260A4D52
:103300000A4C641BA410A64205D170BD55F8043BBD
:1033100098470136EEE755F8043B98470136F2E747
:10332000D8330008D8330008D8330008DC3300084D
:1033300003460244934200D1704703F8011BF9E7AA
:10334000F8B500BFF8BC08BC9E467047F8B500BF92
:08335000F8BC08BC9E46704762
:1033580050415241204D45444952204C0000000044
:1033680050554C534520454C20424F544F4E000079
:103378002E2E2E4D696469656E646F2E2E2E000008
:103388004C6973746F210000494E44554354414EB3
:1033980043494120284C29006E4800007548000028
:1033A8006D480000480000000203040506070809EC
:1033B8000A0B0C0D0E0F101000000000000000009A
:0833C8000102030406070809D5
:0833D0008CD5FF7F0100000015
:0433D80035010008B3
:0433DC0011010008D3
:0C33E0000024F4001000000001000000B8
:040000050800166970
:00000001FF
