:020000040800F2
:1000000000000120D90C0008390C00083F0C000842
:10001000450C00084B0C0008510C000800000000C3
:10002000000000000000000000000000570C000865
:10003000650C000800000000730C0008810C00082B
:10004000290D0008290D0008290D0008290D0008B8
:10005000290D0008290D0008290D0008290D0008A8
:10006000290D0008290D0008290D0008290D000898
:10007000290D0008290D0008290D0008290D000888
:10008000290D0008290D0008290D000800000000B6
:10009000000000000000000000000000290D000822
:1000A000290D0008290D0008290D0008290D000858
:1000B0008D0C0008290D0008290D0008290D0008E5
:1000C000290D0008290D0008290D0008290D000838
:1000D000290D0008290D0008290D00080000000066
:1000E000290D0008290D0008290D00080000000056
:1000F000000000000000000000000000290D0008C2
:1001000000000000290D0008290D0008290D000835
:1001100000000000000000000000000000000000DF
:10012000290D0008290D0008290D0008290D0008D7
:10013000290D000800000000000000000000000081
:10014000000000000000000000000000A10C0008FA
:10015000290D0008290D0008290D0008290D0008A7
:10016000290D0008290D0008000000000000000013
:10017000000000000000000000000000000000007F
:1001800000000000290D0008000000000000000031
:04019000290D00082D
:1001940010B5054C237833B9044B13B10448AFF3BD
:1001A40000800123237010BD040100200000000022
:1001B400188A000808B5034B1BB103490348AFF381
:1001C400008008BD0000000008010020188A000813
:1001D40053B94AB9002908BF00281CBF4FF0FF31AA
:1001E4004FF0FF3000F074B9ADF1080C6DE904CEA6
:1001F40000F006F8DDF804E0DDE9022304B07047FE
:100204002DE9F047089D04468E46002B4DD18A42C5
:10021400944669D9B2FA82F252B101FA02F3C2F1F8
:10022400200120FA01F10CFA02FC41EA030E944089
:100234004FEA1C48210CBEFBF8F61FFA8CF708FBAA
:1002440016E341EA034306FB07F199420AD91CEB82
:10025400030306F1FF3080F01F81994240F21C81B4
:10026400023E63445B1AA4B2B3FBF8F008FB1033FC
:1002740044EA034400FB07F7A7420AD91CEB040431
:1002840000F1FF3380F00A81A74240F20781644401
:10029400023840EA0640E41B00261DB1D440002386
:1002A400C5E900433146BDE8F0878B4209D9002DEA
:1002B40000F0EF800026C5E9000130463146BDE874
:1002C400F087B3FA83F6002E4AD18B4202D38242DE
:1002D40000F2F980841A61EB030301209E46002D8D
:1002E400E0D0C5E9004EDDE702B9FFDEB2FA82F2E2
:1002F400002A40F09280A1EB0C014FEA1C471FFA40
:100304008CFE0126200CB1FBF7F307FB131140EA26
:1003140001410EFB03F0884208D91CEB010103F1F3
:10032400FF3802D2884200F2CB804346091AA4B2B5
:10033400B1FBF7F007FB101144EA01440EFB00FE89
:10034400A64508D91CEB040400F1FF3102D2A645EE
:1003540000F2BB800846A4EB0E0440EA03409CE78D
:10036400C6F12007B34022FA07FC4CEA030C20FA3A
:1003740007F401FA06F31C43F9404FEA1C4900FA5A
:1003840006F3B1FBF9F8200C1FFA8CFE09FB1811D7
:1003940040EA014108FB0EF0884202FA06F20BD94A
:1003A4001CEB010108F1FF3A80F08880884240F29A
:1003B4008580A8F102086144091AA4B2B1FBF9F0DE
:1003C40009FB101144EA014100FB0EFE8E4508D9D9
:1003D4001CEB010100F1FF346CD28E456AD902385E
:1003E400614440EA0840A0FB0294A1EB0E01A14243
:1003F400C846A64656D353D05DB1B3EB080261EBB1
:100404000E0101FA07F722FA06F3F1401F43C5E98A
:10041400007100263146BDE8F087C2F12003D840C0
:100424000CFA02FC21FA03F3914001434FEA1C4702
:100434001FFA8CFEB3FBF7F007FB10360B0C43EAF4
:10044400064300FB0EF69E4204FA02F408D91CEBA4
:10045400030300F1FF382FD29E422DD902386344A2
:100464009B1B89B2B3FBF7F607FB163341EA034142
:1004740006FB0EF38B4208D91CEB010106F1FF3891
:1004840016D28B4214D9023E6144C91A46EA004688
:1004940038E72E46284605E70646E3E61846F8E61A
:1004A4004B45A9D2B9EB020864EB0C0E0138A3E763
:1004B4004646EAE7204694E74046D1E7D0467BE744
:1004C400023B614432E7304609E76444023842E7BC
:1004D400704700BF80B500AF00F026FC00F01AF9A9
:1004E40000F01CFA07F0F8FC00F080F97F4802F0F5
:1004F40045FE00217D4803F007F804217B4802F003
:10050400F9FE7A4B1B6800229A63794B5B78DBB265
:100514009BB21946764807F0A3FD764B1B68764AD2
:1005240082FB03125210DB17D21A4FF080439A63F6
:10053400724B1B684FF4FA62B2FBF3F3704A136018
:100544006F4B1A6813461B019B1A9B001A466D4B8E
:100554001A606D4B00221A700DE06B4B1B78DBB2F6
:100564001A466A4B00219954674B1B78DBB201335E
:10057400DAB2654B1A70644B1B78DBB2022BECD9F0
:10058400604B1B6810226149184608F0F7F95E4B6E
:1005940000221A702CE05C4B1B78DBB21A465B4BD2
:1005A4009B5CDBB2392B0ED8574B1B78DBB21A4657
:1005B400564B9B5CDBB2544A1278D2B2303BD9B270
:1005C400524B99540DE0504B1B78DBB21A464F4BFB
:1005D4009B5CDBB24C4A1278D2B2573BD9B24B4B3C
:1005E4009954494B1B78DBB20133DAB2464B1A708B
:1005F400454B1B78DBB2022BCDD9444B1B78DAB2C6
:100604003B4B9A70414B5B78DAB2394BDA703F4B13
:100614009B78DAB2364B1A713D4B00221A703A4B72
:1006240000221A7014E0384B1B78DBB21A46304BA8
:100634009B5CDAB2364B1B78DBB21344DAB2344B30
:100644001A70314B1B78DBB20133DAB22E4B1A70BD
:100654002D4B1B78DBB2042BE5D92D4B1B78DAB27A
:10066400234B5A71224B5B78DBB29BB2194620486C
:1006740007F0F6FC234B1A681E4B1B689A4230D0D5
:10068400204B1A681B4B1B689A4212DA4FF08043C6
:100694009A6B184B19681B4B1B68CB1A164981FBC4
:1006A40003014910DB17CB1A4FF0804113448B63CD
:1006B40017E0144B1A680F4B1B689A4211DD4FF078
:1006C40080439A6B0F4B19680A4B1B68CB1A0A4973
:1006D40081FB03014910DB17CB1A4FF0804113440F
:1006E4008B63322000F092FB17E700BF200100204B
:1006F4000000002080010020676666667401002007
:1007040078010020680100208C010020880100206D
:100714008B01002080B594B000AF07F12003302294
:100724000021184608F02CF907F10C0300221A6086
:100734005A609A60DA601A610023BB60294B1B6C13
:10074400284A43F080531364264B1B6C03F08053F8
:10075400BB60BB6800237B60234B1B6823F44043CE
:10076400214A43F4004313601F4B1B6803F44043C6
:100774007B607B6801233B624FF480337B620223FE
:10078400BB634FF48003FB6319233B644FF4A873EA
:100794007B640423BB640723FB6407F1200318462E
:1007A40002F06CF80346002B01D000F08FF90F2300
:1007B400FB6002233B6100237B614FF48053BB61E8
:1007C4000023FB6107F10C030221184602F0CEFA64
:1007D4000346002B01D000F079F900BF5037BD4625
:1007E40080BD00BF003802400070004080B592B068
:1007F40000AF07F1380300221A605A609A60DA6089
:1008040007F1300300221A605A6007F12003002226
:100814001A605A609A60DA603B1D00221A605A60BE
:100824009A60DA601A615A619A613B4B4FF08042D8
:100834001A60394B4AF210425A60374B00229A60D0
:10084400354BC722DA60344B00221A61324B002246
:100854009A61314802F042FC0346002B01D000F0BB
:1008640035F94FF48053BB6307F1380319462A481E
:1008740003F0CAF90346002B01D000F027F92648FB
:1008840002F0E8FD0346002B01D000F01FF92248D6
:1008940002F0D6FC0346002B01D000F017F9002328
:1008A4003B6300237B6307F1300319461A4803F0C6
:1008B4007BFE0346002B01D000F008F900233B62C5
:1008C40001237B620023BB620023FB6207F1200348
:1008D40000221946104803F039F80346002B01D0D2
:1008E40000F0F4F860237B600023BB600023FB600E
:1008F40000237B613B1D04221946074803F0C2F81C
:100904000346002B01D000F0E1F8034800F05AF947
:1009140000BF4837BD4680BD2001002080B483B0AD
:1009240000AF00237B60104B1B6B0F4A43F0800326
:1009340013630D4B1B6B03F080037B607B68002308
:100944003B60094B1B6B084A43F001031363064BDE
:100954001B6B03F001033B603B6800BF0C37BD46D3
:100964005DF8047B704700BF0038024080B483B058
:1009740000AF7860194B1B78DBB2002B0BD14FF022
:1009840080435B6B164A1360164B00221A80134B8C
:1009940001221A701CE0114B1B78DBB2012B17D11A
:1009A4004FF080435B6B104A13600E4B1B889BB265
:1009B4001A46C82302FB03F31A460B4B1B681A445E
:1009C400074B1B68D31A094A1360044B00221A70A0
:1009D40000BF0C37BD465DF8047B704784010020DE
:1009E4006C0100207C0100207001002074010020B3
:1009F40080B483B000AF7860064B1B889BB2013390
:100A04009AB2044B1A8000BF0C37BD465DF8047BD4
:100A1400704700BF7C01002080B485B000AF7860CF
:100A240039600023FB730023BB737B6801331B789D
:100A3400BB737B681B78162B3DD1BB7B013B7A686B
:100A440013441B78192B36D11E4B00221A7010E068
:100A54001C4B1B78DBB21A467B6813441A78FB7B69
:100A64001344FB73174B1B78DBB20133DAB2154B1B
:100A74001A70144B1B78DBB21A46BB7B023B9A42BA
:100A8400E6DBBB7B023B7A6813441B78FA7B9A4211
:100A940011D17B6802331B781B0203F470627B68FC
:100AA40003331B781B01DBB213437A6804321278D8
:100AB4001343054A136000BF1437BD465DF8047B39
:100AC400704700BF8C0100208001002080B400AF7B
:100AD40072B600BFFEE7000080B483B000AF00230D
:100AE4007B60104B5B6C0F4A43F4804353640D4BA3
:100AF4005B6C03F480437B607B6800233B60094BA1
:100B04001B6C084A43F080531364064B1B6C03F0C0
:100B140080533B603B6800BF0C37BD465DF8047BE7
:100B2400704700BF0038024080B58AB000AF7860DB
:100B340007F1140300221A605A609A60DA601A619D
:100B44007B681B68B3F1804F33D100233B611B4B9F
:100B54001B6C1A4A43F001031364184B1B6C03F01B
:100B640001033B613B690023FB60144B1B6B134A7D
:100B740043F001031363114B1B6B03F00103FB6090
:100B8400FB6801237B610223BB610023FB6100231B
:100B94003B6201237B6207F114031946084800F005
:100BA4006BFA002200211C2000F02FFA1C2000F018
:100BB40048FA00BF2837BD4680BD00BF0038024058
:100BC4000000024080B588B000AF786007F10C03E4
:100BD40000221A605A609A60DA601A617B681B68A6
:100BE400B3F1804F1DD10023BB60104B1B6B0F4A28
:100BF40043F0010313630D4B1B6B03F00103BB6054
:100C0400BB680223FB6002233B6100237B6100235A
:100C1400BB610123FB6107F10C031946044800F092
:100C24002BFA00BF2037BD4680BD00BF003802400C
:100C34000000024080B400AFFEE780B400AFFEE7DE
:100C440080B400AFFEE780B400AFFEE780B400AF2D
:100C5400FEE780B400AF00BFBD465DF8047B70477B
:100C640080B400AF00BFBD465DF8047B704780B41C
:100C740000AF00BFBD465DF8047B704780B500AF90
:100C840000F0A4F800BF80BD80B500AF024802F0B8
:100C940055FD00BF80BD00BF2001002080B500AF1E
:100CA400024800F0BDFC00BF80BD00BF440E002020
:100CB40080B400AF064BD3F88830054A43F4700380
:100CC400C2F8883000BFBD465DF8047B704700BFA2
:100CD40000ED00E0DFF834D00D480E490E4A002341
:100CE40002E0D458C4500433C4188C42F9D30B4ADC
:100CF4000B4C002301E013600432A242FBD3FFF744
:100D0400D7FF07F0FFFDFFF7E5FB70470000012068
:100D14000000002004010020C08A00080401002013
:100D240070150020FEE7000080B500AF0E4B1B6875
:100D34000D4A43F4007313600B4B1B680A4A43F4D7
:100D440080631360084B1B68074A43F48073136085
:100D5400032000F04FF90F2000F008F8FFF7BCFE65
:100D64000023184680BD00BF003C024080B582B01D
:100D740000AF7860124B1A68124B1B7819464FF477
:100D84007A73B3FBF1F3B2FBF3F3184600F067F99F
:100D94000346002B01D001230EE07B680F2B0AD8F9
:100DA400002279684FF0FF3000F02FF9064A7B6883
:100DB4001360002300E0012318460837BD4680BDB8
:100DC40008000020100000200C00002080B400AFB8
:100DD400064B1B781A46064B1B681344044A1360DF
:100DE40000BFBD465DF8047B704700BF10000020C3
:100DF4009001002080B400AF034B1B681846BD4629
:100E04005DF8047B704700BF9001002080B584B07A
:100E140000AF7860FFF7EEFFB8607B68FB60FB68AB
:100E2400B3F1FF3F05D00A4B1B781A46FB68134405
:100E3400FB6000BFFFF7DEFF0246BB68D31AFA6807
:100E44009A42F7D800BF00BF1037BD4680BD00BF2F
:100E54001000002080B485B000AF78607B6803F098
:100E64000703FB600C4BDB68BB60BA684FF6FF03FB
:100E74001340BB60FB681A02BB68134343F0BF63B3
:100E840043F40033BB60044ABB68D36000BF14372B
:100E9400BD465DF8047B704700ED00E080B400AF10
:100EA400044BDB681B0A03F007031846BD465DF8D4
:100EB400047B704700ED00E080B483B000AF0346CC
:100EC400FB7197F90730002B0BDBFB7903F01F0252
:100ED400074997F907305B09012000FA02F241F84B
:100EE400232000BF0C37BD465DF8047B704700BF6C
:100EF40000E100E080B483B000AF03463960FB71C9
:100F040097F90730002B0ADB3B68DAB20C4997F9F2
:100F140007301201D2B20B4483F800230AE03B6885
:100F2400DAB20849FB7903F00F03043B1201D2B291
:100F34000B441A7600BF0C37BD465DF8047B70473E
:100F440000E100E000ED00E080B489B000AFF8609B
:100F5400B9607A60FB6803F00703FB61FB69C3F1C6
:100F64000703042B28BF0423BB61FB690433062B4E
:100F740002D9FB69033B00E000237B614FF0FF32A1
:100F8400BB6902FA03F3DA43BB681A407B699A40EF
:100F94004FF0FF317B6901FA03F3D9437B680B40BF
:100FA400134318462437BD465DF8047B70470000A0
:100FB40080B582B000AF78607B68013BB3F1807F7D
:100FC40001D301230FE00A4A7B68013B53600F21E0
:100FD4004FF0FF30FFF78EFF054B00229A60044B61
:100FE40007221A60002318460837BD4680BD00BF9B
:100FF40010E000E080B582B000AF78607868FFF759
:1010040029FF00BF0837BD4680BD80B586B000AF5C
:101014000346B9607A60FB7300237B61FFF73EFFF0
:1010240078617A68B9687869FFF78EFF024697F9A4
:101034000F3011461846FFF75DFF00BF1837BD4655
:1010440080BD80B582B000AF0346FB7197F90730CD
:101054001846FFF731FF00BF0837BD4680BD80B595
:1010640082B000AF78607868FFF7A2FF03461846A5
:101074000837BD4680BD000080B489B000AF7860F9
:10108400396000237B6100233B610023BB610023A3
:10109400FB6159E10122FB6902FA03F37B613B68BE
:1010A4001B687A6913403B613A697B699A4240F054
:1010B40048813B685B6803F00303012B05D03B6860
:1010C4005B6803F00303022B30D17B689B68BB6130
:1010D400FB695B00032202FA03F3DB43BA691340A2
:1010E400BB613B68DA68FB695B0002FA03F3BA6927
:1010F4001343BB617B68BA699A607B685B68BB61B8
:101104000122FB6902FA03F3DB43BA691340BB61B2
:101114003B685B681B0903F00102FB6902FA03F3F5
:10112400BA691343BB617B68BA695A603B685B6800
:1011340003F00303032B17D07B68DB68BB61FB69F7
:101144005B00032202FA03F3DB43BA691340BB6179
:101154003B689A68FB695B0002FA03F3BA691343BC
:10116400BB617B68BA69DA603B685B6803F00303C0
:10117400022B23D1FB69DA087B68083253F822304A
:10118400BB61FB6903F007039B000F2202FA03F320
:10119400DB43BA691340BB613B681A69FB6903F01E
:1011A40007039B0002FA03F3BA691343BB61FB69AB
:1011B400DA087B680832B96943F822107B681B6837
:1011C400BB61FB695B00032202FA03F3DB43BA69E8
:1011D4001340BB613B685B6803F00302FB695B007F
:1011E40002FA03F3BA691343BB617B68BA691A60F4
:1011F4003B685B6803F44033002B00F0A2800023BB
:10120400FB60574B5B6C564A43F480435364544B26
:101214005B6C03F48043FB60FB68524AFB699B08E8
:10122400023352F82330BB61FB6903F003039B00D4
:101234000F2202FA03F3DB43BA691340BB617B68F4
:10124400494A934219D07B68484A934213D07B6839
:10125400474A93420DD07B68464A934207D07B6845
:10126400454A934201D1042308E0072306E00323FF
:1012740004E0022302E0012300E00023FA6902F003
:10128400030292009340BA691343BB613549FB6979
:101294009B080233BA6941F82320384B9B68BB6131
:1012A4003B69DB43BA691340BB613B685B6803F489
:1012B4008013002B03D0BA693B691343BB612F4AE7
:1012C400BB6993602D4BDB68BB613B69DB43BA6947
:1012D4001340BB613B685B6803F40013002B03D02D
:1012E400BA693B691343BB61244ABB69D360234B8E
:1012F4005B68BB613B69DB43BA691340BB613B6814
:101304005B6803F40033002B03D0BA693B691343D1
:10131400BB611A4ABB695360184B1B68BB613B69CC
:10132400DB43BA691340BB613B685B6803F48033F9
:10133400002B03D0BA693B691343BB610F4ABB69F5
:101344001360FB690133FB61FB690F2B7FF6A2AECF
:1013540000BF00BF2437BD465DF8047B704700BF63
:1013640000380240003801400000024000040240FE
:1013740000080240000C024000100240003C014002
:10138400F0B58FB00AAF78607B68002B01D10123E0
:101394000FE17B681B68BB607B6893F8BD34DBB2EC
:1013A400002B06D17B68002283F8BC24786806F001
:1013B4009FFF7B68032283F8BD24BB68DB6B03F4C7
:1013C4008073002B02D17B6800221A617B681B6842
:1013D400184603F080FA7B681B683B607E686D46A4
:1013E40006F110040FCC0FC50FCC0FC594E8030011
:1013F40085E80300331D0ECB386803F057F9034624
:10140400002B05D07B68022283F8BD240123D0E0A1
:101414007B681B680021184603F06EFA0023FB73F7
:101424004AE0FA7B79681346DB0013449B000B44C3
:101434003D3301221A70FA7B79681346DB001344AA
:101444009B000B443C33FA7B1A70FA7BFB7B98B20B
:1014540079681346DB0013449B000B444433024673
:101464001A80FA7B79681346DB0013449B000B4413
:10147400403300221A70FA7B79681346DB00134468
:101484009B000B44483300221A60FA7B79681346A8
:10149400DB0013449B000B444C3300221A60FA7B9C
:1014A40079681346DB0013449B000B445433002239
:1014B4001A60FB7B0133FB73FA7B7B685B689A429F
:1014C400AFD30023FB7344E0FA7B79681346DB0057
:1014D40013449B000B4403F27D2300221A70FA7B11
:1014E40079681346DB0013449B000B4403F51F7318
:1014F400FA7B1A70FA7B79681346DB0013449B006D
:101504000B4403F5207300221A70FA7B79681346A2
:10151400DB0013449B000B4403F5227300221A6082
:10152400FA7B79681346DB0013449B000B4403F5F4
:10153400237300221A60FA7B79681346DB00134494
:101544009B000B4403F5257300221A60FB7B0133D7
:10155400FB73FA7B7B685B689A42B5D37B681B6834
:101564003B607E686D4606F110040FCC0FC50FCCAE
:101574000FC594E8030085E80300331D0ECB3868DB
:1015840003F006FA0346002B05D07B68022283F899
:10159400BD2401230DE07B68002283F838207B689A
:1015A400012283F8BD247B681B68184604F055FBB0
:1015B400002318461437BD46F0BD80B584B000AF93
:1015C40078607B681B68FB607B6893F8BC34012BF4
:1015D40001D1022320E07B68012283F8BC247B68CC
:1015E4009B6A012B09D17B689B69012B05D0FB68A1
:1015F4009B6B43F48032FB689A637B681B681846D4
:1016040003F058F97B681B68184604F005FB7B68F7
:10161400002283F8BC24002318461037BD4680BD41
:1016240090B58DB000AF78607B681B683B623B6A05
:10163400FB617B681B68184604F0C3FB0346002B60
:1016440040F08A847B681B68184604F027FB034635
:10165400002B00F08084FB6903F500639B681B0A80
:10166400C3F30D027B68C3F8FC247B681B6818462F
:1016740004F014FB034603F00203022B07D17B683A
:101684001B685A697B681B6802F002025A617B6816
:101694001B68184604F002FB034603F01003102BEA
:1016A40061D17B681B689A697B681B6822F0100211
:1016B4009A613B6A1B6ABB61BB6903F00F02134664
:1016C400DB0013449B0003F51E737A681344043350
:1016D4007B61BB695B0C03F00F03022B24D1BA6955
:1016E40047F6F0731340002B35D07B691969BB6949
:1016F4001B099BB2C3F30A039BB21A46386A04F06F
:1017040039F97B691A69BB691B09C3F30A031A44D3
:101714007B691A617B691A6ABB691B09C3F30A03F3
:101724001A447B691A6216E0BB695B0C03F00F0371
:10173400062B10D17B6803F2C44308221946386A89
:1017440004F018F97B691A6ABB691B09C3F30A031D
:101754001A447B691A627B681B689A697B681B68F8
:1017640042F010029A617B681B68184604F096FAEE
:10177400034603F40023B3F5002F40F0A7800023B1
:101784007B627B681B68184604F09BFAB86299E098
:10179400BB6A03F00103002B00F08E807B681B689A
:1017A4007A6AD2B21146184604F0BFFA38613B692E
:1017B40003F00103002B0CD07B6A5A01FB6913442C
:1017C40003F530631A4601239360796A786800F060
:1017D400C3FE3B6903F00803002B0CD07B6A5A015B
:1017E400FB69134403F530631A4608239360796A4E
:1017F400786800F099FF3B6903F01003002B08D0D0
:101804007B6A5A01FB69134403F530631A461023BB
:1018140093603B6903F00203002B30D03B6A5B69A1
:1018240003F08003802B09D1FB6903F500635B6837
:10183400FA6902F5006243F4806353607A6A1346DE
:10184400DB0013449B0003F51E737A6813440433CE
:101854007B617B69DB78012B08D17B690022DA701C
:101864007B6ADBB21946786806F03EFE7B6A5A0151
:10187400FB69134403F530631A46022393603B6902
:1018840003F02003002B08D07B6A5A01FB69134440
:1018940003F530631A46202393603B6903F4005335
:1018A400002B09D07B6A5A01FB69134403F53063AA
:1018B4001A464FF4005393607B6A01337B62BB6A20
:1018C4005B08BB62BB6A002B7FF462AF7B681B685A
:1018D400184604F0E3F9034603F48023B3F5802F9C
:1018E40040F0DB807B681B68184604F004FAB86299
:1018F40000237B62CDE0BB6A03F00103002B00F000
:10190400C2807B681B687A6AD2B21146184604F01A
:101914002AFA38613B6903F00103002B57D07B6A34
:1019240003F00F03012202FA03F3FB60FB6903F5E2
:1019340000635A6BFB68DB43F96901F500611340EE
:101944004B637B6A5A01FB69134403F510631A461F
:10195400012393607B681B69012B32D179687A6A11
:101964001346DB0013449B000B444C33196878681E
:101974007A6A1346DB0013449B00034448331B6814
:10198400194478687A6A1346DB0013449B000344C5
:101994004C3319607B6A002B13D179687A6A134639
:1019A400DB0013449B000B4454331B68002B08D109
:1019B4007B6818687B6803F2C4431A46012104F06B
:1019C40031FA7B6ADBB21946786806F012FD3B698E
:1019D40003F00803002B08D07B6A5A01FB69134407
:1019E40003F510631A46082393603B6903F0100360
:1019F400002B08D07B6A5A01FB69134403F510637A
:101A04001A46102393603B6903F04003002B08D06F
:101A14007B6A5A01FB69134403F510631A46402399
:101A240093603B6903F00203002B23D0796A386A80
:101A340003F012F97A6A1346DB0013449B0038332F
:101A44007A68134404337B617B69DB78012B08D10A
:101A54007B690022DA707B6ADBB21946786806F08B
:101A640055FD7B6A5A01FB69134403F510631A465A
:101A7400022393603B6903F08003002B03D0796A4F
:101A8400786800F0DBFC7B6A01337B62BB6A5B082D
:101A9400BB62BB6A002B7FF42EAF7B681B681846C1
:101AA40004F0FCF8034603F00043B3F1004F22D1E5
:101AB400FB6903F500635B68FA6902F5006223F0D1
:101AC400010353607B6893F8F434012B08D17B68DD
:101AD400002283F8F4240021786800F0C3FE02E0B9
:101AE400786806F0F3FC7B681B685A697B681B689E
:101AF40002F000425A617B681B68184604F0CEF875
:101B0400034603F40063B3F5006F12D1FB6903F5D8
:101B140000639B6803F00103012B02D1786806F08F
:101B2400AFFC7B681B685A697B681B6802F400621F
:101B34005A617B681B68184604F0B0F8034603F446
:101B44008053B3F5805F40F0B780FB6903F5006311
:101B54005B68FA6902F5006223F0010353607B6855
:101B64001B681021184603F077F80023FB6246E057
:101B7400FB6A5A01FB69134403F510631A464FF6D6
:101B84007F339360FB6A5A01FB69134403F51063C6
:101B94001B68FA6A5101FA690A4402F5106223F4D7
:101BA40000131360FB6A5A01FB69134403F53063A5
:101BB4001A464FF67F339360FB6A5A01FB6913445C
:101BC40003F530631B68FA6A5101FA690A4402F5A5
:101BD400306223F400131360FB6A5A01FB69134457
:101BE40003F530631B68FA6A5101FA690A4402F585
:101BF400306243F000631360FB6A0133FB627B686D
:101C04005B68FA6A9A42B3D3FB6903F50063DB6944
:101C1400FA6902F5006243F00113D3617B681B6B20
:101C2400002B16D0FB6903F50063D3F88430FA69FE
:101C340002F5006243F00B03C2F88430FB6903F53C
:101C440000635B6CFA6902F5006243F00B035364B2
:101C540015E0FB6903F500635B69FA6902F500624C
:101C640043F4005343F02B035361FB6903F5006312
:101C74001B69FA6902F5006243F00B031361FB6907
:101C840003F500631B68FA6902F5006223F4FE633E
:101C940013607B6818687B681B69D9B27B6803F2A0
:101CA400C4431A4604F0BEF87B681B685A697B6813
:101CB4001B6802F480525A617B681B68184603F063
:101CC400EDFF034603F40053B3F5005F24D17B68B2
:101CD4001B68184604F083F87B681B68184603F0F9
:101CE40038F803461A467B68DA607B681C6801F0A2
:101CF400E9F901467B68DB68DBB21A46204602F04C
:101D040037FD786806F09DFB7B681B685A697B6821
:101D14001B6802F400525A617B681B68184603F082
:101D2400BDFF034603F00803082B0AD1786806F0C8
:101D34007AFB7B681B685A697B681B6802F008029F
:101D44005A617B681B68184603F0A8FF034603F03A
:101D54008003802B22D13B6A9B6923F080023B6A7B
:101D64009A6101237B6214E079687A6A1346DB0086
:101D740013449B000B4403F27F231B78012B05D1F2
:101D84007B6ADBB21946786800F027FB7B6A013373
:101D94007B627B685B687A6A9A42E5D37B681B68DE
:101DA400184603F07BFF034603F48013B3F5801F4A
:101DB4003BD101237B622BE07B6A5A01FB6913440C
:101DC40003F510631B68BB6179687A6A1346DB000C
:101DD40013449B000B4440331B78012B15D1BB6982
:101DE400002B12DA79687A6A1346DB0013449B00ED
:101DF4000B443F3301221A707B6ADBB263F07F032A
:101E0400DBB21946786800F0E8FA7B6A01337B623A
:101E14007B685B687A6A9A42CED37B681B685A698E
:101E24007B681B6802F480125A617B681B68184641
:101E340003F034FF034603F40013B3F5001F55D138
:101E440001237B6245E07B6A5A01FB69134403F575
:101E540030631B68BB6179687A6A1346DB001344FC
:101E64009B000B4403F520731B78012B2ED1BB6917
:101E7400002B2BDABB6903F480327B68D3F8FC3483
:101E840003F001039A4221D179687A6A1346DB0090
:101E940013449B000B4403F27F2301221A703B6A14
:101EA4009B6943F080023B6A9A613B6A5B6903F079
:101EB4008003002B0AD1FB6903F500635B68FA69B0
:101EC40002F5006243F40073536007E07B6A013358
:101ED4007B627B685B687A6A9A42B4D37B681B68CE
:101EE4005A697B681B6802F400125A617B681B689C
:101EF400184603F0D3FE034603F08043B3F1804F4A
:101F04000AD1786806F014FB7B681B685A697B6801
:101F14001B6802F080425A617B681B68184603F014
:101F2400BDFE034603F00403042B15D17B681B6834
:101F34005B68BB61BB6903F00403002B02D07868C3
:101F440006F004FB7B681B6859687B681B68BA69E8
:101F54000A435A6000E000BF3437BD4690BD80B5E7
:101F640082B000AF78600B46FB707B6893F8BC349A
:101F7400012B01D1022313E07B68012283F8BC24E6
:101F84007B68FA7883F838207B681B68FA781146F6
:101F9400184603F01BFE7B68002283F8BC24002350
:101FA40018460837BD4680BD80B584B000AF786060
:101FB400084611461A460346FB700B463B801346FF
:101FC400BB700023FB7297F90330002B0FDAFB7808
:101FD40003F00F021346DB0013449B0038337A6886
:101FE40013440433FB60FB6801225A700FE0FB7852
:101FF40003F00F021346DB0013449B0003F51E732A
:102004007A6813440433FB60FB6800225A70FB783F
:1020140003F00F03DAB2FB681A703A88FB68DA60DF
:10202400FB68BA781A71FB685B78002B04D0FB68F4
:102034001B789AB2FB681A81BB78022B02D1FB6829
:1020440000225A717B6893F8BC34012B01D102231E
:102054000EE07B68012283F8BC247B681B68F96866
:10206400184602F09BFE7B68002283F8BC24FB7AAE
:1020740018461037BD4680BD80B584B000AF786087
:102084000B46FB7097F90330002B0FDAFB7803F053
:102094000F021346DB0013449B0038337A68134461
:1020A4000433FB60FB6801225A700FE0FB7803F0F5
:1020B4000F021346DB0013449B0003F51E737A687A
:1020C40013440433FB60FB6800225A70FB7803F06E
:1020D4000F03DAB2FB681A707B6893F8BC34012BE7
:1020E40001D102230EE07B68012283F8BC247B68C3
:1020F4001B68F968184602F0D9FE7B68002283F851
:10210400BC24002318461037BD4680BD80B586B078
:1021140000AFF8607A603B600B46FB72FB7A03F019
:102124000F021346DB0013449B0003F51E73FA6889
:10213400134404337B617B697A681A617B693A686A
:102144009A617B6900221A627B6900225A70FB7AC9
:1021540003F00F03DAB27B691A70FB681B69012B69
:1021640002D17A687B695A61FB7A03F00F03002B72
:1021740009D1FB681868FB681B69DBB21A467969E8
:1021840003F0B8F908E0FB681868FB681B69DBB268
:102194001A46796902F066FF002318461837BD46CF
:1021A40080BD80B483B000AF78600B46FB70FB78D1
:1021B40003F00F0279681346DB0013449B000B44C1
:1021C40003F527731B6818460C37BD465DF8047B7E
:1021D400704780B586B000AFF8607A603B600B460C
:1021E400FB72FB7A03F00F021346DB0013449B00DF
:1021F4003833FA68134404337B617B697A681A6163
:102204007B693A689A617B6900221A627B690122C0
:102214005A70FB7A03F00F03DAB27B691A70FB6819
:102224001B69012B02D17A687B695A61FB7A03F03E
:102234000F03002B09D1FB681868FB681B69DBB22C
:102244001A46796903F056F908E0FB681868FB68D8
:102254001B69DBB21A46796902F004FF00231846B1
:102264001837BD4680BD80B584B000AF78600B469A
:10227400FB70FB7803F00F027B685B689A4201D91C
:10228400012350E097F90330002B0FDAFB7803F0B9
:102294000F021346DB0013449B0038337A6813445F
:1022A4000433FB60FB6801225A700DE0FA78134690
:1022B400DB0013449B0003F51E737A681344043354
:1022C400FB60FB6800225A70FB6801229A70FB785D
:1022D40003F00F03DAB2FB681A707B6893F8BC341E
:1022E400012B01D102231EE07B68012283F8BC2468
:1022F4007B681B68F968184603F094FBFB7803F0CD
:102304000F03002B0AD17B6818687B681B69D9B25C
:102314007B6803F2C4431A4603F084FD7B68002201
:1023240083F8BC24002318461037BD4680BD80B511
:1023340084B000AF78600B46FB70FB7803F00F02AB
:102344007B685B689A4201D9012342E097F9033024
:10235400002B0FDAFB7803F00F021346DB00134463
:102364009B0038337A6813440433FB60FB68012212
:102374005A700FE0FB7803F00F021346DB0013449E
:102384009B0003F51E737A6813440433FB60FB68F7
:1023940000225A70FB6800229A70FB7803F00F0346
:1023A400DAB2FB681A707B6893F8BC34012B01D154
:1023B40002230EE07B68012283F8BC247B681B683F
:1023C400F968184603F09CFB7B68002283F8BC2460
:1023D400002318461037BD4680BD80B584B000AFD9
:1023E40078600B46FB7097F90330002B0CDAFB780E
:1023F40003F00F021346DB0013449B0038337A6862
:1024040013440433FB600CE0FB7803F00F02134623
:10241400DB0013449B0003F51E737A6813440433F2
:10242400FB607B681B68F968184603F0BBF9034638
:10243400FB72FB7A18461037BD4680BD80B58AB062
:1024440002AF786039607B681B687B617B693B61A4
:102454003A681346DB0013449B0038337A6813440C
:102464000433FB60FB681A6AFB689B699A4201D9D2
:1024740001236CE0FB689A69FB681B6AD31AFB6151
:10248400FB68DB68FA699A4202D9FB68DB68FB6186
:10249400FB6903339B08BB612BE0FB689A69FB680B
:1024A4001B6AD31AFB61FB68DB68FA699A4202D99A
:1024B400FB68DB68FB61FB6903339B08BB61FB685A
:1024C40019693B68DAB2FB6998B27B681B69DBB2B5
:1024D40000930346786903F00FFAFB681A69FB69F5
:1024E4001A44FB681A61FB681A6AFB691A44FB68A0
:1024F4001A623B685A013B69134403F510639B69F4
:102504009BB2BA699A4209D8FB681A6AFB689B694C
:102514009A4203D2FB689B69002BBED1FB689A697F
:10252400FB681B6A9A4211D83B6803F00F0301222F
:1025340002FA03F3BB603B6903F500635A6BBB68A3
:10254400DB43396901F5006113404B6300231846EE
:102554002037BD4680BD000080B588B000AF7860EC
:1025640039607B681B68FB61FB69BB61FB693C33B9
:1025740004331B687B613B685A01BB69134403F550
:1025840030639B683B617B681B69012B7BD13B6992
:1025940003F00803002B15D07B69614A934240F293
:1025A400B9803B6903F40043002B00F0B3803B681F
:1025B4005A01BB69134403F530631A464FF40043D0
:1025C4009360A7E03B6903F02003002B09D03B682C
:1025D4005A01BB69134403F530631A462023936000
:1025E40098E03B6903F02803002B40F093807B695B
:1025F4004B4A93420FD93B6903F40043002B0AD0A2
:102604003B685A01BB69134403F530631A464FF41F
:10261400004393607EE03A681346DB0013449B005A
:1026240003F51E737A6813440433FB60FB68DA69AC
:102634003B685901BB690B4403F530631B69C3F361
:102644001203D21AFB681A623B68002B14D1FB6890
:102654009B69002B09D17B6818687B6803F2C4432B
:102664001A46012103F0DEFB06E0FB681A69FB68E9
:102674001B6A1A44FB681A613B68DBB21946786826
:1026840005F09CFE46E07B69264A934224D13B69CF
:1026940003F40043002B0AD03B685A01BB6913447E
:1026A40003F530631A464FF40043936032E03B690C
:1026B40003F02003002B08D03B685A01BB69134484
:1026C40003F530631A46202393603B68DBB2194656
:1026D400786805F073FE1DE03B68002B14D179681F
:1026E4003A681346DB0013449B000B4403F525733F
:1026F4001B68002B08D17B6818687B6803F2C4430D
:102704001A46002103F08EFB3B68DBB21946786859
:1027140005F054FE002318462037BD4680BD00BF97
:102724000A30544F0A31544F80B586B000AF7860F8
:1027340039607B681B687B617B693B617B693C33E7
:1027440004331B68FB603B685A013B69134403F57F
:1027540030639B68BB60FB68154A93420ED9BB6823
:1027640003F40043002B09D03B685A013B6913442E
:1027740003F530631A464FF400439360786805F01C
:102784000BFEFB680A4A93420CD97B681B69012B38
:1027940008D17B6818687B6803F2C4431A46012198
:1027A40003F040FB002318461837BD4680BD00BF28
:1027B4000A30544F80B485B000AF78600B46FB708C
:1027C40013463B807B681B685B6ABB60FB78002B0D
:1027D40007D13B8819047B681B68BA680A439A626C
:1027E40028E07B681B689B6A1B0CBA681344BB60B7
:1027F4000023FB730DE07B681A68FB7B40339B006E
:1028040013445B681B0CBA681344BB60FB7B013345
:10281400FB73FA7BFB78013B9A42ECD33B881804A8
:102824007B681968FB78013BBA68024340339B001C
:102834000B445A60002318461437BD465DF8047BE8
:10284400704780B483B000AF78600B467B807B68B0
:102854001B687A885A62002318460C37BD465DF817
:10286400047B704780B483B000AF78600B46FB7084
:1028740000BF0C37BD465DF8047B704780B586B059
:1028840000AF78607B68002B01D1012367E27B688D
:102894001B6803F00103002B75D0884B9B6803F081
:1028A4000C03042B0CD0854B9B6803F00C03082B02
:1028B40012D1824B5B6803F48003B3F5800F0BD114
:1028C4007E4B1B6803F40033002B5BD07B685B6892
:1028D400002B57D1012342E27B685B68B3F5803F4C
:1028E40006D1764B1B68754A43F4803313601DE0B0
:1028F4007B685B68B3F5A02F0CD1704B1B686F4AE3
:1029040043F4802313606D4B1B686C4A43F480339B
:1029140013600BE0694B1B68684A23F4803313602F
:10292400664B1B68654A23F4802313607B685B68ED
:10293400002B13D0FEF75EFA386108E0FEF75AFA6E
:1029440002463B69D31A642B01D9032307E25B4B8C
:102954001B6803F40033002BF0D014E0FEF74AFAAE
:10296400386108E0FEF746FA02463B69D31A642B45
:1029740001D90323F3E1514B1B6803F40033002B0B
:10298400F0D100E000BF7B681B6803F00203002B5A
:1029940063D04A4B9B6803F00C03002B0BD0474BCE
:1029A4009B6803F00C03082B1CD1444B5B6803F4B5
:1029B4008003002B16D1414B1B6803F00203002B4C
:1029C40005D07B68DB68012B01D00123C7E13B4BB9
:1029D4001B6823F0F8027B681B69DB00374913434B
:1029E4000B603AE07B68DB68002B20D0344B01227B
:1029F4001A60FEF7FFF9386108E0FEF7FBF90246BA
:102A04003B69D31A022B01D90323A8E12B4B1B6882
:102A140003F00203002BF0D0284B1B6823F0F802CC
:102A24007B681B69DB00254913430B6015E0244BCD
:102A340000221A60FEF7DEF9386108E0FEF7DAF9E1
:102A440002463B69D31A022B01D9032387E11B4BAE
:102A54001B6803F00203002BF0D17B681B6803F0B2
:102A64000803002B36D07B685B69002B16D0154B0E
:102A740001221A60FEF7BEF9386108E0FEF7BAF9E0
:102A840002463B69D31A022B01D9032367E10B4B9E
:102A94005B6F03F00203002BF0D01BE0094B002214
:102AA4001A60FEF7A7F938610EE0FEF7A3F90246B3
:102AB4003B69D31A022B07D9032350E100380240A3
:102AC40000004742800E4742884B5B6F03F00203CD
:102AD400002BEAD17B681B6803F00403002B00F091
:102AE40097800023FB75814B1B6C03F08053002BF4
:102AF4000FD10023BB607D4B1B6C7C4A43F0805399
:102B040013647A4B1B6C03F08053BB60BB680123D6
:102B1400FB75774B1B6803F48073002B18D1744B3F
:102B24001B68734A43F480731360FEF763F93861DA
:102B340008E0FEF75FF902463B69D31A022B01D97C
:102B440003230CE16A4B1B6803F48073002BF0D061
:102B54007B689B68012B06D1644B1B6F634A43F06F
:102B6400010313671CE07B689B68052B0CD15F4B4A
:102B74001B6F5E4A43F0040313675C4B1B6F5B4A95
:102B840043F0010313670BE0584B1B6F574A23F0C4
:102B940001031367554B1B6F544A23F00403136757
:102BA4007B689B68002B15D0FEF724F938610AE096
:102BB400FEF720F902463B69D31A41F28832934268
:102BC40001D90323CBE0494B1B6F03F00203002B15
:102BD400EED014E0FEF70EF938610AE0FEF70AF9C8
:102BE40002463B69D31A41F28832934201D9032346
:102BF400B5E03E4B1B6F03F00203002BEED1FB7DCF
:102C0400012B05D1394B1B6C384A23F080531364D4
:102C14007B689B69002B00F0A180344B9B6803F018
:102C24000C03082B5CD07B689B69022B41D1314B90
:102C340000221A60FEF7DEF8386108E0FEF7DAF8E1
:102C440002463B69D31A022B01D9032387E0274BA1
:102C54001B6803F00073002BF0D17B68DA697B6892
:102C64001B6A1A437B685B6A9B011A437B689B6AF5
:102C74005B08013B1B041A437B68DB6A1B061B4988
:102C840013434B601B4B01221A60FEF7B3F8386103
:102C940008E0FEF7AFF802463B69D31A022B01D9CC
:102CA40003235CE0114B1B6803F00073002BF0D08E
:102CB40054E0104B00221A60FEF79CF8386108E0DB
:102CC400FEF798F802463B69D31A022B01D9032375
:102CD40045E0064B1B6803F00073002BF0D13DE088
:102CE4007B689B69012B07D1012338E0003802403F
:102CF40000700040600047421B4B5B68FB607B68D0
:102D04009B69012B28D0FB6803F480027B68DB6994
:102D14009A4221D1FB6803F03F027B681B6A9A4206
:102D24001AD1FA6847F6C07313407A68526A92015E
:102D3400934211D1FB6803F440327B689B6A5B08C1
:102D4400013B1B049A4207D1FB6803F070627B6865
:102D5400DB6A1B069A4201D0012300E000231846D7
:102D64001837BD4680BD00BF0038024080B584B02E
:102D740000AF786039607B68002B01D10123CCE07F
:102D8400684B1B6803F007033A689A420CD9654BF9
:102D94003A68D2B21A70634B1B6803F007033A68AF
:102DA4009A4201D00123B8E07B681B6803F0020358
:102DB400002B20D07B681B6803F00403002B05D094
:102DC400594B9B68584A43F4E05393607B681B68F3
:102DD40003F00803002B05D0534B9B68524A43F47D
:102DE40060439360504B9B6823F0F0027B689B68C0
:102DF4004D4913438B607B681B6803F00103002B70
:102E040044D07B685B68012B07D1474B1B6803F4F4
:102E14000033002B19D101237FE07B685B68022B10
:102E240003D07B685B68032B07D13F4B1B6803F01F
:102E34000073002B09D101236FE03B4B1B6803F0A7
:102E44000203002B01D1012367E0374B9B6823F079
:102E540003027B685B68344913438B60FDF7CAFF48
:102E6400F8600AE0FDF7C6FF0246FB68D31A41F298
:102E74008832934201D903234FE02B4B9B6803F024
:102E84000C027B685B689B009A42EBD1254B1B6864
:102E940003F007033A689A420CD2224B3A68D2B242
:102EA4001A70204B1B6803F007033A689A4201D05A
:102EB400012332E07B681B6803F00403002B08D075
:102EC400194B9B6823F4E0527B68DB681649134373
:102ED4008B607B681B6803F00803002B09D0124B3E
:102EE4009B6823F460427B681B69DB000E49134333
:102EF4008B6000F021F802460B4B9B681B0903F022
:102F04000F030A49CB5C22FA03F3094A1360094B05
:102F14001B681846FDF72AFF002318461037BD46E4
:102F240080BD00BF003C024000380240788A00089F
:102F3400080000200C0000202DE9B04F90B000AF35
:102F440000237B630023FB6300233B630023BB63F9
:102F5400594B9B6803F00C03082B0DD0082B00F28F
:102F6400A180002B02D0042B03D09BE0534BBB6306
:102F74009BE0534BBB6398E04F4B5B6803F03F030C
:102F84007B634D4B5B6803F48003002B28D04A4BD2
:102F94005B689B0900223B627A623B6AC3F30800C8
:102FA4000021474B03FB01F2002300FB03F313440E
:102FB400434AA0FB0212FA620A46BA62FA6A13444E
:102FC400FB627B6B0022BB61FA61D7E90623D7E978
:102FD4000A01FDF7FDF802460B461346FB6353E076
:102FE400354B5B689B0900223B617A613B69C3F303
:102FF400080A4FF0000B52465B464FF000004FF0BA
:103004000001590141EAD261500102460B46B2EB7C
:103014000A0863EB0B094FF000024FF000034FEA7C
:10302400891343EA98634FEA8812B2EB080463EB0E
:1030340009054FF000024FF00003EB0043EA54731C
:10304400E20014461D4614EB0A033B6045EB0B03F8
:103054007B604FF000024FF00003D7E9004529469A
:103064008B02214643EA915321468A0210461946AF
:103074007B6B0022BB60FA60D7E90223FDF7A8F856
:1030840002460B461346FB630B4B5B681B0C03F0B9
:10309400030301335B003B63FA6B3B6BB2FBF3F35B
:1030A400BB6302E0054BBB6300BFBB6B18464037F4
:1030B400BD46BDE8B08F00BF003802400024F400D4
:1030C40040787D0180B400AF034B1B681846BD46B1
:1030D4005DF8047B704700BF0800002080B582B013
:1030E40000AF78607B68002B01D1012341E07B684D
:1030F40093F83D30DBB2002B06D17B68002283F8C5
:103104003C207868FDF710FD7B68022283F83D209F
:103114007B681A687B6804331946104600F05AFE2F
:103124007B68012283F846207B68012283F83E20D5
:103134007B68012283F83F207B68012283F84020CA
:103144007B68012283F841207B68012283F84220B6
:103154007B68012283F843207B68012283F84420A2
:103164007B68012283F845207B68012283F83D2097
:10317400002318460837BD4680BD000080B485B0E2
:1031840000AF78607B6893F83D30DBB2012B01D04F
:10319400012344E07B68022283F83D207B681B689E
:1031A400DA687B681B6842F00102DA607B681B689E
:1031B4001E4A934218D07B681B68B3F1804F13D02A
:1031C4007B681B681A4A93420ED07B681B68194AB5
:1031D400934209D07B681B68174A934204D07B68EA
:1031E4001B68164A934211D17B681B689B6803F0E5
:1031F4000703FB60FB68062B10D07B681B681A680A
:103204007B681B6842F001021A6007E07B681B6858
:103214001A687B681B6842F001021A600023184692
:103224001437BD465DF8047B704700BF00000140C1
:103234000004004000080040000C00400040014031
:1032440080B582B000AF78607B68002B01D1012388
:1032540041E07B6893F83D30DBB2002B06D17B68FC
:10326400002283F83C20786800F039F87B68022259
:1032740083F83D207B681A687B680433194610463E
:1032840000F0A8FD7B68012283F846207B680122B8
:1032940083F83E207B68012283F83F207B6801226B
:1032A40083F840207B68012283F841207B68012257
:1032B40083F842207B68012283F843207B68012243
:1032C40083F844207B68012283F845207B6801222F
:1032D40083F83D20002318460837BD4680BD80B4DE
:1032E40083B000AF786000BF0C37BD465DF8047B47
:1032F4007047000080B584B000AF786039603B68E7
:10330400002B09D17B6893F83E30DBB2012B14BF4C
:1033140001230023DBB222E03B68042B09D17B6844
:1033240093F83F30DBB2012B14BF01230023DBB23F
:1033340015E03B68082B09D17B6893F84030DBB279
:10334400012B14BF01230023DBB208E07B6893F850
:103354004130DBB2012B14BF01230023DBB2002B6D
:1033640001D0012368E03B68002B04D17B68022272
:1033740083F83E2013E03B68042B04D17B680222CF
:1033840083F83F200BE03B68082B04D17B680222C2
:1033940083F8402003E07B68022283F841207B68A5
:1033A4001B6801223968184601F0D8F87B681B684D
:1033B400234A934207D17B681B685A6C7B681B685D
:1033C40042F400425A647B681B681D4A934218D039
:1033D4007B681B68B3F1804F13D07B681B68194A64
:1033E40093420ED07B681B68174A934209D07B68CE
:1033F4001B68164A934204D07B681B68144A9342A4
:1034040011D17B681B689B6803F00703FB60FB68B2
:10341400062B10D07B681B681A687B681B6842F017
:1034240001021A6007E07B681B681A687B681B68E6
:1034340042F001021A60002318461037BD4680BDD1
:10344400000001400004004000080040000C00405F
:103454000040014080B582B000AF78607B68002BEB
:1034640001D1012341E07B6893F83D30DBB2002BAE
:1034740006D17B68002283F83C20786800F039F894
:103484007B68022283F83D207B681A687B680433DA
:103494001946104600F09EFC7B68012283F8462002
:1034A4007B68012283F83E207B68012283F83F2059
:1034B4007B68012283F840207B68012283F8412045
:1034C4007B68012283F842207B68012283F8432031
:1034D4007B68012283F844207B68012283F845201D
:1034E4007B68012283F83D20002318460837BD4637
:1034F40080BD80B483B000AF786000BF0C37BD4698
:103504005DF8047B7047000080B584B000AF78603C
:1035140039600023FB733B68002B04D17B6893F86C
:103524003E30DBB213E03B68042B04D17B6893F894
:103534003F30DBB20BE03B68082B04D17B6893F887
:103544004030DBB203E07B6893F84130DBB2BB73FD
:103554003B68002B04D17B6893F84230DBB213E064
:103564003B68042B04D17B6893F84330DBB20BE057
:103574003B68082B04D17B6893F84430DBB203E04A
:103584007B6893F84530DBB27B73BB7B012B02D1A4
:103594007B7B012B01D00123C2E03B68002B04D1CB
:1035A4007B68022283F83E2013E03B68042B04D19D
:1035B4007B68022283F83F200BE03B68082B04D190
:1035C4007B68022283F8402003E07B68022283F8B0
:1035D40041203B68002B04D17B68022283F84220FF
:1035E40013E03B68042B04D17B68022283F8432058
:1035F4000BE03B68082B04D17B68022283F844204B
:1036040003E07B68022283F845203B680C2B41D8F9
:1036140001A252F823F000BF513600089936000881
:103624009936000899360008633600089936000870
:10363400993600089936000875360008993600084E
:103644009936000899360008873600087B681B689D
:10365400DA687B681B6842F00202DA601DE07B686E
:103664001B68DA687B681B6842F00402DA6014E0C5
:103674007B681B68DA687B681B6842F00802DA60C2
:103684000BE07B681B68DA687B681B6842F01002F9
:10369400DA6002E00123FB7300BFFB7B002B3ED109
:1036A4007B681B6801223968184600F057FF7B6865
:1036B4001B681D4A934218D07B681B68B3F1804F86
:1036C40013D07B681B68194A93420ED07B681B6831
:1036D400174A934209D07B681B68164A934204D068
:1036E4007B681B68144A934211D17B681B689B68F2
:1036F40003F00703BB60BB68062B10D07B681B6814
:103704001A687B681B6842F001021A6007E07B6854
:103714001B681A687B681B6842F001021A60FB7B15
:1037240018461037BD4680BD00000140000400402B
:1037340000080040000C00400040014080B582B009
:1037440000AF78607B681B681B6903F00203022BDF
:1037540022D17B681B68DB6803F00203022B1BD1B8
:103764007B681B686FF002021A617B6801221A777A
:103774007B681B689B6903F00303002B03D0786804
:10378400FDF7F4F805E0786800F005FB786800F0D0
:103794000CFB7B6800221A777B681B681B6903F0AB
:1037A4000403042B22D17B681B68DB6803F0040349
:1037B400042B1BD17B681B686FF004021A617B68C1
:1037C40002221A777B681B689B6903F44073002B01
:1037D40003D07868FDF7CAF805E0786800F0DBFAF2
:1037E400786800F0E2FA7B6800221A777B681B682D
:1037F4001B6903F00803082B22D17B681B68DB6874
:1038040003F00803082B1BD17B681B686FF00802C8
:103814001A617B6804221A777B681B68DB6903F0F2
:103824000303002B03D07868FDF7A0F805E078685F
:1038340000F0B1FA786800F0B8FA7B6800221A77D1
:103844007B681B681B6903F01003102B22D17B6873
:103854001B68DB6803F01003102B1BD17B681B680B
:103864006FF010021A617B6808221A777B681B6864
:10387400DB6903F44073002B03D07868FDF776F816
:1038840005E0786800F087FA786800F08EFA7B68C3
:1038940000221A777B681B681B6903F00103012B64
:1038A4000ED17B681B68DB6803F00103012B07D191
:1038B4007B681B686FF001021A617868FDF798F85D
:1038C4007B681B681B6903F08003802B0ED17B6827
:1038D4001B68DB6803F08003802B07D17B681B68BF
:1038E4006FF080021A61786800F0D6FE7B681B686E
:1038F4001B6903F04003402B0ED17B681B68DB6817
:1039040003F04003402B07D17B681B686FF0400233
:103914001A61786800F053FA7B681B681B6903F02E
:103924002003202B0ED17B681B68DB6803F0200387
:10393400202B07D17B681B686FF020021A6178681E
:1039440000F0A0FE00BF0837BD4680BD80B586B03C
:1039540000AFF860B9607A600023FB75FB6893F8E8
:103964003C30012B01D1022388E0FB68012283F85B
:103974003C207B68002B1BD1FB681868BB68196866
:10398400BB685A68BB68DB6800F030FCFB681B68E6
:103994009A69FB681B6822F00C029A61FB681B6839
:1039A4009969BB689A68FB681B680A439A6160E07E
:1039B4007B68042B1CD1FB681868BB681968BB685A
:1039C4005A68BB68DB6800F0A8FCFB681B689A694E
:1039D400FB681B6822F440629A61FB681B68996962
:1039E400BB689B681A02FB681B680A439A6140E043
:1039F4007B68082B1BD1FB681868BB681968BB6817
:103A04005A68BB68DB6800F0F5FCFB681B68DA6980
:103A1400FB681B6822F00C02DA61FB681B68D96939
:103A2400BB689A68FB681B680A43DA6121E07B681B
:103A34000C2B1CD1FB681868BB681968BB685A68F2
:103A4400BB68DB6800F012FDFB681B68DA69FB6881
:103A54001B6822F44062DA61FB681B68D969BB68A1
:103A64009B681A02FB681B680A43DA6101E00123C0
:103A7400FB75FB68002283F83C20FB7D1846183751
:103A8400BD4680BD80B586B000AFF860B9607A608D
:103A94000023FB75FB6893F83C30012B01D1022312
:103AA400AEE0FB68012283F83C207B680C2B00F21B
:103AB4009F8001A252F823F0F13A0008F53B000878
:103AC400F53B0008F53B0008313B0008F53B0008D6
:103AD400F53B0008F53B0008733B0008F53B000884
:103AE400F53B0008F53B0008B33B0008FB681B6886
:103AF400B968184600F0EEF9FB681B689A69FB6820
:103B04001B6842F008029A61FB681B689A69FB68AB
:103B14001B6822F004029A61FB681B689969BB6800
:103B24001A69FB681B680A439A6164E0FB681B68B6
:103B3400B968184600F034FAFB681B689A69FB6898
:103B44001B6842F400629A61FB681B689A69FB680F
:103B54001B6822F480629A61FB681B689969BB68E0
:103B64001B691A02FB681B680A439A6143E0FB68FD
:103B74001B68B968184600F07FFAFB681B68DA69AD
:103B8400FB681B6842F00802DA61FB681B68DA69AB
:103B9400FB681B6822F00402DA61FB681B68D969C0
:103BA400BB681A69FB681B680A43DA6123E0FB6897
:103BB4001B68B968184600F0C9FAFB681B68DA6923
:103BC400FB681B6842F40062DA61FB681B68DA690F
:103BD400FB681B6822F48062DA61FB681B68D969A0
:103BE400BB681B691A02FB681B680A43DA6102E0BE
:103BF4000123FB7500BFFB68002283F83C20FB7D9A
:103C040018461837BD4680BD80B584B000AF7860D3
:103C140039600023FB737B6893F83C30012B01D19E
:103C24000223B4E07B68012283F83C207B680222F3
:103C340083F83D207B681B689B68BB60BB6823F0EE
:103C44007703BB60BB6823F47F43BB607B681B685E
:103C5400BA689A603B681B68B3F5005F3ED0B3F561
:103C6400005F00F28780B3F5805F00F08680B3F5D3
:103C7400805F7FD8702B1AD0702B7BD8602B50D0EC
:103C8400602B77D8502B3CD0502B73D8402B58D076
:103C9400402B6FD8302B64D0302B6BD8202B60D0C6
:103CA400202B67D8002B5CD0102B5AD062E07B68A5
:103CB40018683B6899683B685A683B68DB6800F0A1
:103CC4002DFC7B681B689B68BB60BB6843F0770373
:103CD400BB607B681B68BA689A604FE07B681868B1
:103CE4003B6899683B685A683B68DB6800F016FCDF
:103CF4007B681B689A687B681B6842F480429A6000
:103D04003CE07B6818683B6859683B68DB681A4686
:103D140000F0D4FA7B681B685021184600F0E3FBDE
:103D24002CE07B6818683B6859683B68DB681A4676
:103D340000F030FB7B681B686021184600F0D3FB61
:103D44001CE07B6818683B6859683B68DB681A4666
:103D540000F0B4FA7B681B684021184600F0C3FBEE
:103D64000CE07B681A683B681B681946104600F033
:103D7400BAFB03E00123FB7300E000BF7B68012270
:103D840083F83D207B68002283F83C20FB7B1846A7
:103D94001037BD4680BD80B483B000AF786000BFEB
:103DA4000C37BD465DF8047B704780B483B000AF28
:103DB400786000BF0C37BD465DF8047B704780B463
:103DC40083B000AF786000BF0C37BD465DF8047B5C
:103DD4007047000080B485B000AF786039607B68BC
:103DE4001B68FB607B68344A93420FD07B68B3F155
:103DF400804F0BD07B68314A934207D07B68304AAE
:103E0400934203D07B682F4A934208D1FB6823F086
:103E14007003FB603B685B68FA681343FB607B6874
:103E2400254A93421BD07B68B3F1804F17D07B683F
:103E3400224A934213D07B68214A93420FD07B6875
:103E4400204A93420BD07B681F4A934207D07B6879
:103E54001E4A934203D07B681D4A934208D1FB68F3
:103E640023F44073FB603B68DB68FA681343FB6030
:103E7400FB6823F080023B685B691343FB607B684B
:103E8400FA681A603B689A687B68DA623B681A6869
:103E94007B689A627B68084A934203D13B681A693B
:103EA4007B681A637B6801225A6100BF1437BD46E0
:103EB4005DF8047B704700BF00000140000400402F
:103EC40000080040000C0040004001400044014054
:103ED4000048014080B487B000AF786039607B68E7
:103EE4001B6A23F001027B681A627B681B6A7B6190
:103EF4007B685B683B617B689B69FB60FB6823F0C4
:103F04007003FB60FB6823F00303FB603B681B68E2
:103F1400FA681343FB607B6923F002037B613B680F
:103F24009B687A6913437B617B681C4A93420CD17A
:103F34007B6923F008037B613B68DB687A69134380
:103F44007B617B6923F004037B617B68134A9342A2
:103F540011D13B6923F480733B613B6923F4007303
:103F64003B613B685B693A6913433B613B689B690E
:103F74003A6913433B617B683A695A607B68FA6823
:103F84009A613B685A687B685A637B687A691A62EB
:103F940000BF1C37BD465DF8047B7047000001403C
:103FA40080B487B000AF786039607B681B6A23F007
:103FB40010027B681A627B681B6A7B617B685B68A2
:103FC4003B617B689B69FB60FB6823F4E043FB6017
:103FD400FB6823F44073FB603B681B681B02FA68B0
:103FE4001343FB607B6923F020037B613B689B6880
:103FF4001B017A6913437B617B681E4A93420DD18E
:104004007B6923F080037B613B68DB681B017A6971
:1040140013437B617B6923F040037B617B68154A12
:10402400934213D13B6923F480633B613B6923F4DE
:1040340000633B613B685B699B003A6913433B61E6
:104044003B689B699B003A6913433B617B683A690F
:104054005A607B68FA689A613B685A687B689A631D
:104064007B687A691A6200BF1C37BD465DF8047B21
:10407400704700BF0000014080B487B000AF786093
:1040840039607B681B6A23F480727B681A627B68E0
:104094001B6A7B617B685B683B617B68DB69FB60F7
:1040A400FB6823F07003FB60FB6823F00303FB60F1
:1040B4003B681B68FA681343FB607B6923F4007355
:1040C4007B613B689B681B027A6913437B617B6855
:1040D4001D4A93420DD17B6923F400637B613B68E5
:1040E400DB681B027A6913437B617B6923F4806379
:1040F4007B617B68144A934213D13B6923F4805358
:104104003B613B6923F400533B613B685B691B01E2
:104114003A6913433B613B689B691B013A6913434A
:104124003B617B683A695A607B68FA68DA613B688C
:104134005A687B68DA637B687A691A6200BF1C3745
:10414400BD465DF8047B70470000014080B487B031
:1041540000AF786039607B681B6A23F480527B6807
:104164001A627B681B6A3B617B685B687B617B6866
:10417400DB69FB60FB6823F4E043FB60FB6823F42A
:104184004073FB603B681B681B02FA681343FB60C7
:104194003B6923F400533B613B689B681B033A690A
:1041A40013433B617B68104A934209D17B6923F432
:1041B40080437B613B685B699B017A6913437B6144
:1041C4007B687A695A607B68FA68DA613B685A6886
:1041D4007B681A647B683A691A6200BF1C37BD4663
:1041E4005DF8047B704700BF0000014080B487B0D5
:1041F40000AFF860B9607A603B60FB681B6A23F02B
:104204000102FB681A62FB689B697B61FB681B6A9D
:104214003B61FB68244A934213D0FB68B3F1804F9F
:104224000FD0FB68214A93420BD0FB68204A93428B
:1042340007D0FB681F4A934203D0FB681E4A93428F
:1042440001D1012300E00023002B08D07B6923F077
:1042540003037B617A697B6813437B6103E07B69B9
:1042640043F001037B617B6923F0F0037B613B68CE
:104274001B01DBB27A6913437B613B6923F00A03B8
:104284003B61BB6803F00A033A6913433B61FB6873
:104294007A699A61FB683A691A6200BF1C37BD46A5
:1042A4005DF8047B704700BF00000140000400403B
:1042B40000080040000C00400040014080B487B07A
:1042C40000AFF860B9607A60FB681B6A7B61FB68C9
:1042D4001B6A23F00102FB681A62FB689B693B615D
:1042E4003B6923F0F0033B617B681B013A6913438C
:1042F4003B617B6923F00A037B617A69BB681343E2
:104304007B61FB683A699A61FB687A691A6200BF4B
:104314001C37BD465DF8047B704780B487B000AF9E
:10432400F860B9607A603B60FB681B6A23F0100296
:10433400FB681A62FB689B697B61FB681B6A3B61D3
:104344007B6923F440737B617B681B027A691343A6
:104354007B617B6923F470437B613B681B039BB2E5
:104364007A6913437B613B6923F0A0033B61BB681B
:104374001B0103F0A0033A6913433B61FB687A69AC
:104384009A61FB683A691A6200BF1C37BD465DF842
:10439400047B704780B487B000AFF860B9607A607E
:1043A400FB681B6A23F01002FB681A62FB689B69B6
:1043B4007B61FB681B6A3B617B6923F470437B610F
:1043C4007B681B037A6913437B613B6923F0A00379
:1043D4003B61BB681B013A6913433B61FB687A6923
:1043E4009A61FB683A691A6200BF1C37BD465DF8E2
:1043F400047B704780B487B000AFF860B9607A601E
:104404003B60FB681B6A23F48072FB681A62FB68DA
:10441400DB697B61FB681B6A3B617B6923F00303F7
:104424007B617A697B6813437B617B6923F0F003CA
:104434007B613B681B01DBB27A6913437B613B6997
:1044440023F420633B61BB681B0203F420633A69D5
:1044540013433B61FB687A69DA61FB683A691A6263
:1044640000BF1C37BD465DF8047B704780B487B03D
:1044740000AFF860B9607A603B60FB681B6A23F4A4
:104484008052FB681A62FB68DB697B61FB681B6A0C
:104494003B617B6923F440737B617B681B027A690F
:1044A40013437B617B6923F470437B613B681B038B
:1044B4009BB27A6913437B613B6923F420433B61DC
:1044C400BB681B0303F420433A6913433B61FB6855
:1044D4007A69DA61FB683A691A6200BF1C37BD4623
:1044E4005DF8047B704780B485B000AF78603960B4
:1044F4007B689B68FB60FB6823F07003FB603A6891
:10450400FB68134343F00703FB607B68FA689A6017
:1045140000BF1437BD465DF8047B704780B487B094
:1045240000AFF860B9607A603B60FB689B687B61B0
:104534007B6923F47F437B613B681A027B681A43DF
:10454400BB6813437A6913437B61FB687A699A6099
:1045540000BF1C37BD465DF8047B704780B487B04C
:1045640000AFF860B9607A60BB6803F01F030122F2
:1045740002FA03F37B61FB681A6A7B69DB431A4026
:10458400FB681A62FB681A6ABB6803F01F03796848
:1045940001FA03F31A43FB681A6200BF1C37BD46D5
:1045A4005DF8047B7047000080B485B000AF78608C
:1045B40039607B6893F83C30012B01D1022350E031
:1045C4007B68012283F83C207B68022283F83D202B
:1045D4007B681B685B68FB607B681B689B68BB60CF
:1045E400FB6823F07003FB603B681B68FA681343A5
:1045F400FB607B681B68FA685A607B681B681C4A0E
:10460400934218D07B681B68B3F1804F13D07B684A
:104614001B68184A93420ED07B681B68164A934263
:1046240009D07B681B68154A934204D07B681B68D9
:10463400134A93420CD1BB6823F08003BB603B68F0
:104644005B68BA681343BB607B681B68BA689A608E
:104654007B68012283F83D207B68002283F83C209C
:10466400002318461437BD465DF8047B704700BF2D
:10467400000001400004004000080040000C00401D
:104684000040014080B483B000AF786000BF0C37B5
:10469400BD465DF8047B704780B483B000AF78609A
:1046A40000BF0C37BD465DF8047B704784B080B50D
:1046B40084B000AF786007F11C0080E80E003B6B0B
:1046C400012B22D17B689B6B23F480327B689A6335
:1046D4007B68DB6823F4840323F040037A68D360A7
:1046E4007B68DB6823F440127B68DA60FB6C012B87
:1046F40005D17B68DB6843F480127B68DA607868F4
:1047040001F0EEFB0346FB731AE07B68DB6843F0C1
:1047140040027B68DA60786801F0E2FB0346FB73D1
:104724003B6C002B06D17B689B6B43F480327B6827
:104734009A6305E07B689B6B23F480327B689A6301
:10474400BB6A012B0BD17B689B6843F006027B6834
:104754009A607B689B6843F020027B689A60FB7BCD
:1047640018461037BD46BDE8804004B070470000CD
:1047740080B487B000AFF860B9601346FB71FB7971
:10478400022B65D1BB68414A934206D9BB68404AB3
:10479400934202D20F237B6162E0BB683C4A93429E
:1047A40006D3BB683B4A934202D20E237B6157E097
:1047B400BB68384A934206D3BB68374A934202D255
:1047C4000D237B614CE0BB68334A934206D3BB683C
:1047D400324A934202D80C237B6141E0BB682F4AE2
:1047E400934206D9BB682E4A934202D80B237B61BD
:1047F40036E0BB682A4A934206D9BB68294A9342E9
:1048040002D80A237B612BE0BB68264A934206D96F
:10481400BB68254A934202D209237B6120E0BB682E
:10482400214A934206D3BB68204A934202D8082304
:104834007B6115E0BB681D4A934206D9BB681C4ADC
:10484400934202D207237B610AE006237B6107E0DF
:10485400FB79002B02D109237B6101E009237B61F1
:10486400FB68DB6823F47052FB68DA60FB68DA6883
:104874007B699B0203F470531A43FB68DA600023DC
:1048840018461C37BD465DF8047B7047BFACD800A2
:10489400C0E1E4000024F400807306019F491A017A
:1048A400FF2C31013FA44C0100366E011FABA60161
:1048B4000048E80180B483B000AF78607B689B68EF
:1048C40043F001027B689A60002318460C37BD460A
:1048D4005DF8047B704780B483B000AF78607B6878
:1048E4009B6823F001027B689A60002318460C370A
:1048F400BD465DF8047B704780B584B000AF786036
:104904000B46FB700023FB607B68DB6823F0C0422E
:104914007B68DA60FB78012B15D17B68DB6843F098
:1049240000527B68DA600120FCF770FAFB680133FF
:10493400FB60786801F045FA0346012B1ED0FB6842
:10494400312BF0D91AE0FB78002B15D17B68DB689A
:1049540043F080427B68DA600120FCF757FAFB6879
:104964000133FB60786801F02CFA0346002B05D074
:10497400FB68312BF0D901E0012305E0FB68322B01
:1049840001D1012300E0002318461037BD4680BD45
:1049940084B080B586B000AF786007F1240080E869
:1049A4000E000023FB757B68FB6000233B6109E07C
:1049B4007A683B6940339B00134400225A603B6988
:1049C40001333B613B690E2BF2D9FB6C002B1CD1EC
:1049D400FB6803F500635B68FA6802F5006243F064
:1049E400020353607B689B6B43F400127B689A63F9
:1049F4007B689B6B23F400227B689A637B689B6BC8
:104A040023F480227B689A630BE07B689B6B23F41E
:104A140000127B689A637B689B6B43F400227B687B
:104A24009A63FB6803F560631A4600231360FB680E
:104A340003F500631946FB6803F500631A460B6827
:104A44001360BB6B012B0CD1FB6A002B04D100213A
:104A5400786800F065F908E00121786800F060F9F1
:104A640003E00321786800F05BF91021786800F016
:104A7400F3F80346002B01D00123FB75786800F09E
:104A84001FF90346002B01D00123FB75FB6803F5D6
:104A940000631A4600231361FB6803F500631A469A
:104AA40000235361FB6803F500631A460023D361B6
:104AB40000233B6143E03B695A01FB68134403F55F
:104AC40010631B6803F00043B3F1004F18D13B6936
:104AD400002B0AD13B695A01FB68134403F51063A8
:104AE4001A464FF00063136013E03B695A01FB68F8
:104AF400134403F510631A464FF09043136008E023
:104B04003B695A01FB68134403F510631A460023FA
:104B140013603B695A01FB68134403F510631A469A
:104B2400002313613B695A01FB68134403F51063C6
:104B34001A464FF67F3393603B6901333B617B6ACE
:104B44003A699A42B7D300233B6143E03B695A0177
:104B5400FB68134403F530631B6803F00043B3F1AF
:104B6400004F18D13B69002B0AD13B695A01FB68FD
:104B7400134403F530631A464FF00063136013E0E7
:104B84003B695A01FB68134403F530631A464FF03E
:104B94009043136008E03B695A01FB68134403F532
:104BA40030631A46002313603B695A01FB681344BF
:104BB40003F530631A46002313613B695A01FB680D
:104BC400134403F530631A464FF67F3393603B6911
:104BD40001333B617B6A3A699A42B7D3FB6803F5B8
:104BE40000631B69FA6802F5006223F480731361A1
:104BF4007B6800229A617B686FF080425A613B6B4C
:104C0400002B05D17B689B6943F010027B689A6195
:104C14007B689A690F4B13437A689361FB6B002B93
:104C240005D07B689B6943F008027B689A61FB6C42
:104C3400012B07D17B689B6943F0804343F0040355
:104C44007A689361FB7D18461837BD46BDE88040FD
:104C540004B0704700383C8080B485B000AF786001
:104C640039600023FB60FB680133FB60FB68134A77
:104C7400934201D903231BE07B681B69002BF2DA02
:104C84000023FB603B689B0143F020027B681A61B0
:104C9400FB680133FB60FB68084A934201D9032394
:104CA40006E07B681B6903F02003202BF0D000236F
:104CB40018461437BD465DF8047B7047400D030069
:104CC40080B485B000AF78600023FB60FB680133DB
:104CD400FB60FB68114A934201D9032318E07B6807
:104CE4001B69002BF2DA0023FB607B6810221A6137
:104CF400FB680133FB60FB68084A934201D9032334
:104D040006E07B681B6903F01003102BF0D000232E
:104D140018461437BD465DF8047B7047400D030008
:104D240080B485B000AF78600B46FB707B68FB6095
:104D3400FB6803F500631A68FB78F96801F5006104
:104D440013430B60002318461437BD465DF8047BFB
:104D5400704780B487B000AF78607B683B613B6983
:104D640003F500639B6803F00603FB60FB68002BFC
:104D740002D10023FB750AE0FB68022B02D0FB681A
:104D8400062B02D10223FB7501E00F23FB75FB7D8B
:104D940018461C37BD465DF8047B704780B485B067
:104DA40000AF786039607B68FB603B681B78BB6050
:104DB4003B685B78012B3AD1FB6803F50063DA6941
:104DC4003B681B7803F00F03012101FA03F39BB244
:104DD400F96801F500611343CB61BB685A01FB68B4
:104DE400134403F510631B6803F40043002B55D1EF
:104DF400BB685A01FB68134403F510631A683B68E7
:104E0400DB68C3F30A013B681B799B041943BB6845
:104E14009B050B431343BA685101FA680A4402F52F
:104E2400106243F0805343F40043136036E0FB68A0
:104E340003F50063DA693B681B7803F00F03012173
:104E440001FA03F31B04F96801F500611343CB6114
:104E5400BB685A01FB68134403F530631B6803F411
:104E64000043002B1AD1BB685A01FB68134403F5B5
:104E740030631A683B68DB68C3F30A013B681B793B
:104E84009B040B431343BA685101FA680A4402F5C0
:104E9400306243F0805343F4004313600023184608
:104EA4001437BD465DF8047B7047000080B485B0BC
:104EB40000AF786039607B68FB603B681B78BB603F
:104EC4003B685B78012B61D1BB685A01FB681344D2
:104ED40003F510631B6803F00043B3F1004F1FD1C7
:104EE400BB685A01FB68134403F510631B68BA6876
:104EF4005101FA680A4402F5106243F0006313603A
:104F0400BB685A01FB68134403F510631B68BA6855
:104F14005101FA680A4402F5106243F080431360B9
:104F2400FB6803F50063DA6B3B681B7803F00F033F
:104F3400012101FA03F39BB2DB43F96801F5006137
:104F44001340CB63FB6803F50063DA693B681B78A5
:104F540003F00F03012101FA03F39BB2DB43F96869
:104F640001F500611340CB61BB685A01FB6813442F
:104F740003F510631A68BB685901FB680B4403F519
:104F840010631946354B13400B6060E0BB685A014F
:104F9400FB68134403F530631B6803F00043B3F16B
:104FA400004F1FD1BB685A01FB68134403F53063FB
:104FB4001B68BA685101FA680A4402F5306243F08A
:104FC40000631360BB685A01FB68134403F5306344
:104FD4001B68BA685101FA680A4402F5306243F06A
:104FE40080431360FB6803F50063DA6B3B681B784E
:104FF40003F00F03012101FA03F31B04DB43F968F7
:1050040001F500611340CB63FB6803F50063DA69C3
:105014003B681B7803F00F03012101FA03F31B041F
:10502400DB43F96801F500611340CB61BB685A01A9
:10503400FB68134403F530631A68BB685901FB68C5
:105044000B4403F530631946054B13400B600023F2
:1050540018461437BD465DF8047B7047007833EC7E
:105064000078F3EF80B58AB002AFF860B9601346F8
:10507400FB71FB68FB61BB681B78BB61BB685B7839
:10508400012B40F05C81BB689B69002B32D1BB696A
:105094005A01FB69134403F510631B69BA69510192
:1050A400FA690A4402F5106223F0FF5323F4C01393
:1050B4001361BB695A01FB69134403F510631B694F
:1050C400BA695101FA690A4402F5106243F40023F3
:1050D4001361BB695A01FB69134403F510631B692F
:1050E400BA695101FA690A4402F51062DB0CDB0467
:1050F400136174E0BB695A01FB69134403F510633F
:105104001B69BA695101FA690A4402F51062DB0CA1
:10511400DB041361BB695A01FB69134403F5106393
:105124001B69BA695101FA690A4402F5106223F055
:10513400FF5323F4C0131361BB695A01FB69134481
:1051440003F510631A69BB689969BB68DB680B4493
:10515400591EBB68DB68B1FBF3F3D9049D4B0B40CC
:10516400B9694801F969014401F5106113430B6100
:10517400BB695A01FB69134403F510631A69BB68E0
:105184009B69C3F31203B9694801F969014401F544
:10519400106113430B61BB681B79012B1FD1BB69E1
:1051A4005A01FB69134403F510631B69BA69510181
:1051B400FA690A4402F5106223F0C0431361BB6923
:1051C4005A01FB69134403F510631B69BA69510161
:1051D400FA690A4402F5106243F000531361FB7943
:1051E400012B4BD1BB685B69002B09D0BB695A0109
:1051F400FB69134403F510631A46BB685B6953618A
:10520400BB681B79012B28D1FB6903F500639B68FC
:1052140003F48073002B10D1BB695A01FB6913445A
:1052240003F510631B68BA695101FA690A4402F56F
:10523400106243F0005313600FE0BB695A01FB692D
:10524400134403F510631B68BA695101FA690A44EF
:1052540002F5106243F080531360BB695A01FB6985
:10526400134403F510631B68BA695101FA690A44CF
:1052740002F5106243F00443136033E1BB695A0141
:10528400FB69134403F510631B68BA695101FA6999
:105294000A4402F5106243F004431360BB681B79AF
:1052A400012B15D0BB689B69002B00F01B81FB69A7
:1052B40003F500635A6BBB681B7803F00F030121ED
:1052C40001FA03F3F96901F5006113434B6309E142
:1052D400FB6903F500639B6803F48073002B10D112
:1052E400BB695A01FB69134403F510631B68BA696F
:1052F4005101FA690A4402F5106243F00053136045
:105304000FE0BB695A01FB69134403F510631B6882
:10531400BA695101FA690A4402F5106243F08053F4
:105324001360BB681969BB681A78BB689B6998B23B
:10533400FB7900930346F86800F0DEFAD2E0BB691B
:105344005A01FB69134403F530631B69BA695101BF
:10535400FA690A4402F53062DB0CDB041361BB69B1
:105364005A01FB69134403F530631B69BA6951019F
:10537400FA690A4402F5306223F0FF5323F4C013A0
:105384001361BB689B69002B26D1BB695A01FB6979
:10539400134403F530631A69BB68DB68C3F3120373
:1053A400B9694801F969014401F5306113430B619E
:1053B400BB695A01FB69134403F530631B69BA697D
:1053C4005101FA690A4402F5306243F4002313617F
:1053D4003AE000BF0000F81FBB689A69BB68DB684D
:1053E40013445A1EBB68DB68B2FBF3F3FB82BB6851
:1053F400DB68FA8A03FB02F2BB68DA61BB695A0113
:10540400FB69134403F530631A69FB8AD904384BEA
:105414000B40B9694801F969014401F5306113434E
:105424000B61BB695A01FB69134403F530631A69C4
:10543400BB68DB69C3F31203B9694801F969014424
:1054440001F5306113430B61FB79012B0DD1BB686E
:105454001B69002B09D0BB681969BB695A01FB6938
:10546400134403F530630A465A61BB681B79012B68
:1054740028D1FB6903F500639B6803F48073002B58
:1054840010D1BB695A01FB69134403F530631B68EF
:10549400BA695101FA690A4402F5306243F00053D3
:1054A40013600FE0BB695A01FB69134403F53063D1
:1054B4001B68BA695101FA690A4402F5306243F083
:1054C40080531360BB695A01FB69134403F53063CD
:1054D4001B68BA695101FA690A4402F5306243F063
:1054E40004431360002318462037BD4680BD00BF27
:1054F4000000F81F80B487B000AFF860B9601346AD
:10550400FB71FB687B61BB681B783B61BB685B78A4
:10551400012B40F0CE80BB689B69002B32D13B69E4
:105524005A017B69134403F510631B693A695101FD
:105534007A690A4402F5106223F0FF5323F4C0137E
:1055440013613B695A017B69134403F510631B69BA
:105554003A6951017A690A4402F5106243F400235E
:1055640013613B695A017B69134403F510631B699A
:105574003A6951017A690A4402F51062DB0CDB04D2
:1055840013614EE03B695A017B69134403F51063D0
:105594001B693A6951017A690A4402F51062DB0C0D
:1055A400DB0413613B695A017B69134403F51063FF
:1055B4001B693A6951017A690A4402F5106223F0C1
:1055C400FF5323F4C0131361BB689A69BB68DB689B
:1055D4009A4203D9BB68DA68BB689A613B695A018D
:1055E4007B69134403F510631B693A6951017A69B5
:1055F4000A4402F5106243F4002313613B695A0123
:105604007B69134403F510631A69BB689B69C3F390
:105614001203396948017969014401F510611343A2
:105624000B61FB79012B1ED1BB685B69002B09D090
:105634003B695A017B69134403F510631A46BB683E
:105644005B6953613B695A017B69134403F5106339
:105654001B683A6951017A690A4402F5106243F001
:105664000443136097E03B695A017B69134403F5D3
:1056740010631B683A6951017A690A4402F51062A1
:1056840043F004431360BB689B69002B00F08380E4
:105694007B6903F500635A6BBB681B7803F00F0347
:1056A400012101FA03F3796901F5006113434B63A6
:1056B40071E03B695A017B69134403F530631B694C
:1056C4003A6951017A690A4402F53062DB0CDB0461
:1056D40013613B695A017B69134403F530631B6909
:1056E4003A6951017A690A4402F5306223F0FF53A2
:1056F40023F4C0131361BB689B69002B03D0BB6800
:10570400DA68BB689A61BB68DA68BB68DA613B69CE
:105714005A017B69134403F530631B693A695101EB
:105724007A690A4402F5306243F4002313613B6949
:105734005A017B69134403F530631A69BB68DB695A
:10574400C3F31203396948017969014401F53061F1
:1057540013430B61FB79012B0DD1BB681B69002B33
:1057640009D0BB6819693B695A017B69134403F585
:1057740030630A465A613B695A017B69134403F555
:1057840030631B683A6951017A690A4402F5306250
:1057940043F004431360002318461C37BD465DF8EC
:1057A400047B704780B487B000AF78603960002311
:1057B400FB600023FB757B683B613B685B78012BD6
:1057C4004AD13B681B785A013B69134403F51063C3
:1057D4001B6803F00043B3F1004F40F086803B6840
:1057E4001B785A013B69134403F510631B683A683C
:1057F400127851013A690A4402F5106243F00063D9
:1058040013603B681B785A013B69134403F510632A
:105814001B683A68127851013A690A4402F5106229
:1058240043F080431360FB680133FB60FB6842F282
:105834001072934202D90123FB7556E03B681B7832
:105844005A013B69134403F510631B6803F00043DA
:10585400B3F1004FE7D048E03B681B785A013B693D
:10586400134403F530631B6803F00043B3F1004FA6
:105874003BD13B681B785A013B69134403F5306301
:105884001B683A68127851013A690A4402F5306299
:1058940043F0006313603B681B785A013B6913446F
:1058A40003F530631B683A68127851013A690A4477
:1058B40002F5306243F080431360FB680133FB6000
:1058C400FB6842F21072934202D90123FB750CE08B
:1058D4003B681B785A013B69134403F530631B682A
:1058E40003F00043B3F1004FE7D0FB7D18461C37AB
:1058F400BD465DF8047B704780B489B000AFF860A2
:10590400B96011461A460B46FB711346BB80FB680F
:105914007B61BB68FB6197F82830002B23D1BB88DF
:1059240003339B083B610023BB6118E0FB791A0336
:105934007B69134403F580531A46FB691B681360A3
:10594400FB690133FB61FB690133FB61FB690133D3
:10595400FB61FB690133FB61BB690133BB61BA695C
:105964003B699A42E2D3002318462437BD465DF8CA
:10597400047B704780B48BB000AFF860B960134605
:10598400FB80FB68BB61BB687B62FB889B089BB2A6
:105994007B61FB8803F00303FB8300233B6214E079
:1059A400BB6903F580531A687B6A1A607B6A01330A
:1059B4007B627B6A01337B627B6A01337B627B6A35
:1059C40001337B623B6A01333B623A6A7B699A42E8
:1059D400E6D3FB8B002B1ED000233B62BB6903F58F
:1059E40080531A4607F1100312681A603A693B6A39
:1059F400DBB2DB0022FA03F3DAB27B6A1A703B6A89
:105A040001333B627B6A01337B62FB8B013BFB838B
:105A1400FB8B002BEAD17B6A18462C37BD465DF818
:105A2400047B704780B485B000AF786039607B68D0
:105A3400FB603B681B78BB603B685B78012B2CD117
:105A4400BB685A01FB68134403F510631B68002B01
:105A540012DBBB68002B0FD0BB685A01FB681344F0
:105A640003F510631B68BA685101FA680A4402F529
:105A7400106223F080431360BB685A01FB6813442F
:105A840003F510631B68BA685101FA680A4402F509
:105A9400106243F4001313602BE0BB685A01FB68E7
:105AA400134403F530631B68002B12DBBB68002B27
:105AB4000FD0BB685A01FB68134403F530631B68BD
:105AC400BA685101FA680A4402F5306223F080434F
