:020000040800F2
:100000000000012001070008750600087B060008B3
:1000100081060008870600088D0600080000000021
:10002000000000000000000000000000930600082F
:10003000A106000800000000AF060008BD06000889
:100040005107000851070008510700085107000830
:100050005107000851070008510700085107000820
:100060005107000851070008510700085107000810
:100070005107000851070008510700085107000800
:100080005107000851070008510700080000000050
:100090000000000000000000000000005107000800
:1000A00051070008510700085107000851070008D0
:1000B00051070008510700085107000851070008C0
:1000C00051070008510700085107000851070008B0
:1000D0005107000851070008510700080000000000
:1000E00051070008510700085107000800000000F0
:1000F00000000000000000000000000051070008A0
:1001000000000000510700085107000851070008CF
:1001100000000000000000000000000000000000DF
:10012000510700085107000851070008510700084F
:10013000510700080000000000000000000000005F
:10014000000000000000000000000000C9060008D8
:10015000510700085107000851070008510700081F
:1001600051070008510700080000000000000000CF
:10017000000000000000000000000000000000007F
:10018000000000005107000800000000000000000F
:04019000510700080B
:1001940010B5054C237833B9044B13B10448AFF3BD
:1001A40000800123237010BDFC000020000000002B
:1001B400D46C000808B5034B1BB103490348AFF3E3
:1001C400008008BD0000000000010020D46C00087D
:1001D40053B94AB9002908BF00281CBF4FF0FF31AA
:1001E4004FF0FF3000F074B9ADF1080C6DE904CEA6
:1001F40000F006F8DDF804E0DDE9022304B07047FE
:100204002DE9F047089D04468E46002B4DD18A42C5
:10021400944669D9B2FA82F252B101FA02F3C2F1F8
:10022400200120FA01F10CFA02FC41EA030E944089
:100234004FEA1C48210CBEFBF8F61FFA8CF708FBAA
:1002440016E341EA034306FB07F199420AD91CEB82
:10025400030306F1FF3080F01F81994240F21C81B4
:10026400023E63445B1AA4B2B3FBF8F008FB1033FC
:1002740044EA034400FB07F7A7420AD91CEB040431
:1002840000F1FF3380F00A81A74240F20781644401
:10029400023840EA0640E41B00261DB1D440002386
:1002A400C5E900433146BDE8F0878B4209D9002DEA
:1002B40000F0EF800026C5E9000130463146BDE874
:1002C400F087B3FA83F6002E4AD18B4202D38242DE
:1002D40000F2F980841A61EB030301209E46002D8D
:1002E400E0D0C5E9004EDDE702B9FFDEB2FA82F2E2
:1002F400002A40F09280A1EB0C014FEA1C471FFA40
:100304008CFE0126200CB1FBF7F307FB131140EA26
:1003140001410EFB03F0884208D91CEB010103F1F3
:10032400FF3802D2884200F2CB804346091AA4B2B5
:10033400B1FBF7F007FB101144EA01440EFB00FE89
:10034400A64508D91CEB040400F1FF3102D2A645EE
:1003540000F2BB800846A4EB0E0440EA03409CE78D
:10036400C6F12007B34022FA07FC4CEA030C20FA3A
:1003740007F401FA06F31C43F9404FEA1C4900FA5A
:1003840006F3B1FBF9F8200C1FFA8CFE09FB1811D7
:1003940040EA014108FB0EF0884202FA06F20BD94A
:1003A4001CEB010108F1FF3A80F08880884240F29A
:1003B4008580A8F102086144091AA4B2B1FBF9F0DE
:1003C40009FB101144EA014100FB0EFE8E4508D9D9
:1003D4001CEB010100F1FF346CD28E456AD902385E
:1003E400614440EA0840A0FB0294A1EB0E01A14243
:1003F400C846A64656D353D05DB1B3EB080261EBB1
:100404000E0101FA07F722FA06F3F1401F43C5E98A
:10041400007100263146BDE8F087C2F12003D840C0
:100424000CFA02FC21FA03F3914001434FEA1C4702
:100434001FFA8CFEB3FBF7F007FB10360B0C43EAF4
:10044400064300FB0EF69E4204FA02F408D91CEBA4
:10045400030300F1FF382FD29E422DD902386344A2
:100464009B1B89B2B3FBF7F607FB163341EA034142
:1004740006FB0EF38B4208D91CEB010106F1FF3891
:1004840016D28B4214D9023E6144C91A46EA004688
:1004940038E72E46284605E70646E3E61846F8E61A
:1004A4004B45A9D2B9EB020864EB0C0E0138A3E763
:1004B4004646EAE7204694E74046D1E7D0467BE744
:1004C400023B614432E7304609E76444023842E7BC
:1004D400704700BF80B500AF00F03AF900F006F8AD
:1004E40000F070F805F0DEFEFEE7000080B594B081
:1004F40000AF07F1200330220021184606F0E0FB8C
:1005040007F10C0300221A605A609A60DA601A61DB
:100514000023BB60294B1B6C284A43F080531364AF
:10052400264B1B6C03F08053BB60BB6800237B60CD
:10053400234B1B6823F44043214A43F400431360D4
:100544001F4B1B6803F440437B607B6801233B62C1
:100554004FF480337B620223BB634FF48003FB635D
:1005640019233B644FF4A8737B640423BB640723FF
:10057400FB6407F12003184601F094FE0346002BA8
:1005840001D000F047F80F23FB6002233B610023F6
:100594007B614FF48053BB610023FB6107F10C03C3
:1005A4000221184602F0F6F80346002B01D000F0B1
:1005B40031F800BF5037BD4680BD00BF003802404F
:1005C4000070004080B483B000AF00237B60104B08
:1005D4001B6B0F4A43F0800313630D4B1B6B03F03B
:1005E40080037B607B6800233B60094B1B6B084ADC
:1005F40043F001031363064B1B6B03F001033B60E1
:100604003B6800BF0C37BD465DF8047B704700BFF4
:100614000038024080B400AF72B600BFFEE70000AD
:1006240080B483B000AF00237B60104B5B6C0F4A37
:1006340043F4804353640D4B5B6C03F480437B6051
:100644007B6800233B60094B1B6C084A43F08053D2
:100654001364064B1B6C03F080533B603B6800BF84
:100664000C37BD465DF8047B704700BF003802407C
:1006740080B400AFFEE780B400AFFEE780B400AF03
:10068400FEE780B400AFFEE780B400AFFEE780B4BD
:1006940000AF00BFBD465DF8047B704780B400AF77
:1006A40000BFBD465DF8047B704780B400AF00BF57
:1006B400BD465DF8047B704780B500AF00F09AF842
:1006C40000BF80BD80B500AF024800F0BDFC00BF94
:1006D40080BD00BFCC0D002080B400AF064BD3F822
:1006E4008830054A43F47003C2F8883000BFBD4621
:1006F4005DF8047B704700BF00ED00E0DFF834D004
:100704000D480E490E4A002302E0D458C450043365
:10071400C4188C42F9D30B4A0B4C002301E013603C
:100724000432A242FBD3FFF7D7FF06F0A5FAFFF786
:10073400D1FE70470000012000000020FC000020D2
:10074400546D0008FC000020F8140020FEE70000AF
:1007540080B500AF0E4B1B680D4A43F40073136061
:100764000B4B1B680A4A43F480631360084B1B68F5
:10077400074A43F480731360032000F04FF90F20FD
:1007840000F008F8FFF74CFF0023184680BD00BFB7
:10079400003C024080B582B000AF7860124B1A680A
:1007A400124B1B7819464FF47A73B3FBF1F3B2FB87
:1007B400F3F3184600F067F90346002B01D0012338
:1007C4000EE07B680F2B0AD8002279684FF0FF30C7
:1007D40000F02FF9064A7B681360002300E0012330
:1007E40018460837BD4680BD0000002008000020E0
:1007F4000400002080B400AF064B1B781A46064B59
:100804001B681344044A136000BFBD465DF8047BB3
:10081400704700BF080000201801002080B400AF1A
:10082400034B1B681846BD465DF8047B704700BF48
:100834001801002080B584B000AF7860FFF7EEFFA8
:10084400B8607B68FB60FB68B3F1FF3F05D00A4BDF
:100854001B781A46FB681344FB6000BFFFF7DEFFFA
:100864000246BB68D31AFA689A42F7D800BF00BFA1
:100874001037BD4680BD00BF0800002080B485B09D
:1008840000AF78607B6803F00703FB600C4BDB6808
:10089400BB60BA684FF6FF031340BB60FB681A02E3
:1008A400BB68134343F0BF6343F40033BB60044AA3
:1008B400BB68D36000BF1437BD465DF8047B704746
:1008C40000ED00E080B400AF044BDB681B0A03F0CA
:1008D40007031846BD465DF8047B704700ED00E051
:1008E40080B483B000AF0346FB7197F90730002B47
:1008F4000BDBFB7903F01F02074997F907305B090B
:10090400012000FA02F241F8232000BF0C37BD4653
:100914005DF8047B704700BF00E100E080B483B061
:1009240000AF03463960FB7197F90730002B0ADBEF
:100934003B68DAB20C4997F907301201D2B20B4482
:1009440083F800230AE03B68DAB20849FB7903F034
:100954000F03043B1201D2B20B441A7600BF0C37CA
:10096400BD465DF8047B704700E100E000ED00E067
:1009740080B489B000AFF860B9607A60FB6803F0B6
:100984000703FB61FB69C3F10703042B28BF04239E
:10099400BB61FB690433062B02D9FB69033B00E00E
:1009A40000237B614FF0FF32BB6902FA03F3DA43A1
:1009B400BB681A407B699A404FF0FF317B6901FAAA
:1009C40003F3D9437B680B40134318462437BD46D1
:1009D4005DF8047B7047000080B582B000AF78609A
:1009E4007B68013BB3F1807F01D301230FE00A4A06
:1009F4007B68013B53600F214FF0FF30FFF78EFF00
:100A0400054B00229A60044B07221A600023184603
:100A14000837BD4680BD00BF10E000E080B582B05D
:100A240000AF78607868FFF729FF00BF0837BD463C
:100A340080BD80B586B000AF0346B9607A60FB73B1
:100A440000237B61FFF73EFF78617A68B9687869B3
:100A5400FFF78EFF024697F90F3011461846FFF74D
:100A64005DFF00BF1837BD4680BD80B582B000AFC2
:100A74000346FB7197F907301846FFF731FF00BFB3
:100A84000837BD4680BD80B582B000AF7860786815
:100A9400FFF7A2FF034618460837BD4680BD000095
:100AA40080B489B000AF7860396000237B61002393
:100AB4003B610023BB610023FB6159E10122FB6917
:100AC40002FA03F37B613B681B687A6913403B615C
:100AD4003A697B699A4240F048813B685B6803F05D
:100AE4000303012B05D03B685B6803F00303022B6F
:100AF40030D17B689B68BB61FB695B00032202FA0F
:100B040003F3DB43BA691340BB613B68DA68FB69F2
:100B14005B0002FA03F3BA691343BB617B68BA69E9
:100B24009A607B685B68BB610122FB6902FA03F38C
:100B3400DB43BA691340BB613B685B681B0903F084
:100B44000102FB6902FA03F3BA691343BB617B68D0
:100B5400BA695A603B685B6803F00303032B17D040
:100B64007B68DB68BB61FB695B00032202FA03F369
:100B7400DB43BA691340BB613B689A68FB695B005D
:100B840002FA03F3BA691343BB617B68BA69DA609A
:100B94003B685B6803F00303022B23D1FB69DA088B
:100BA4007B68083253F82230BB61FB6903F007030A
:100BB4009B000F2202FA03F3DB43BA691340BB61C3
:100BC4003B681A69FB6903F007039B0002FA03F30D
:100BD400BA691343BB61FB69DA087B680832B969F7
:100BE40043F822107B681B68BB61FB695B0003222E
:100BF40002FA03F3DB43BA691340BB613B685B68E9
:100C040003F00302FB695B0002FA03F3BA691343BE
:100C1400BB617B68BA691A603B685B6803F4403364
:100C2400002B00F0A2800023FB60574B5B6C564AFC
:100C340043F480435364544B5B6C03F48043FB6084
:100C4400FB68524AFB699B08023352F82330BB61AC
:100C5400FB6903F003039B000F2202FA03F3DB4357
:100C6400BA691340BB617B68494A934219D07B68D7
:100C7400484A934213D07B68474A93420DD07B681D
:100C8400464A934207D07B68454A934201D10423E4
:100C940008E0072306E0032304E0022302E0012323
:100CA40000E00023FA6902F0030292009340BA695B
:100CB4001343BB613549FB699B080233BA6941F8A8
:100CC4002320384B9B68BB613B69DB43BA69134003
:100CD400BB613B685B6803F48013002B03D0BA69E3
:100CE4003B691343BB612F4ABB6993602D4BDB689F
:100CF400BB613B69DB43BA691340BB613B685B681A
:100D040003F40013002B03D0BA693B691343BB619E
:100D1400244ABB69D360234B5B68BB613B69DB43FB
:100D2400BA691340BB613B685B6803F40033002B72
:100D340003D0BA693B691343BB611A4ABB69536068
:100D4400184B1B68BB613B69DB43BA691340BB6149
:100D54003B685B6803F48033002B03D0BA693B69BA
:100D64001343BB610F4ABB691360FB690133FB6129
:100D7400FB690F2B7FF6A2AE00BF00BF2437BD4630
:100D84005DF8047B704700BF003802400038014022
:100D9400000002400004024000080240000C02402F
:100DA40000100240003C0140F0B58FB00AAF7860FB
:100DB4007B68002B01D101230FE17B681B68BB60BA
:100DC4007B6893F8BD34DBB2002B06D17B6800222C
:100DD40083F8BC24786805F045FC7B68032283F81B
:100DE400BD24BB68DB6B03F48073002B02D17B68EA
:100DF40000221A617B681B68184601F098FF7B6823
:100E04001B683B607E686D4606F110040FCC0FC56D
:100E14000FCC0FC594E8030085E80300331D0ECB07
:100E2400386801F06FFE0346002B05D07B68022270
:100E340083F8BD240123D0E07B681B680021184699
:100E440001F086FF0023FB734AE0FA7B79681346BE
:100E5400DB0013449B000B443D3301221A70FA7BE0
:100E640079681346DB0013449B000B443C33FA7B44
:100E74001A70FA7BFB7B98B279681346DB00134443
:100E84009B000B44443302461A80FA7B796813466C
:100E9400DB0013449B000B44403300221A70FA7B9E
:100EA40079681346DB0013449B000B44483300224B
:100EB4001A60FA7B79681346DB0013449B000B44E9
:100EC4004C3300221A60FA7B79681346DB00134422
:100ED4009B000B44543300221A60FB7B0133FB73E9
:100EE400FA7B7B685B689A42AFD30023FB7344E0D0
:100EF400FA7B79681346DB0013449B000B4403F22E
:100F04007D2300221A70FA7B79681346DB001344B0
:100F14009B000B4403F51F73FA7B1A70FA7B796804
:100F24001346DB0013449B000B4403F5207300229B
:100F34001A70FA7B79681346DB0013449B000B4458
:100F440003F5227300221A60FA7B79681346DB00EA
:100F540013449B000B4403F5237300221A60FA7BAD
:100F640079681346DB0013449B000B4403F5257397
:100F740000221A60FB7B0133FB73FA7B7B685B689E
:100F84009A42B5D37B681B683B607E686D4606F168
:100F940010040FCC0FC50FCC0FC594E8030085E8EF
:100FA4000300331D0ECB386801F01EFF0346002BEF
:100FB40005D07B68022283F8BD2401230DE07B6801
:100FC400002283F838207B68012283F8BD247B68E3
:100FD4001B68184603F06DF8002318461437BD4605
:100FE400F0BD80B584B000AF78607B681B68FB609F
:100FF4007B6893F8BC34012B01D1022320E07B6889
:10100400012283F8BC247B689B6A012B09D17B688D
:101014009B69012B05D0FB689B6B43F48032FB6812
:101024009A637B681B68184601F070FE7B681B6836
:10103400184603F01DF87B68002283F8BC240023C3
:1010440018461037BD4680BD90B58DB000AF7860AE
:101054007B681B683B623B6AFB617B681B681846C4
:1010640003F0DBF80346002B40F08A847B681B689E
:10107400184603F03FF80346002B00F08084FB6918
:1010840003F500639B681B0AC3F30D027B68C3F876
:10109400FC247B681B68184603F02CF8034603F015
:1010A4000203022B07D17B681B685A697B681B68A3
:1010B40002F002025A617B681B68184603F01AF8B2
:1010C400034603F01003102B61D17B681B689A69F7
:1010D4007B681B6822F010029A613B6A1B6ABB6141
:1010E400BB6903F00F021346DB0013449B0003F5B6
:1010F4001E737A68134404337B61BB695B0C03F091
:101104000F03022B24D1BA6947F6F0731340002B66
:1011140035D07B691969BB691B099BB2C3F30A0308
:101124009BB21A46386A02F051FE7B691A69BB69A0
:101134001B09C3F30A031A447B691A617B691A6A9F
:10114400BB691B09C3F30A031A447B691A6216E0DC
:10115400BB695B0C03F00F03062B10D17B6803F211
:10116400C44308221946386A02F030FE7B691A6AC1
:10117400BB691B09C3F30A031A447B691A627B68BF
:101184001B689A697B681B6842F010029A617B684D
:101194001B68184602F0AEFF034603F40023B3F5C0
:1011A400002F40F0A78000237B627B681B681846F1
:1011B40002F0B3FFB86299E0BB6A03F00103002BAD
:1011C40000F08E807B681B687A6AD2B2114618469A
:1011D40002F0D7FF38613B6903F00103002B0CD008
:1011E4007B6A5A01FB69134403F530631A460123F1
:1011F4009360796A786800F0C3FE3B6903F00803E2
:10120400002B0CD07B6A5A01FB69134403F530634D
:101214001A4608239360796A786800F099FF3B695D
:1012240003F01003002B08D07B6A5A01FB691344B6
:1012340003F530631A46102393603B6903F00203FD
:10124400002B30D03B6A5B6903F08003802B09D10B
:10125400FB6903F500635B68FA6902F5006243F415
:10126400806353607A6A1346DB0013449B0003F5E2
:101274001E737A68134404337B617B69DB78012B2A
:1012840008D17B690022DA707B6ADBB21946786880
:1012940005F0E4FA7B6A5A01FB69134403F53063F1
:1012A4001A46022393603B6903F02003002B08D005
:1012B4007B6A5A01FB69134403F530631A46202301
:1012C40093603B6903F40053002B09D07B6A5A01F5
:1012D400FB69134403F530631A464FF400539360DB
:1012E4007B6A01337B62BB6A5B08BB62BB6A002B0F
:1012F4007FF462AF7B681B68184602F0FBFE03466E
:1013040003F48023B3F5802F40F0DB807B681B68F7
:10131400184602F01CFFB86200237B62CDE0BB6A72
:1013240003F00103002B00F0C2807B681B687A6A1B
:10133400D2B21146184602F042FF38613B6903F00D
:101344000103002B57D07B6A03F00F03012202FA3A
:1013540003F3FB60FB6903F500635A6BFB68DB4333
:10136400F96901F5006113404B637B6A5A01FB691B
:10137400134403F510631A46012393607B681B69C9
:10138400012B32D179687A6A1346DB0013449B003F
:101394000B444C33196878687A6A1346DB001344AB
:1013A4009B00034448331B68194478687A6A1346DF
:1013B400DB0013449B0003444C3319607B6A002B0D
:1013C40013D179687A6A1346DB0013449B000B44FB
:1013D40054331B68002B08D17B6818687B6803F2C0
:1013E400C4431A46012102F049FF7B6ADBB2194665
:1013F400786805F0B8F93B6903F00803002B08D0BE
:101404007B6A5A01FB69134403F510631A460823E7
:1014140093603B6903F01003002B08D07B6A5A01E8
:10142400FB69134403F510631A46102393603B6968
:1014340003F04003002B08D07B6A5A01FB69134474
:1014440003F510631A46402393603B6903F00203DB
:10145400002B23D0796A386A01F02AFE7A6A13468F
:10146400DB0013449B0038337A68134404337B61F4
:101474007B69DB78012B08D17B690022DA707B6AF7
:10148400DBB21946786805F0FBF97B6A5A01FB69FF
:10149400134403F510631A46022393603B6903F077
:1014A4008003002B03D0796A786800F0DBFC7B6A48
:1014B40001337B62BB6A5B08BB62BB6A002B7FF4AF
:1014C4002EAF7B681B68184602F014FE034603F037
:1014D4000043B3F1004F22D1FB6903F500635B685D
:1014E400FA6902F5006223F0010353607B6893F804
:1014F400F434012B08D17B68002283F8F424002102
:10150400786800F0C3FE02E0786805F099F97B681A
:101514001B685A697B681B6802F000425A617B6849
:101524001B68184602F0E6FD034603F40063B3F5B6
:10153400006F12D1FB6903F500639B6803F001039C
:10154400012B02D1786805F055F97B681B685A694C
:101554007B681B6802F400625A617B681B6818464A
:1015640002F0C8FD034603F48053B3F5805F40F0F6
:10157400B780FB6903F500635B68FA6902F50062F2
:1015840023F0010353607B681B681021184601F0A7
:101594008FFD0023FB6246E0FB6A5A01FB6913449A
:1015A40003F510631A464FF67F339360FB6A5A01C2
:1015B400FB69134403F510631B68FA6A5101FA6965
:1015C4000A4402F5106223F400131360FB6A5A0103
:1015D400FB69134403F530631A464FF67F33936077
:1015E400FB6A5A01FB69134403F530631B68FA6A0A
:1015F4005101FA690A4402F5306223F400131360BE
:10160400FB6A5A01FB69134403F530631B68FA6AE9
:101614005101FA690A4402F5306243F00063136031
:10162400FB6A0133FB627B685B68FA6A9A42B3D354
:10163400FB6903F50063DB69FA6902F5006243F0B4
:101644000113D3617B681B6B002B16D0FB6903F578
:101654000063D3F88430FA6902F5006243F00B03A7
:10166400C2F88430FB6903F500635B6CFA6902F528
:10167400006243F00B03536415E0FB6903F5006358
:101684005B69FA6902F5006243F4005343F02B03EB
:101694005361FB6903F500631B69FA6902F5006293
:1016A40043F00B031361FB6903F500631B68FA69DC
:1016B40002F5006223F4FE6313607B6818687B689C
:1016C4001B69D9B27B6803F2C4431A4602F0D6FD03
:1016D4007B681B685A697B681B6802F480525A61F4
:1016E4007B681B68184602F005FD034603F40053AB
:1016F400B3F5005F24D17B681B68184602F09BFD9C
:101704007B681B68184601F050FD03461A467B6847
:10171400DA607B681C6801F0E9F901467B68DB68E4
:10172400DBB21A46204601F04FFA786805F043F818
:101734007B681B685A697B681B6802F400525A6113
:101744007B681B68184602F0D5FC034603F00803C7
:10175400082B0AD1786805F020F87B681B685A6961
:101764007B681B6802F008025A617B681B68184694
:1017740002F0C0FC034603F08003802B22D13B6AB5
:101784009B6923F080023B6A9A6101237B6214E027
:1017940079687A6A1346DB0013449B000B4403F216
:1017A4007F231B78012B05D17B6ADBB2194678684D
:1017B40000F027FB7B6A01337B627B685B687A6A93
:1017C4009A42E5D37B681B68184602F093FC0346F3
:1017D40003F48013B3F5801F3BD101237B622BE01C
:1017E4007B6A5A01FB69134403F510631B68BB61F0
:1017F40079687A6A1346DB0013449B000B44403338
:101804001B78012B15D1BB69002B12DA79687A6A2F
:101814001346DB0013449B000B443F3301221A7030
:101824007B6ADBB263F07F03DBB21946786800F0B1
:10183400E8FA7B6A01337B627B685B687A6A9A4266
:10184400CED37B681B685A697B681B6802F48012DC
:101854005A617B681B68184602F04CFC034603F48B
:101864000013B3F5001F55D101237B6245E07B6A69
:101874005A01FB69134403F530631B68BB61796843
:101884007A6A1346DB0013449B000B4403F5207370
:101894001B78012B2ED1BB69002B2BDABB6903F417
:1018A40080327B68D3F8FC3403F001039A4221D1DF
:1018B40079687A6A1346DB0013449B000B4403F2F5
:1018C4007F2301221A703B6A9B6943F080023B6AC2
:1018D4009A613B6A5B6903F08003002B0AD1FB69C0
:1018E40003F500635B68FA6902F5006243F4007370
:1018F400536007E07B6A01337B627B685B687A6ACA
:101904009A42B4D37B681B685A697B681B6802F4EB
:1019140000125A617B681B68184602F0EBFB034611
:1019240003F08043B3F1804F0AD1786804F0BAFF22
:101934007B681B685A697B681B6802F080425A61A5
:101944007B681B68184602F0D5FB034603F00403CA
:10195400042B15D17B681B685B68BB61BB6903F012
:101964000403002B02D0786804F0AAFF7B681B688C
:1019740059687B681B68BA690A435A6000E000BF73
:101984003437BD4690BD80B582B000AF78600B4659
:10199400FB707B6893F8BC34012B01D1022313E064
:1019A4007B68012283F8BC247B68FA7883F83820AA
:1019B4007B681B68FA781146184602F033FB7B6893
:1019C400002283F8BC24002318460837BD4680BD96
:1019D40080B584B000AF7860084611461A460346C5
:1019E400FB700B463B801346BB700023FB7297F9D8
:1019F4000330002B0FDAFB7803F00F021346DB00F1
:101A040013449B0038337A6813440433FB60FB6847
:101A140001225A700FE0FB7803F00F021346DB003B
:101A240013449B0003F51E737A6813440433FB606C
:101A3400FB6800225A70FB7803F00F03DAB2FB68EC
:101A44001A703A88FB68DA60FB68BA781A71FB6826
:101A54005B78002B04D0FB681B789AB2FB681A8170
:101A6400BB78022B02D1FB6800225A717B6893F881
:101A7400BC34012B01D102230EE07B68012283F8E0
:101A8400BC247B681B68F968184601F0B3FB7B68CB
:101A9400002283F8BC24FB7A18461037BD4680BD6B
:101AA40080B584B000AF78600B46FB7097F90330C3
:101AB400002B0FDAFB7803F00F021346DB0013440C
:101AC4009B0038337A6813440433FB60FB680122BB
:101AD4005A700FE0FB7803F00F021346DB00134447
:101AE4009B0003F51E737A6813440433FB60FB68A0
:101AF40000225A70FB7803F00F03DAB2FB681A7005
:101B04007B6893F8BC34012B01D102230EE07B687F
:101B1400012283F8BC247B681B68F968184601F02D
:101B2400F1FB7B68002283F8BC240023184610379D
:101B3400BD4680BD80B586B000AFF8607A603B607A
:101B44000B46FB72FB7A03F00F021346DB001344CF
:101B54009B0003F51E73FA68134404337B617B69AD
:101B64007A681A617B693A689A617B6900221A6211
:101B74007B6900225A70FB7A03F00F03DAB27B69A7
:101B84001A70FB681B69012B02D17A687B695A6160
:101B9400FB7A03F00F03002B09D1FB681868FB687C
:101BA4001B69DBB21A46796901F0D0FE08E0FB68D4
:101BB4001868FB681B69DBB21A46796901F07EFC80
:101BC400002318461837BD4680BD80B483B000AFEB
:101BD40078600B46FB70FB7803F00F0279681346BC
:101BE400DB0013449B000B4403F527731B68184662
:101BF4000C37BD465DF8047B704780B586B000AFF6
:101C0400F8607A603B600B46FB72FB7A03F00F02CC
:101C14001346DB0013449B003833FA68134404333F
:101C24007B617B697A681A617B693A689A617B692E
:101C340000221A627B6901225A70FB7A03F00F03B7
:101C4400DAB27B691A70FB681B69012B02D17A68CE
:101C54007B695A61FB7A03F00F03002B09D1FB68FF
:101C64001868FB681B69DBB21A46796901F06EFEDD
:101C740008E0FB681868FB681B69DBB21A467969DF
:101C840001F01CFC002318461837BD4680BD80B502
:101C940084B000AF78600B46FB70FB7803F00F0252
:101CA4007B685B689A4201D9012350E097F90330BD
:101CB400002B0FDAFB7803F00F021346DB0013440A
:101CC4009B0038337A6813440433FB60FB680122B9
:101CD4005A700DE0FA781346DB0013449B0003F5B9
:101CE4001E737A6813440433FB60FB6800225A7045
:101CF400FB6801229A70FB7803F00F03DAB2FB68E9
:101D04001A707B6893F8BC34012B01D102231EE0C6
:101D14007B68012283F8BC247B681B68F968184639
:101D240002F0ACF8FB7803F00F03002B0AD17B68B8
:101D340018687B681B69D9B27B6803F2C4431A46EE
:101D440002F09CFA7B68002283F8BC240023184626
:101D54001037BD4680BD80B584B000AF78600B46B7
:101D6400FB70FB7803F00F027B685B689A4201D931
:101D7400012342E097F90330002B0FDAFB7803F0DC
:101D84000F021346DB0013449B0038337A68134474
:101D94000433FB60FB6801225A700FE0FB7803F008
:101DA4000F021346DB0013449B0003F51E737A688D
:101DB40013440433FB60FB6800225A70FB68002262
:101DC4009A70FB7803F00F03DAB2FB681A707B6831
:101DD40093F8BC34012B01D102230EE07B6801226D
:101DE40083F8BC247B681B68F968184602F0B4F8D1
:101DF4007B68002283F8BC24002318461037BD46B4
:101E040080BD80B584B000AF78600B46FB7097F955
:101E14000330002B0CDAFB7803F00F021346DB00CF
:101E240013449B0038337A6813440433FB600CE09A
:101E3400FB7803F00F021346DB0013449B0003F509
:101E44001E737A6813440433FB607B681B68F9686B
:101E5400184601F0D3FE0346FB72FB7A184610378E
:101E6400BD4680BD80B58AB002AF786039607B68BA
:101E74001B687B617B693B613A681346DB00134452
:101E84009B0038337A6813440433FB60FB681A6A96
:101E9400FB689B699A4201D901236CE0FB689A694B
:101EA400FB681B6AD31AFB61FB68DB68FA699A4218
:101EB40002D9FB68DB68FB61FB6903339B08BB61E8
:101EC4002BE0FB689A69FB681B6AD31AFB61FB6809
:101ED400DB68FA699A4202D9FB68DB68FB61FB693B
:101EE40003339B08BB61FB6819693B68DAB2FB6981
:101EF40098B27B681B69DBB200930346786901F0F2
:101F040027FFFB681A69FB691A44FB681A61FB68BE
:101F14001A6AFB691A44FB681A623B685A013B69F6
:101F2400134403F510639B699BB2BA699A4209D8BA
:101F3400FB681A6AFB689B699A4203D2FB689B6937
:101F4400002BBED1FB689A69FB681B6A9A4211D8C0
:101F54003B6803F00F03012202FA03F3BB603B6901
:101F640003F500635A6BBB68DB43396901F5006113
:101F740013404B63002318462037BD4680BD000044
:101F840080B588B000AF786039607B681B68FB61FE
:101F9400FB69BB61FB693C3304331B687B613B68B1
:101FA4005A01BB69134403F530639B683B617B684A
:101FB4001B69012B7BD13B6903F00803002B15D06F
:101FC4007B69614A934240F2B9803B6903F4004360
:101FD400002B00F0B3803B685A01BB69134403F53E
:101FE40030631A464FF400439360A7E03B6903F063
:101FF4002003002B09D03B685A01BB69134403F545
:1020040030631A462023936098E03B6903F0280369
:10201400002B40F093807B694B4A93420FD93B6974
:1020240003F40043002B0AD03B685A01BB691344F4
:1020340003F530631A464FF4004393607EE03A6838
:102044001346DB0013449B0003F51E737A681344A4
:102054000433FB60FB68DA693B685901BB690B44D4
:1020640003F530631B69C3F31203D21AFB681A62C7
:102074003B68002B14D1FB689B69002B09D17B685A
:1020840018687B6803F2C4431A46012102F0F6F88B
:1020940006E0FB681A69FB681B6A1A44FB681A614C
:1020A4003B68DBB21946786804F042FB46E07B6982
:1020B400264A934224D13B6903F40043002B0AD0FF
:1020C4003B685A01BB69134403F530631A464FF465
:1020D4000043936032E03B6903F02003002B08D0F7
:1020E4003B685A01BB69134403F530631A46202345
:1020F40093603B68DBB21946786804F019FB1DE075
:102104003B68002B14D179683A681346DB0013440A
:102114009B000B4403F525731B68002B08D17B68D7
:1021240018687B6803F2C4431A46002102F0A6F83B
:102134003B68DBB21946786804F0FAFA00231846C3
:102144002037BD4680BD00BF0A30544F0A31544F7A
:1021540080B586B000AF786039607B681B687B61AE
:102164007B693B617B693C3304331B68FB603B68E0
:102174005A013B69134403F530639B68BB60FB68F9
:10218400154A93420ED9BB6803F40043002B09D0CF
:102194003B685A013B69134403F530631A464FF414
:1021A40000439360786804F0B1FAFB680A4A9342EA
:1021B4000CD97B681B69012B08D17B6818687B6884
:1021C40003F2C4431A46012102F058F800231846CA
:1021D4001837BD4680BD00BF0A30544F80B485B067
:1021E40000AF78600B46FB7013463B807B681B682E
:1021F4005B6ABB60FB78002B07D13B8819047B68C2
:102204001B68BA680A439A6228E07B681B689B6A69
:102214001B0CBA681344BB600023FB730DE07B689E
:102224001A68FB7B40339B0013445B681B0CBA6841
:102234001344BB60FB7B0133FB73FA7BFB78013BEC
:102244009A42ECD33B8818047B681968FB78013BFD
:10225400BA68024340339B000B445A60002318467B
:102264001437BD465DF8047B704780B483B000AF7B
:1022740078600B467B807B681B687A885A620023EF
:1022840018460C37BD465DF8047B704780B483B0B4
:1022940000AF78600B46FB7000BF0C37BD465DF89D
:1022A400047B704780B586B000AF78607B68002BF4
:1022B40001D1012367E27B681B6803F00103002B53
:1022C40075D0884B9B6803F00C03042B0CD0854B12
:1022D4009B6803F00C03082B12D1824B5B6803F458
:1022E4008003B3F5800F0BD17E4B1B6803F40033DE
:1022F400002B5BD07B685B68002B57D1012342E243
:102304007B685B68B3F5803F06D1764B1B68754AE2
:1023140043F4803313601DE07B685B68B3F5A02F42
:102324000CD1704B1B686F4A43F4802313606D4BD0
:102334001B686C4A43F4803313600BE0694B1B68E1
:10234400684A23F480331360664B1B68654A23F4A0
:10235400802313607B685B68002B13D0FEF75EFA62
:10236400386108E0FEF75AFA02463B69D31A642B37
:1023740001D9032307E25B4B1B6803F40033002BF2
:10238400F0D014E0FEF74AFA386108E0FEF746FAA6
:1023940002463B69D31A642B01D90323F3E1514B61
:1023A4001B6803F40033002BF0D100E000BF7B680E
:1023B4001B6803F00203002B63D04A4B9B6803F0B5
:1023C4000C03002B0BD0474B9B6803F00C03082B2A
:1023D4001CD1444B5B6803F48003002B16D1414BA2
:1023E4001B6803F00203002B05D07B68DB68012B1C
:1023F40001D00123C7E13B4B1B6823F0F8027B6843
:102404001B69DB00374913430B603AE07B68DB68E8
:10241400002B20D0344B01221A60FEF7FFF93861FB
:1024240008E0FEF7FBF902463B69D31A022B01D9F7
:102434000323A8E12B4B1B6803F00203002BF0D00D
:10244400284B1B6823F0F8027B681B69DB002549D5
:1024540013430B6015E0244B00221A60FEF7DEF9EB
:10246400386108E0FEF7DAF902463B69D31A022B19
:1024740001D9032387E11B4B1B6803F00203002BE4
:10248400F0D17B681B6803F00803002B36D07B680F
:102494005B69002B16D0154B01221A60FEF7BEF9BA
:1024A400386108E0FEF7BAF902463B69D31A022BF9
:1024B40001D9032367E10B4B5B6F03F00203002B8D
:1024C400F0D01BE0094B00221A60FEF7A7F938612F
:1024D4000EE0FEF7A3F902463B69D31A022B07D993
:1024E400032350E10038024000004742800E474277
:1024F400884B5B6F03F00203002BEAD17B681B68F7
:1025040003F00403002B00F097800023FB75814B3C
:102514001B6C03F08053002B0FD10023BB607D4B59
:102524001B6C7C4A43F0805313647A4B1B6C03F09E
:102534008053BB60BB680123FB75774B1B6803F4B6
:102544008073002B18D1744B1B68734A43F4807357
:102554001360FEF763F9386108E0FEF75FF902469D
:102564003B69D31A022B01D903230CE16A4B1B6884
:1025740003F48073002BF0D07B689B68012B06D199
:10258400644B1B6F634A43F0010313671CE07B68D1
:102594009B68052B0CD15F4B1B6F5E4A43F0040311
:1025A40013675C4B1B6F5B4A43F0010313670BE03B
:1025B400584B1B6F574A23F001031367554B1B6F8E
:1025C400544A23F0040313677B689B68002B15D0DF
:1025D400FEF724F938610AE0FEF720F902463B6968
:1025E400D31A41F28832934201D90323CBE0494BF9
:1025F4001B6F03F00203002BEED014E0FEF70EF97C
:1026040038610AE0FEF70AF902463B69D31A41F23F
:102614008832934201D90323B5E03E4B1B6F03F08C
:102624000203002BEED1FB7D012B05D1394B1B6C32
:10263400384A23F0805313647B689B69002B00F0B5
:10264400A180344B9B6803F00C03082B5CD07B689F
:102654009B69022B41D1314B00221A60FEF7DEF850
:10266400386108E0FEF7DAF802463B69D31A022B18
:1026740001D9032387E0274B1B6803F00073002B69
:10268400F0D17B68DA697B681B6A1A437B685B6AF2
:102694009B011A437B689B6A5B08013B1B041A433A
:1026A4007B68DB6A1B061B4913434B601B4B0122EF
:1026B4001A60FEF7B3F8386108E0FEF7AFF8024697
:1026C4003B69D31A022B01D903235CE0114B1B682D
:1026D40003F00073002BF0D054E0104B00221A607A
:1026E400FEF79CF8386108E0FEF798F802463B696B
:1026F400D31A022B01D9032345E0064B1B6803F0D0
:102704000073002BF0D13DE07B689B69012B07D15E
:10271400012338E000380240007000406000474266
:102724001B4B5B68FB607B689B69012B28D0FB68B3
:1027340003F480027B68DB699A4221D1FB6803F0D1
:102744003F027B681B6A9A421AD1FA6847F6C07343
:1027540013407A68526A9201934211D1FB6803F4E0
:1027640040327B689B6A5B08013B1B049A4207D199
:10277400FB6803F070627B68DB6A1B069A4201D037
:10278400012300E0002318461837BD4680BD00BF72
:102794000038024080B584B000AF786039607B684F
:1027A400002B01D10123CCE0684B1B6803F0070325
:1027B4003A689A420CD9654B3A68D2B21A70634BA4
:1027C4001B6803F007033A689A4201D00123B8E07A
:1027D4007B681B6803F00203002B20D07B681B6816
:1027E40003F00403002B05D0594B9B68584A43F46B
:1027F400E05393607B681B6803F00803002B05D04B
:10280400534B9B68524A43F460439360504B9B681C
:1028140023F0F0027B689B684D4913438B607B680F
:102824001B6803F00103002B44D07B685B68012B19
:1028340007D1474B1B6803F40033002B19D1012344
:102844007FE07B685B68022B03D07B685B68032BAB
:1028540007D13F4B1B6803F00073002B09D1012300
:102864006FE03B4B1B6803F00203002B01D10123F3
:1028740067E0374B9B6823F003027B685B6834494D
:1028840013438B60FDF7CAFFF8600AE0FDF7C6FF4B
:102894000246FB68D31A41F28832934201D90323DA
:1028A4004FE02B4B9B6803F00C027B685B689B003A
:1028B4009A42EBD1254B1B6803F007033A689A420E
:1028C4000CD2224B3A68D2B21A70204B1B6803F028
:1028D40007033A689A4201D0012332E07B681B68FF
:1028E40003F00403002B08D0194B9B6823F4E05237
:1028F4007B68DB68164913438B607B681B6803F0B5
:102904000803002B09D0124B9B6823F460427B68B8
:102914001B69DB000E4913438B6000F021F802466B
:102924000B4B9B681B0903F00F030A49CB5C22FA8B
:1029340003F3094A1360094B1B681846FDF72AFF85
:10294400002318461037BD4680BD00BF003C02403E
:1029540000380240346D000800000020040000200C
:102964002DE9B04F90B000AF00237B630023FB63DD
:1029740000233B630023BB63594B9B6803F00C03A8
:10298400082B0DD0082B00F2A180002B02D0042BC1
:1029940003D09BE0534BBB639BE0534BBB6398E07A
:1029A4004F4B5B6803F03F037B634D4B5B6803F461
:1029B4008003002B28D04A4B5B689B0900223B62B2
:1029C4007A623B6AC3F308000021474B03FB01F220
:1029D400002300FB03F31344434AA0FB0212FA62F0
:1029E4000A46BA62FA6A1344FB627B6B0022BB613B
:1029F400FA61D7E90623D7E90A01FDF7E9FB0246A4
:102A04000B461346FB6353E0354B5B689B0900227E
:102A14003B617A613B69C3F3080A4FF0000B5246ED
:102A24005B464FF000004FF00001590141EAD261CA
:102A3400500102460B46B2EB0A0863EB0B094FF058
:102A440000024FF000034FEA891343EA98634FEA08
:102A54008812B2EB080463EB09054FF000024FF053
:102A64000003EB0043EA5473E20014461D4614EBE2
:102A74000A033B6045EB0B037B604FF000024FF011
:102A84000003D7E9004529468B02214643EA9153C6
:102A940021468A02104619467B6B0022BB60FA600D
:102AA400D7E90223FDF794FB02460B461346FB636A
:102AB4000B4B5B681B0C03F0030301335B003B63AC
:102AC400FA6B3B6BB2FBF3F3BB6302E0054BBB63F6
:102AD40000BFBB6B18464037BD46BDE8B08F00BF92
:102AE400003802400024F40040787D0180B400AF37
:102AF400034B1B681846BD465DF8047B704700BF56
:102B04000000002084B080B584B000AF786007F185
:102B14001C0080E80E003B6B012B22D17B689B6B71
:102B240023F480327B689A637B68DB6823F4840334
:102B340023F040037A68D3607B68DB6823F4401297
:102B44007B68DA60FB6C012B05D17B68DB6843F49E
:102B540080127B68DA60786801F0EEFB0346FB7351
:102B64001AE07B68DB6843F040027B68DA607868CF
:102B740001F0E2FB0346FB733B6C002B06D17B6840
:102B84009B6B43F480327B689A6305E07B689B6BA4
:102B940023F480327B689A63BB6A012B0BD17B6878
:102BA4009B6843F006027B689A607B689B6843F0ED
:102BB40020027B689A60FB7B18461037BD46BDE84F
:102BC400804004B07047000080B487B000AFF86064
:102BD400B9601346FB71FB79022B65D1BB68414A8E
:102BE400934206D9BB68404A934202D20F237B61C9
:102BF40062E0BB683C4A934206D3BB683B4A9342BB
:102C040002D20E237B6157E0BB68384A934206D355
:102C1400BB68374A934202D20D237B614CE0BB6808
:102C2400334A934206D3BB68324A934202D80C23F8
:102C34007B6141E0BB682F4A934206D9BB682E4AA8
:102C4400934202D80B237B6136E0BB682A4A934245
:102C540006D9BB68294A934202D80A237B612BE038
:102C6400BB68264A934206D9BB68254A934202D2DE
:102C740009237B6120E0BB68214A934206D3BB68E9
:102C8400204A934202D808237B6115E0BB681D4AA1
:102C9400934206D9BB681C4A934202D207237B6144
:102CA4000AE006237B6107E0FB79002B02D10923AC
:102CB4007B6101E009237B61FB68DB6823F47052CC
:102CC400FB68DA60FB68DA687B699B0203F4705383
:102CD4001A43FB68DA60002318461C37BD465DF8CA
:102CE400047B7047BFACD800C0E1E4000024F400CA
:102CF400807306019F491A01FF2C31013FA44C0146
:102D040000366E011FABA6010048E80180B483B011
:102D140000AF78607B689B6843F001027B689A602F
:102D2400002318460C37BD465DF8047B704780B419
:102D340083B000AF78607B689B6823F001027B68F6
:102D44009A60002318460C37BD465DF8047B704733
:102D540080B584B000AF78600B46FB700023FB6045
:102D64007B68DB6823F0C0427B68DA60FB78012B68
:102D740015D17B68DB6843F000527B68DA60012080
:102D8400FDF758FDFB680133FB60786801F045FAF4
:102D94000346012B1ED0FB68312BF0D91AE0FB78D7
:102DA400002B15D17B68DB6843F080427B68DA60D6
:102DB4000120FDF73FFDFB680133FB60786801F0FB
:102DC4002CFA0346002B05D0FB68312BF0D901E027
:102DD400012305E0FB68322B01D1012300E000232D
:102DE40018461037BD4680BD84B080B586B000AFAC
:102DF400786007F1240080E80E000023FB757B68EF
:102E0400FB6000233B6109E07A683B6940339B0027
:102E1400134400225A603B6901333B613B690E2B2A
:102E2400F2D9FB6C002B1CD1FB6803F500635B68D3
:102E3400FA6802F5006243F0020353607B689B6BFF
:102E440043F400127B689A637B689B6B23F4002233
:102E54007B689A637B689B6B23F480227B689A630C
:102E64000BE07B689B6B23F400127B689A637B689E
:102E74009B6B43F400227B689A63FB6803F56063F1
:102E84001A4600231360FB6803F500631946FB68C8
:102E940003F500631A460B681360BB6B012B0CD15E
:102EA400FB6A002B04D10021786800F065F908E082
:102EB4000121786800F060F903E00321786800F0EC
:102EC4005BF91021786800F0F3F80346002B01D079
:102ED4000123FB75786800F01FF90346002B01D02D
:102EE4000123FB75FB6803F500631A460023136195
:102EF400FB6803F500631A4600235361FB6803F57E
:102F040000631A460023D36100233B6143E03B691D
:102F14005A01FB68134403F510631B6803F0004374
:102F2400B3F1004F18D13B69002B0AD13B695A0118
:102F3400FB68134403F510631A464FF000631360F3
:102F440013E03B695A01FB68134403F510631A4606
:102F54004FF09043136008E03B695A01FB68134447
:102F640003F510631A46002313603B695A01FB689A
:102F7400134403F510631A46002313613B695A0195
:102F8400FB68134403F510631A464FF67F339360CE
:102F94003B6901333B617B6A3A699A42B7D30023A8
:102FA4003B6143E03B695A01FB68134403F530631A
:102FB4001B6803F00043B3F1004F18D13B69002BA9
:102FC4000AD13B695A01FB68134403F530631A467E
:102FD4004FF00063136013E03B695A01FB6813442C
:102FE40003F530631A464FF09043136008E03B69E1
:102FF4005A01FB68134403F530631A460023136037
:103004003B695A01FB68134403F530631A460023F5
:1030140013613B695A01FB68134403F530631A4694
:103024004FF67F3393603B6901333B617B6A3A69B6
:103034009A42B7D3FB6803F500631B69FA6802F58B
:10304400006223F4807313617B6800229A617B68B9
:103054006FF080425A613B6B002B05D17B689B6902
:1030640043F010027B689A617B689A690F4B1343A3
:103074007A689361FB6B002B05D07B689B6943F0F6
:1030840008027B689A61FB6C012B07D17B689B6902
:1030940043F0804343F004037A689361FB7D184650
:1030A4001837BD46BDE8804004B0704700383C8006
:1030B40080B485B000AF786039600023FB60FB68A2
:1030C4000133FB60FB68134A934201D903231BE0DD
:1030D4007B681B69002BF2DA0023FB603B689B01D1
:1030E40043F020027B681A61FB680133FB60FB68D4
:1030F400084A934201D9032306E07B681B6903F065
:103104002003202BF0D0002318461437BD465DF869
:10311400047B7047400D030080B485B000AF786035
:103124000023FB60FB680133FB60FB68114A934298
:1031340001D9032318E07B681B69002BF2DA002312
:10314400FB607B6810221A61FB680133FB60FB683B
:10315400084A934201D9032306E07B681B6903F004
:103164001003102BF0D0002318461437BD465DF829
:10317400047B7047400D030080B485B000AF7860D5
:103184000B46FB707B68FB60FB6803F500631A6801
:10319400FB78F96801F5006113430B6000231846BE
:1031A4001437BD465DF8047B704780B487B000AF28
:1031B40078607B683B613B6903F500639B6803F0BF
:1031C4000603FB60FB68002B02D10023FB750AE0B9
:1031D400FB68022B02D0FB68062B02D10223FB758D
:1031E40001E00F23FB75FB7D18461C37BD465DF8D7
:1031F400047B704780B485B000AF786039607B6829
:10320400FB603B681B78BB603B685B78012B3AD161
:10321400FB6803F50063DA693B681B7803F00F036E
:10322400012101FA03F39BB2F96801F5006113432C
:10323400CB61BB685A01FB68134403F510631B6838
:1032440003F40043002B55D1BB685A01FB681344B7
:1032540003F510631A683B68DB68C3F30A013B6833
:103264001B799B041943BB689B050B431343BA6842
:103274005101FA680A4402F5106243F0805343F4A2
:103284000043136036E0FB6803F50063DA693B68CA
:103294001B7803F00F03012101FA03F31B04F968FF
:1032A40001F500611343CB61BB685A01FB68134409
:1032B40003F530631B6803F40043002B1AD1BB6889
:1032C4005A01FB68134403F530631A683B68DB68F2
:1032D400C3F30A013B681B799B040B431343BA688D
:1032E4005101FA680A4402F5306243F0805343F412
:1032F40000431360002318461437BD465DF8047B71
:103304007047000080B485B000AF786039607B6896
:10331400FB603B681B78BB603B685B78012B61D129
:10332400BB685A01FB68134403F510631B6803F080
:103334000043B3F1004F1FD1BB685A01FB6813442B
:1033440003F510631B68BA685101FA680A4402F570
:10335400106243F000631360BB685A01FB681344B6
:1033640003F510631B68BA685101FA680A4402F550
:10337400106243F080431360FB6803F50063DA6B6B
:103384003B681B7803F00F03012101FA03F39BB29E
:10339400DB43F96801F500611340CB63FB6803F577
:1033A4000063DA693B681B7803F00F03012101FA1B
:1033B40003F39BB2DB43F96801F500611340CB6171
:1033C400BB685A01FB68134403F510631A68BB68B1
:1033D4005901FB680B4403F510631946354B134040
:1033E4000B6060E0BB685A01FB68134403F530636B
:1033F4001B6803F00043B3F1004F1FD1BB685A01AF
:10340400FB68134403F530631B68BA685101FA681A
:103414000A4402F5306243F000631360BB685A014A
:10342400FB68134403F530631B68BA685101FA68FA
:103434000A4402F5306243F080431360FB6803F5ED
:103444000063DA6B3B681B7803F00F03012101FA78
:1034540003F31B04DB43F96801F500611340CB63FC
:10346400FB6803F50063DA693B681B7803F00F031C
:10347400012101FA03F31B04DB43F96801F5006140
:103484001340CB61BB685A01FB68134403F53063F6
:103494001A68BB685901FB680B4403F5306319468D
:1034A400054B13400B60002318461437BD465DF8E6
:1034B400047B7047007833EC0078F3EF80B58AB072
:1034C40002AFF860B9601346FB71FB68FB61BB682F
:1034D4001B78BB61BB685B78012B40F05C81BB68E7
:1034E4009B69002B32D1BB695A01FB69134403F574
:1034F40010631B69BA695101FA690A4402F5106242
:1035040023F0FF5323F4C0131361BB695A01FB6911
:10351400134403F510631B69BA695101FA690A443B
:1035240002F5106243F400231361BB695A01FB697D
:10353400134403F510631B69BA695101FA690A441B
:1035440002F51062DB0CDB04136174E0BB695A0101
:10355400FB69134403F510631B69BA695101FA69E5
:103564000A4402F51062DB0CDB041361BB695A01E7
:10357400FB69134403F510631B69BA695101FA69C5
:103584000A4402F5106223F0FF5323F4C0131361BD
:10359400BB695A01FB69134403F510631A69BB68DC
:1035A4009969BB68DB680B44591EBB68DB68B1FBD7
:1035B400F3F3D9049D4B0B40B9694801F9690144FF
:1035C40001F5106113430B61BB695A01FB69134494
:1035D40003F510631A69BB689B69C3F31203B969E5
:1035E4004801F969014401F5106113430B61BB689B
:1035F4001B79012B1FD1BB695A01FB69134403F5E5
:1036040010631B69BA695101FA690A4402F5106230
:1036140023F0C0431361BB695A01FB69134403F5EA
:1036240010631B69BA695101FA690A4402F5106210
:1036340043F000531361FB79012B4BD1BB685B69E9
:10364400002B09D0BB695A01FB69134403F51063CD
:103654001A46BB685B695361BB681B79012B28D18F
:10366400FB6903F500639B6803F48073002B10D19E
:10367400BB695A01FB69134403F510631B68BA69FB
:103684005101FA690A4402F5106243F000531360D1
:103694000FE0BB695A01FB69134403F510631B680F
:1036A400BA695101FA690A4402F5106243F0805381
:1036B4001360BB695A01FB69134403F510631B686B
:1036C400BA695101FA690A4402F5106243F00443ED
:1036D400136033E1BB695A01FB69134403F51063BA
:1036E4001B68BA695101FA690A4402F5106243F091
:1036F40004431360BB681B79012B15D0BB689B691D
:10370400002B00F01B81FB6903F500635A6BBB6857
:103714001B7803F00F03012101FA03F3F96901F5A2
:10372400006113434B6309E1FB6903F500639B6884
:1037340003F48073002B10D1BB695A01FB69134455
:1037440003F510631B68BA695101FA690A4402F56A
:10375400106243F0005313600FE0BB695A01FB6928
:10376400134403F510631B68BA695101FA690A44EA
:1037740002F5106243F080531360BB681969BB689B
:103784001A78BB689B6998B2FB7900930346F86882
:1037940000F0DEFAD2E0BB695A01FB69134403F579
:1037A40030631B69BA695101FA690A4402F530624F
:1037B400DB0CDB041361BB695A01FB69134403F599
:1037C40030631B69BA695101FA690A4402F530622F
:1037D40023F0FF5323F4C0131361BB689B69002BD0
:1037E40026D1BB695A01FB69134403F530631A6996
:1037F400BB68DB68C3F31203B9694801F969014482
:1038040001F5306113430B61BB695A01FB69134431
:1038140003F530631B69BA695101FA690A4402F578
:10382400306243F4002313613AE000BF0000F81F44
:10383400BB689A69BB68DB6813445A1EBB68DB68C3
:10384400B2FBF3F3FB82BB68DB68FA8A03FB02F288
:10385400BB68DA61BB695A01FB69134403F5306341
:103864001A69FB8AD904384B0B40B9694801F969D4
:10387400014401F5306113430B61BB695A01FB69D3
:10388400134403F530631A69BB68DB69C3F312039D
:10389400B9694801F969014401F5306113430B61C9
:1038A400FB79012B0DD1BB681B69002B09D0BB68C8
:1038B4001969BB695A01FB69134403F530630A466D
:1038C4005A61BB681B79012B28D1FB6903F500639E
:1038D4009B6803F48073002B10D1BB695A01FB6908
:1038E400134403F530631B68BA695101FA690A4449
:1038F40002F5306243F0005313600FE0BB695A01D4
:10390400FB69134403F530631B68BA695101FA6912
:103914000A4402F5306243F080531360BB695A01D4
:10392400FB69134403F530631B68BA695101FA69F2
:103934000A4402F5306243F004431360002318463E
:103944002037BD4680BD00BF0000F81F80B487B09B
:1039540000AFF860B9601346FB71FB687B61BB681C
:103964001B783B61BB685B78012B40F0CE80BB6861
:103974009B69002B32D13B695A017B69134403F5DF
:1039840010631B693A6951017A690A4402F51062AD
:1039940023F0FF5323F4C01313613B695A017B697D
:1039A400134403F510631B693A6951017A690A44A7
:1039B40002F5106243F4002313613B695A017B69E9
:1039C400134403F510631B693A6951017A690A4487
:1039D40002F51062DB0CDB0413614EE03B695A0113
:1039E4007B69134403F510631B693A6951017A69D1
:1039F4000A4402F51062DB0CDB0413613B695A01D3
:103A04007B69134403F510631B693A6951017A69B0
:103A14000A4402F5106223F0FF5323F4C013136128
:103A2400BB689A69BB68DB689A4203D9BB68DA68E9
:103A3400BB689A613B695A017B69134403F51063BF
:103A44001B693A6951017A690A4402F5106243F428
:103A5400002313613B695A017B69134403F5106326
:103A64001A69BB689B69C3F3120339694801796910
:103A7400014401F5106113430B61FB79012B1ED145
:103A8400BB685B69002B09D03B695A017B6913440D
:103A940003F510631A46BB685B6953613B695A01BD
:103AA4007B69134403F510631B683A6951017A6911
:103AB4000A4402F5106243F00443136097E03B6943
:103AC4005A017B69134403F510631B683A69510179
:103AD4007A690A4402F5106243F004431360BB6838
:103AE4009B69002B00F083807B6903F500635A6BAC
:103AF400BB681B7803F00F03012101FA03F3796912
:103B040001F5006113434B6371E03B695A017B6922
:103B1400134403F530631B693A6951017A690A4415
:103B240002F53062DB0CDB0413613B695A017B69EB
:103B3400134403F530631B693A6951017A690A44F5
:103B440002F5306223F0FF5323F4C0131361BB6802
:103B54009B69002B03D0BB68DA68BB689A61BB68B9
:103B6400DA68BB68DA613B695A017B69134403F57F
:103B740030631B693A6951017A690A4402F530627B
:103B840043F4002313613B695A017B69134403F531
:103B940030631A69BB68DB69C3F3120339694801EE
:103BA4007969014401F5306113430B61FB79012B01
:103BB4000DD1BB681B69002B09D0BB6819693B692F
:103BC4005A017B69134403F530630A465A613B6921
:103BD4005A017B69134403F530631B683A69510148
:103BE4007A690A4402F5306243F004431360002307
:103BF40018461C37BD465DF8047B704780B487B017
:103C040000AF786039600023FB600023FB757B689C
:103C14003B613B685B78012B4AD13B681B785A01B6
:103C24003B69134403F510631B6803F00043B3F1CD
:103C3400004F40F086803B681B785A013B6913446F
:103C440003F510631B683A68127851013A690A4413
:103C540002F5106243F0006313603B681B785A015D
:103C64003B69134403F510631B683A6812785101E9
:103C74003A690A4402F5106243F080431360FB681A
:103C84000133FB60FB6842F21072934202D90123B4
:103C9400FB7556E03B681B785A013B69134403F5F6
:103CA40010631B6803F00043B3F1004FE7D048E012
:103CB4003B681B785A013B69134403F530631B6866
:103CC40003F00043B3F1004F3BD13B681B785A012A
:103CD4003B69134403F530631B683A681278510159
:103CE4003A690A4402F5306243F0006313603B68AA
:103CF4001B785A013B69134403F530631B683A6827
:103D0400127851013A690A4402F5306243F0804363
:103D14001360FB680133FB60FB6842F2107293424C
:103D240002D90123FB750CE03B681B785A013B69FF
:103D3400134403F530631B6803F00043B3F1004FF1
:103D4400E7D0FB7D18461C37BD465DF8047B704701
:103D540080B489B000AFF860B96011461A460B46CA
:103D6400FB711346BB80FB687B61BB68FB6197F802
:103D74002830002B23D1BB8803339B083B610023ED
:103D8400BB6118E0FB791A037B69134403F5805384
:103D94001A46FB691B681360FB690133FB61FB690D
:103DA4000133FB61FB690133FB61FB690133FB6197
:103DB400BB690133BB61BA693B699A42E2D3002310
:103DC40018462437BD465DF8047B704780B48BB039
:103DD40000AFF860B9601346FB80FB68BB61BB6849
:103DE4007B62FB889B089BB27B61FB8803F0030327
:103DF400FB8300233B6214E0BB6903F580531A681C
:103E04007B6A1A607B6A01337B627B6A01337B6263
:103E14007B6A01337B627B6A01337B623B6A0133D9
:103E24003B623A6A7B699A42E6D3FB8B002B1ED035
:103E340000233B62BB6903F580531A4607F1100364
:103E440012681A603A693B6ADBB2DB0022FA03F3B8
:103E5400DAB27B6A1A703B6A01333B627B6A0133D4
:103E64007B62FB8B013BFB83FB8B002BEAD17B6AE0
:103E740018462C37BD465DF8047B704780B485B086
:103E840000AF786039607B68FB603B681B78BB607F
:103E94003B685B78012B2CD1BB685A01FB68134447
:103EA40003F510631B68002B12DBBB68002B0FD0DB
:103EB400BB685A01FB68134403F510631B68BA68B6
:103EC4005101FA680A4402F5106223F0804313603A
:103ED400BB685A01FB68134403F510631B68BA6896
:103EE4005101FA680A4402F5106243F400131360A6
:103EF4002BE0BB685A01FB68134403F530631B686D
:103F0400002B12DBBB68002B0FD0BB685A01FB6887
:103F1400134403F530631B68BA685101FA680A4414
:103F240002F5306223F080431360BB685A01FB68DA
:103F3400134403F530631B68BA685101FA680A44F4
:103F440002F5306243F4001313600023184614375B
:103F5400BD465DF8047B704780B485B000AF7860DF
:103F640039607B68FB603B681B78BB603B685B78AF
:103F7400012B28D1BB685A01FB68134403F5106375
:103F84001B68BA685101FA680A4402F5106223F406
:103F9400001313603B681B79032B03D03B681B7928
:103FA400022B38D1BB685A01FB68134403F5106334
:103FB4001B68BA685101FA680A4402F5106243F0BA
:103FC4008053136027E0BB685A01FB68134403F570
:103FD40030631B68BA685101FA680A4402F530621A
:103FE40023F4001313603B681B79032B03D03B6855
:103FF4001B79022B0FD1BB685A01FB68134403F5EC
:1040040030631B68BA685101FA680A4402F53062E9
:1040140043F080531360002318461437BD465DF8FF
:10402400047B704780B485B000AF78600B46FB70AA
:104034007B68FB60FB6803F500631B68FA6802F5A4
:10404400006223F4FE631360FB6803F500631A68DF
:10405400FB781B0103F4FE63F96801F50061134367
:104064000B60002318461437BD465DF8047B704787
:1040740080B485B000AF78607B68FB60FB6803F5B3
:1040840060631B68FA6802F5606223F0030313603F
:10409400FB6803F500635B68FA6802F5006223F0CD
:1040A40002035360002318461437BD465DF8047BB1
:1040B400704780B485B000AF78607B68FB60FB68B4
:1040C40003F560631B68FA6802F5606223F003037A
:1040D4001360FB6803F500635B68FA6802F500622D
:1040E40043F002035360002318461437BD465DF8BD
:1040F400047B704780B485B000AF78607B685B69EF
:10410400FB607B689B69FA681340FB60FB68184698
:104114001437BD465DF8047B704780B485B000AFAA
:1041240078607B68FB60FB6803F500639B69BB6098
:10413400FB6803F50063DB69BA681340BB60BB68C6
:104144001B0C18461437BD465DF8047B704780B4D9
:1041540085B000AF78607B68FB60FB6803F50063A3
:104164009B69BB60FB6803F50063DB69BA681340B5
:10417400BB60BB689BB218461437BD465DF8047B30
:10418400704780B485B000AF78600B46FB707B68E5
:10419400FB60FB785A01FB68134403F530639B68AA
:1041A400BB60FB6803F500635B69BA681340BB60DE
:1041B400BB6818461437BD465DF8047B704780B46D
:1041C40087B000AF78600B46FB707B687B617B69CE
:1041D40003F500631B693B617B6903F500635B6B5B
:1041E400FB60FB7803F00F03FA6822FA03F3DB01A8
:1041F400DBB23A6913433B61FB785A017B69134490
:1042040003F510639B683A691340BB60BB681846AA
:104214001C37BD465DF8047B704780B483B000AFA3
:1042240078607B685B6903F0010318460C37BD4670
:104234005DF8047B704780B485B000AF78607B681C
:10424400FB60FB6803F510631B68FA6802F51062F3
:1042540023F4FF6323F007031360FB6803F5006393
:104264005B68FA6802F5006243F4807353600023CC
:1042740018461437BD465DF8047B704780B487B098
:1042840000AFF8600B467A60FB72FB687B61FB68E9
:104294003C3304331B683B613B69264A93420AD989
:1042A4007B6903F530631B6803F00043B3F1004FEF
:1042B40001D1002337E07B6903F530631A460023FC
:1042C40013617B6903F530631B697A6902F5306217
:1042D40043F4002313617B6903F530631B697A6936
:1042E40002F5306243F0180313617B6903F5306310
:1042F4001B697A6902F5306243F0C0431361FB7AAB
:10430400012B0FD17B6903F530631A467B68536137
:104314007B6903F530631B687A6902F5306243F008
:1043240080231360002318461C37BD465DF8047BC8
:10433400704700BF0A30544F80B485B000AF786036
:104344000023FB60FB680133FB60FB68134A934264
:1043540001D903231BE07B681B69002BF2DA0023DD
:10436400FB607B681B6943F001027B681A61FB6890
:104374000133FB60FB68094A934201D9032306E039
:104384007B681B6903F00103012BF0D0002318465E
:104394001437BD465DF8047B704700BF400D030031
:1043A40080B584B000AF78600B46FB704FF40770A3
:1043B40002F01EFCF860FB68002B09D17B68D3F87F
:1043C400D4227B68B032002143F822100223D4E0C7
:1043D4004FF407720021F86802F072FC7B68D3F88E
:1043E400D4227B68B032F96843F822107B68D3F892
:1043F400D4227B68B03253F822207B68C3F8BC22F5
:104404007B681B7C002B38D15E4B19784FF400730A
:104414000222786802F0C9FA5A4B1B7803F00F02A3
:10442400796813469B0013449B000B4424330122F8
:104434001A80554B19784FF400730222786802F001
:10444400B4FA514B1B7803F00F02796813469B00B2
:1044540013449B000B4403F5B27301221A804B4BA7
:104464001B7803F00F02796813469B0013449B00EA
:104474000B44263310221A8035E0424B197840232E
:104484000222786802F091FA3E4B1B7803F00F0287
:10449400796813469B0013449B000B442433012288
:1044A4001A80394B197840230222786802F07DFA89
:1044B400354B1B7803F00F02796813469B001344B5
:1044C4009B000B4403F5B27301221A802F4B1B7817
:1044D40003F00F02796813469B0013449B000B44BE
:1044E400263310221A80294B19780823032278686E
:1044F40002F05BFA254B1B7803F00F027968134630
:104504009B0013449B000B44243301221A80FB6854
:104514000022C3F804227B68D3F8D4327A68B0331B
:104524009B0013445B681B689847FB680022C3F830
:104534001422FB680022C3F81822FB68D3F8043263
:10454400002B01D1022318E07B681B7C002B0AD1CD
:104554000D4B1978FB68D3F804224FF40073786884
:1045640002F012FB08E0084B1978FB68D3F8042228
:104574004023786802F008FB002318461037BD4634
:1045840080BD00BF9300002094000020950000200F
:1045940080B582B000AF78600B46FB703A4B1B7855
:1045A4001946786802F027FA374B1B7803F00F029C
:1045B400796813469B0013449B000B442433002268
:1045C4001A80324B1B781946786802F014FA2F4B84
:1045D4001B7803F00F02796813469B0013449B0079
:1045E4000B4403F5B27300221A80294B1B78194639
:1045F400786802F000FA264B1B7803F00F02796802
:1046040013469B0013449B000B44243300221A805E
:104614001F4B1B7803F00F02796813469B00134469
:104624009B000B44263300221A807B68D3F8D422E3
:104634007B68B03253F82230002B1FD07B68D3F84C
:10464400D4327A68B0339B0013445B685B68984744
:104654007B68D3F8D4227B68B03253F822301846F2
:1046640002F0D4FA7B68D3F8D4227B68B0320021FC
:1046740043F822107B680022C3F8BC2200231846AA
:104684000837BD4680BD00BF930000209400002081
:104694009500002080B586B000AF786039607B68F3
:1046A400D3F8D4227B68B03253F822303B61002324
:1046B4007B7300237B810023FB753B69002B01D1B5
:1046C4000323BFE03B681B7803F06003002B50D04A
:1046D400202B40F0AF803B68DB88002B3AD03B684E
:1046E4001B785BB2002B1BDA7B68D3F8D4327A6870
:1046F400B0339B0013445B689B683A68507839690F
:104704003A68D28898473B68DB88072B28BF072381
:10471400FB813B69FA891946786801F043FD90E012
:104724003B685A783B6983F800223B68DB883F2B5F
:1047340003D83B68DB88DAB200E040223B6983F8A7
:10474400012239693B6993F801321A46786801F00D
:1047540055FD76E07B68D3F8D4327A68B0339B0099
:1047640013445B689B683A6850780022396898471C
:1047740067E03B685B780B2B51D801A252F823F019
:10478400B5470008314800082348000823480008BA
:104794002348000823480008234800082348000849
:1047A4002348000823480008DF4700080948000898
:1047B4007B6893F89C32DBB2032B07D107F10A0321
:1047C40002221946786801F0EDFC32E03968786815
:1047D40001F077FC0323FB752BE07B6893F89C3294
:1047E400DBB2032B07D107F10D03012219467868C8
:1047F40001F0D8FC1DE03968786801F062FC0323FD
:10480400FB7516E07B6893F89C32DBB2032B0FD068
:104814003968786801F055FC0323FB7508E03968B2
:10482400786801F04EFC0323FB7502E000BF08E04A
:1048340000BF06E03968786801F043FC0323FB7588
:1048440000BFFB7D18461837BD4680BD80B584B0D7
:1048540000AF78600B46FB707B68D3F8C832FB600E
:104864007B68D3F8D4227B68B03253F82230002B13
:1048740001D1032365E07B68D3F8D4227B68B0328E
:1048840053F82230BB60FB7803F00F0279681346BB
:104894009B0013449B000B4418331B68002B2FD040
:1048A400FB7803F00F02796813469B0013449B00C6
:1048B4000B4418331A68FB7803F00F01F8680B46B1
:1048C400DB000B449B00034448331B68B2FBF3F149
:1048D40001FB03F3D31A002B12D1FB7803F00F0270
:1048E400796813469B0013449B000B441833002241
:1048F4001A60F97800230022786802F024F91FE096
:10490400BB680022C3F814227B68D3F8D4327A68D7
:10491400B0339B0013445B681B69002B10D07B6889
:10492400D3F8D4327A68B0339B0013445B681B69B4
:10493400BA68D2F80802BA6802F50471FA7898479E
:10494400002318461037BD4680BD80B584B000AF43
:1049540078600B46FB707B68D3F8D4227B68B03256
:1049640053F82230FB607B68D3F8D4227B68B032E2
:1049740053F82230002B01D103231AE0FB781946A7
:10498400786802F022F90246FB68C3F80C227B68BF
:10499400D3F8D4327A68B0339B0013445B68DB6885
:1049A400FA68D2F80402FA6802F5037211469847CD
:1049B400002318461037BD4680BD80B584B000AFD3
:1049C40078607B68D3F8D4227B68B03253F8223005
:1049D400FB60FB68002B01D1032325E07B68D3F83F
:1049E400D4327A68B0339B0013445B68002B1AD02E
:1049F400FB6893F80032FF2B15D07B68D3F8D432D0
:104A04007A68B0339B0013445B689B68FA6892F839
:104A14000002F968FA6892F8012292B29847FB689A
:104A2400FF2283F80022002318461037BD4680BDBC
:104A340080B586B000AF78608221184800F009FD87
:104A440078610121154800F004FD38618121134883
:104A540000F0FFFCF8607B69002B02D07B69102218
:104A64009A713B69002B06D03B69002242F0400258
:104A74001A7100225A71FB68002B06D0FB680022D1
:104A840042F040021A7100225A717B6843221A8054
:104A9400024B18461837BD4680BD00BF50000020A9
:104AA40080B586B000AF78608221184800F0D1FC50
:104AB40078610121154800F0CCFC3861812113484C
:104AC40000F0C7FCF8607B69002B02D07B691022E0
:104AD4009A713B69002B06D03B6900221A710022AF
:104AE40042F002025A71FB68002B06D0FB680022D8
:104AF4001A71002242F002025A717B6843221A8022
:104B0400024B18461837BD4680BD00BF5000002038
:104B140080B586B000AF78608221184800F099FC17
:104B240078610121154800F094FC38618121134813
:104B340000F08FFCF8607B69002B02D07B691022A7
:104B44009A713B69002B06D03B69002242F0400277
:104B54001A7100225A71FB68002B06D0FB680022F0
:104B640042F040021A7100225A717B6843221A8073
:104B7400024B18461837BD4680BD00BF50000020C8
:104B840080B483B000AF78607B680A221A80034B3C
:104B940018460C37BD465DF8047B70470C000020B6
:104BA40080B483B000AF786039603B68002B01D1DA
:104BB400032309E07B68D3F8D4327A68B0339B00CE
:104BC40013443A685A60002318460C37BD465DF812
:104BD400047B704780B487B000AFF860B9607A6036
:104BE400FB68D3F8D422FB68B03253F822307B61DF
:104BF4007B69002B01D1032308E07B69BA68C3F801
:104C040008227B697A68C3F81022002318461C37EF
:104C1400BD465DF8047B704780B485B000AF786012
:104C240039607B68D3F8D4227B68B03253F82230E1
:104C3400FB60FB68002B01D1032304E0FB683A68A6
:104C4400C3F80422002318461437BD465DF8047BDC
:104C54007047000080B584B000AF78607B68D3F8FB
:104C6400D4227B68B03253F82230FB607B68D3F8DF
:104C7400D4227B68B03253F82230002B01D10323B5
:104C840018E07B681B7C002B0AD10C4B1978FB685D
:104C9400D3F804224FF40073786801F075FF08E03C
:104CA400064B1978FB68D3F804224023786801F096
:104CB4006BFF002318461037BD4680BD94000020CA
:104CC40080B586B000AFF860B9601346FB71FB682D
:104CD400002B01D103231FE0FB680022C3F8B82294
:104CE400FB680022C3F8C422FB680022C3F8D02268
:104CF400BB68002B03D0FB68BA68C3F8B422FB6816
:104D0400012283F89C22FB68FA791A70F86801F092
:104D1400E5FD0346FB75FB7D18461837BD4680BD8F
:104D240080B584B000AF786039600023FB813B68B4
:104D3400002B01D1032325E07B683A68C3F8B8222D
:104D44007B68D3F8D4227B68AE3253F82230DB6A16
:104D5400002B0FD07B68D3F8D4227B68AE3253F893
:104D64002230DB6A07F10E021046984702467B6840
:104D7400C3F8D0227B68D3F8D8325A1C7B68C3F8B6
:104D8400D822002318461037BD4680BD80B582B0B6
:104D940000AF7860786801F0EDFD034618460837E7
:104DA400BD4680BD80B483B000AF78600023184650
:104DB4000C37BD465DF8047B704780B584B000AF06
:104DC40078600B46FB700023FB737B68D3F8B83222
:104DD400002B09D07B68D3F8B8321B68FA781146E7
:104DE400786898470346FB73FB7B18461037BD462B
:104DF40080BD80B584B000AF78600B46FB700023A3
:104E0400FB737B68D3F8B8325B68FA78114678682C
:104E140098470346002B01D00323FB73FB7B184602
:104E24001037BD4680BD80B584B000AF786039606E
:104E34007B6803F2AA233968184601F008F97B68F5
:104E44000122C3F894227B68B3F8B0321A467B6817
:104E5400C3F898227B6893F8AA3203F01F03022B4D
:104E64001AD0022B22D8002B02D0012B0AD01DE02D
:104E74007B6803F2AA231946786800F05FFB0346B7
:104E8400FB7320E07B6803F2AA231946786800F0DC
:104E9400C7FB0346FB7316E07B6803F2AA2319469B
:104EA400786800F029FC0346FB730CE07B6893F8F8
:104EB400AA3223F07F03DBB21946786801F0BAFD09
:104EC4000346FB7300BFFB7B18461037BD4680BD0D
:104ED40080B586B000AFF8600B467A60FB720023A1
:104EE400FB75FB7A002B6ED1FB6803F5AA733B615B
:104EF400FB68D3F89432032B40F098803B699A689E
:104F04003B69DB689A4213D93B699A683B69DB6861
:104F1400D21A3B699A603B69DA683B699B689342A1
:104F240028BF13461A467968F86801F084F97DE0D1
:104F3400FB6893F8AA3203F01F03022B14D0022B50
:104F44001DD8002B02D0012B03D018E00023BB7521
:104F540018E0FB68B3F8AE32DBB21946F86800F02B
:104F64005EFA0346BB750DE0FB68B3F8AE32DBB204
:104F74001946F86800F060FA0346BB7502E00023A6
:104F8400BB7500BFBB7D002B19D1FB6893F89C3225
:104F9400DBB2032B13D1BA7DFB68AE3253F8223057
:104FA4001B69002B0BD0BA7DFB68C3F8D422BA7DF1
:104FB400FB68AE3253F822301B69F8689847F868EA
:104FC40001F04AF932E0FB7A03F07F03DBB21946C1
:104FD400F86800F031FA0346BB75BB7DFF2B25D082
:104FE400BB7D002B22D1FB6893F89C32DBB2032BF0
:104FF40017D1BA7DFB68AE3253F822309B69002B7F
:105004000FD0BA7DFB68C3F8D422BA7DFB68AE32F8
:1050140053F822309B69FA7A1146F8689847034698
:10502400FB75FB7D002B01D0FB7D00E000231846BF
:105034001837BD4680BD80B586B000AFF8600B461A
:105044007A60FB72FB7A002B6FD1FB6814333B61EF
:10505400FB68D3F89432022B5AD13B699A683B69B6
:10506400DB689A4214D93B699A683B69DB68D21AB7
:105074003B699A603B699B681A467968F86801F055
:10508400ACF8002300220021F86801F07DFD3FE028
:105094003B69DA683B699B689A421CD13B695A6850
:1050A4003B69DB689A4216D33B695A68FB68D3F8BC
:1050B40098329A420FD200220021F86801F08DF84C
:1050C400FB680022C3F89822002300220021F8681C
:1050D40001F05AFD1CE0FB6893F89C32DBB2032B11
:1050E4000FD1FB68D3F8B832DB68002B09D0FB681A
:1050F4000022C3F8D422FB68D3F8B832DB68F8681E
:1051040098478021F86801F095FCF86801F0B7F839
:10511400FB6893F8A032002B3AD0F868FFF742FE00
:10512400FB68002283F8A02232E0FB7A63F07F035D
:10513400DBB21946F86800F07FF90346FB75FB7D86
:10514400FF2B25D0FB7D002B22D1FB6893F89C32EA
:10515400DBB2032B1CD1FA7DFB68AE3253F822304C
:105164005B69002B14D0FA7DFB68C3F8D422FA7D66
:10517400FB68AE3253F822305B69FA7A1146F8685C
:1051840098470346BB75BB7D002B01D0BB7D00E077
:10519400002318461837BD4680BD80B584B000AFE3
:1051A40078600023FB737B68012283F89C227B6870
:1051B4000022C3F894227B6800225A607B68002294
:1051C400C3F8A4227B68002283F8A0227B68D3F86A
:1051D400B832002B14D07B68D3F8B8325B68002B4C
:1051E4000ED07B68D3F8B8325B687A685268D2B262
:1051F4001146786898470346002B01D00323FB73BC
:10520400402300220021786801F0CFFB7B68012253
:10521400A3F864217B684022C3F860214023002264
:105224008021786801F0C1FB7B6801229A847B6845
:1052340040221A62FB7B18461037BD4680BD80B4FD
:1052440083B000AF78600B46FB707B68FA781A7401
:10525400002318460C37BD465DF8047B704780B4C4
:1052640083B000AF78607B6893F89C32DAB27B68D5
:1052740083F89D227B68042283F89C22002318462D
:105284000C37BD465DF8047B704780B483B000AF33
:1052940078607B6893F89C32DBB2042B06D17B6880
:1052A40093F89D32DAB27B6883F89C220023184677
:1052B4000C37BD465DF8047B704780B582B000AF03
:1052C40078607B6893F89C32DBB2032B10D17B6847
:1052D400D3F8B832002B0BD07B68D3F8B832DB6933
:1052E400002B05D07B68D3F8B832DB69786898471F
:1052F400002318460837BD4680BD80B582B000AF94
:1053040078600B46FB707B68D3F8D4227B68AE329E
:1053140053F82230002B01D103231CE07B6893F85F
:105324009C32DBB2032B15D17B68D3F8D4227B6883
:10533400AE3253F822301B6A002B0BD07B68D3F8B3
:10534400D4227B68AE3253F822301B6AFA781146B5
:1053540078689847002318460837BD4680BD80B555
:1053640082B000AF78600B46FB707B68D3F8D42220
:105374007B68AE3253F82230002B01D103231CE0AA
:105384007B6893F89C32DBB2032B15D17B68D3F88E
:10539400D4227B68AE3253F822305B6A002B0BD0E8
:1053A4007B68D3F8D4227B68AE3253F822305B6A30
:1053B400FA78114678689847002318460837BD469E
:1053C40080BD80B483B000AF7860002318460C37EA
:1053D400BD465DF8047B704780B584B000AF78604B
:1053E4000023FB737B68012283F89C227B68D3F83B
:1053F400B832002B0ED07B68D3F8B8325B687A6879
:105404005268D2B21146786898470346002B01D0FF
:105414000323FB73FB7B18461037BD4680BD80B465
:1054240083B000AF78600B46FB70002318460C373E
:10543400BD465DF8047B704780B483B000AF7860EC
:105444000B46FB70002318460C37BD465DF8047B01
:10545400704780B586B000AF78600B46FB707B6800
:105464007B617B68FB6000233B61FB685B889AB2CD
:10547400FB681B789BB29A4220D9FB681B789BB2CD
:105484007B8113E007F10A031946786900F01BF8E1
:1054940078617B695B78052B08D17B693B613B694B
:1054A4009B78FA789A4208D000233B61FB685B88BA
:1054B4009AB27B899A42E5D800E000BF3B6918465E
:1054C4001837BD4680BD80B485B000AF78603960C0
:1054D4007B68FB603B681A88FB681B789BB21344AB
:1054E4009AB23B681A80FB681B781A467B6813449F
:1054F400FB60FB6818461437BD465DF8047B7047B3
:1055040080B487B000AF78607B687B617B691B786F
:105514007B827B6901337B617B691B783B823B8A9D
:105524001B021AB2B7F9123013431BB2FB81FB8979
:1055340018461C37BD465DF8047B704780B584B0BF
:1055440000AF786039600023FB733B681B7803F07D
:105554006003402B05D0402B57D8002B0FD0202BB5
:1055640053D17B68D3F8D4227B68AE3253F822300F
:105574009B683968786898470346FB734AE03B6840
:105584005B78092B3BD801A252F823F0E5550008BB
:10559400F955000803560008EF55000803560008A3
:1055A400C3550008B955000803560008DB55000828
:1055B400CD5500083968786800F03CFA24E0396871
:1055C400786800F0A1FB1FE03968786800F0E0FB20
:1055D4000346FB7318E03968786800F083FC13E035
:1055E4003968786800F0B4FC0EE03968786800F037
:1055F400E3FC09E03968786800F007FD04E03968E5
:10560400786800F05EFD00BF04E03968786800F057
:1056140058FD00BFFB7B18461037BD4680BD00BF58
:1056240080B584B000AF786039600023FB733B68B9
:105634001B7803F06003402B05D0402B52D8002B7D
:1056440001D0202B4ED17B6893F89C32DBB2013B16
:10565400022B40D83B689B88DBB2012B36D83B68D1
:105664009B88DBB219467868FFF7D9FE0346BB7303
:10567400BB7BFF2B1DD0BB7B002B1AD1BA7B7B6875
:10568400AE3253F822309B68002B0FD0BA7B7B6874
:10569400C3F8D422BA7B7B68AE3253F822309B68BD
:1056A4003968786898470346FB7304E00323FB7367
:1056B40001E00323FB733B68DB88002B10D1FB7BE9
:1056C400002B0DD1786800F0C7FD09E039687868CF
:1056D40000F0F7FC04E03968786800F0F2FC00E0C0
:1056E40000BF04E03968786800F0EBFC00BFFB7B86
:1056F40018461037BD4680BD80B584B000AF7860D1
:1057040039600023FB733B689B88BB733B681B7841
:1057140003F06003402B07D0402B00F27F81002B65
:105724002AD0202B40F07A81BB7B19467868FFF79A
:1057340083FE03467B737B7BFF2B00F074817B7BB2
:10574400002B40F070817A7B7B68C3F8D4227A7B8B
:105754007B68AE3253F822309B68002B00F06381E3
:105764007A7B7B68AE3253F822309B68396878685C
:1057740098470346FB7356E13B685B78032B08D0DC
:10578400032B00F34581002B00F09B80012B3CD0C0
:105794003EE17B6893F89C32DBB2022B02D0032BF0
:1057A40016D02CE0BB7B002B0DD0BB7B802B0AD00A
:1057B400BB7B1946786801F03DF98021786801F0D7
:1057C40039F900BF20E03968786800F07AFC1BE002
:1057D4003B685B88002B0ED1BB7B002B0BD0BB7BC3
:1057E400802B08D03B68DB88002B04D1BB7B194697
:1057F400786801F01FF9786800F02EFD04E039683C
:10580400786800F05EFC00BF07E17B6893F89C3287
:10581400DBB2022B02D0032B16D04BE0BB7B002B58
:105824000DD0BB7B802B0AD0BB7B1946786801F076
:1058340001F98021786801F0FDF800BF40E0396883
:10584400786800F03EFC3BE03B685B88002B36D177
:10585400BB7B03F07F03002B04D0BB7B1946786825
:1058640001F007F9786800F0F7FCBB7B194678680B
:10587400FFF7E2FD03467B737B7BFF2B1FD07B7B13
:10588400002B1CD17A7B7B68C3F8D4227A7B7B689B
:10589400AE3253F822309B68002B10D07A7B7B68A1
:1058A400AE3253F822309B683968786898470346CB
:1058B400FB7304E03968786800F003FC00E000BF83
:1058C400ABE07B6893F89C32DBB2022B02D0032B53
:1058D40032D097E0BB7B002B07D0BB7B802B04D05E
:1058E4003968786800F0EDFB91E097F90E30002BF1
:1058F4000BDABB7B03F07F0213469B0013449B002F
:1059040010337A68134404330BE0BB7B03F07F024B
:1059140013469B0013449B0003F5A8737A68134451
:105924000433BB60BB6800221A60BB6802221946BC
:10593400786800F037FC6AE097F90E30002B11DA32
:10594400BB7B03F00F02796813469B0013449B0052
:105954000B4424331B88002B17D13968786800F076
:10596400B0FB54E0BB7B03F00F02796813469B0045
:1059740013449B000B4403F5B2731B88002B04D122
:105984003968786800F09DFB41E097F90E30002BF0
:105994000BDABB7B03F07F0213469B0013449B008E
:1059A40010337A68134404330BE0BB7B03F07F02AB
:1059B40013469B0013449B0003F5A8737A681344B1
:1059C4000433BB60BB7B002B02D0BB7B802B03D199
:1059D400BB6800221A600EE0BB7B1946786801F0B0
:1059E40067F80346002B03D0BB6801221A6002E06B
:1059F400BB6800221A60BB6802221946786800F06E
:105A0400D1FB04E03968786800F05BFB00BF04E078
:105A14003968786800F055FB00BF05E0396878689C
:105A240000F04FFB00E000BFFB7B18461037BD467B
:105A340080BD000080B584B000AF78603960002379
:105A44003B810023FB600023FB723B685B881B0ADD
:105A54009BB2013B062B00F2288101A252F823F0ED
:105A6400815A0008995A0008D95A0008AF5C000806
:105A7400AF5C00084F5C00087B5C00087B68D3F8CF
:105A8400B4321B687A68127C07F108011046984703
:105A9400F86012E17B681B7C002B0DD17B68D3F886
:105AA400B8329B6A07F1080210469847F860FB6811
:105AB400013302221A7000E17B68D3F8B832DB6A42
:105AC40007F1080210469847F860FB680133022288
